:020000040800F2
:10000000D00900201D020008250200082702000870
:10001000290200082B0200082D0200080000000041
:100020000000000000000000000000002F02000897
:100030003102000800000000330200083502000809
:1000400037020008370200083702000837020008AC
:10005000370200083702000837020008370200089C
:10006000370200083702000837020008370200088C
:10007000370200083702000837020008370200087C
:10008000370200083702000837020008370200086C
:10009000370200083702000837020008370200085C
:1000A000370200083702000837020008370200084C
:1000B0003702000837020008493E000837020008EE
:1000C000370200083702000837020008370200082C
:1000D00037020008FD040008553200083702000806
:1000E000370200083702000837020008370200080C
:1000F00037020008370200083702000837020008FC
:1001000037020008370200083702000837020008EB
:1001100037020008370200083702000837020008DB
:1001200037020008370200083702000837020008CB
:1001300000F002F800F062F80AA090E8000C824497
:100140008344AAF10107DA4501D100F057F8AFF274
:10015000090EBAE80F0013F0010F18BFFB1A43F0A5
:100160000103184700450000204500000A444FF0F5
:10017000000C10F8013B13F0070408BF10F8014B06
:100180001D1108BF10F8015B641E05D010F8016B4B
:10019000641E01F8016BF9D113F0080F1EBF10F8AF
:1001A000014BAD1C0C1B09D16D1E58BF01F801CBD2
:1001B000FAD505E014F8016B01F8016B6D1EF9D555
:1001C0009142D6D37047000000230024002500266A
:1001D000103A28BF78C1FBD8520728BF30C148BFAA
:1001E0000B607047642903F08386782903F0BC868E
:1001F000002070471FB51FBD10B510BD04F03BF8BF
:100200001146FFF7F7FF00F0C6F804F059F803B401
:10021000FFF7F2FF03BC00F0ABFA0000094880478B
:1002200009480047FEE7FEE7FEE7FEE7FEE7FEE7D8
:10023000FEE7FEE7FEE7FEE704480549054A064BF0
:10024000704700005F23000831010008D003002040
:10025000D0090020D0050020D005002010B52021B5
:100260007C4800F01AFC012000F0AFF97A480288BF
:100270007A497B48007802F015FF022000F0A5F9CA
:100280004021784800F00BFC2021724800F007FC68
:10029000012000F09AF910BD2DE9F05F05460F46E8
:1002A00016469B464FF0000AD046C14638B2002899
:1002B0006CDBB819082869DC6BA003F0D9FD39465E
:1002C0006BA003F0D5FD6F480088381A04B22146B0
:1002D0006DA003F0CDFD71484078032802D00628B8
:1002E00053D13CE037E06EA003F0C2FD6B480078CC
:1002F0005A49087069484078487068484079887061
:100300004FF000080BE0654840794044684911F817
:10031000101008F10300514A115408F101085F4818
:1003200040794045EFDC5D484079C01C4A4908806F
:100330004FF0000908E0494810F8092049465DA03F
:1003400003F096FD09F10109434800888145F2DB7D
:10035000FFF784FF01E0002EC5DC00BF15E011E0CF
:1003600015F8011B0802524921F8140015F8010B79
:1003700031F8141008434E4921F81400601C04B2EF
:10038000701E86B2002EEBDC00BF01E04FF0010AC8
:100390005046BDE8F09F08B502204FF416530246C0
:1003A00001210090002003F07DF903F038FA00F0FD
:1003B00028F900F071F900F04CF900F0DEF941483D
:1003C000037841480288414801883448FFF764FFB8
:1003D0003FA003F04DFD13E003F046FA41480068EA
:1003E00001280DD140A003F043FD2C484378427909
:1003F000C178FFF751FF08211A4800F050FB00E0D8
:10040000EAE700BF002008BD30B503460020002900
:1004100017DB8D18082D14DC364D2D884C1B0DE094
:10042000354D35F814502D1203F8015B324D15F897
:10043000145003F8015B641C551EAAB2002AEFDCBD
:1004400000E0012030BD10B50446012010BD034678
:1004500001207047001801403600002044010020B0
:100460002C000020001401406A696E7275200000A3
:10047000757341646472657373203D2025640D0AB1
:10048000000000002200002069526567496E646523
:1004900078203D2025640D0A000000002400002083
:1004A000BDF8C8EB7768696C65D1ADBBB70D0A00C4
:1004B000120000206275665B25645D203D20256486
:1004C0000D0A000032000020300000202E00002025
:1004D000BDF8C8EBB4D3BBFAD6F7B3CCD0F20D0A53
:1004E0000000000034010020666C6167203D20316F
:1004F00000000000100000200000002010B540F2B5
:1005000025510A4800F0FCFE70B1084800F078FE62
:1005100004462146054800F06FFE00BF80210348D5
:1005200000F0D8FE0028F9D010BD000000380140CE
:1005300010B500F053FB4FF4803000F06FFB00F07B
:10054000ACFB012820D1002000F0EDFB002000F0E2
:10055000FCFB4FF4806000F0EFFB4FF4E0114FF430
:10056000803000F0C3FB012000F0CCFB00BF39203D
:1005700000F077FB0028FAD0022000F0C6FB00BF95
:1005800000F0CCFB0828FBD110BD00E0401E002885
:10059000FCD17047014601EBC1024FF0E0235A61E4
:1005A00000229A6101221A6100BF4FF0E022106917
:1005B00000F001021AB100F48032002AF5D00022C6
:1005C0004FF0E0231A619A617047014642F22832E7
:1005D0004A434FF0E0235A6100229A6101221A61D6
:1005E00000BF4FF0E022106900F001021AB100F4E0
:1005F0008032002AF5D000224FF0E0231A619A6180
:10060000704710B501F0ABFE0121042000F054FC4E
:100610000121082000F050FC0121102000F04CFCCA
:100620000121202000F048FC0121402000F044FC82
:100630000121802000F040FC0121084600F03CFC34
:100640000121880300F038FC0121480400F041FC3E
:1006500010BD08B54FF4C06001F0A4FD25208DF851
:10066000000000208DF8010001208DF802008DF8B7
:100670000300684601F09BFD26208DF80000002055
:100680008DF801008DF8020001208DF80300684606
:1006900001F08DFD08BD000008B50420ADF8000094
:1006A00003208DF8020010208DF8030069462448CD
:1006B00000F046F92020ADF8000003208DF802007C
:1006C00010208DF8030069461D4800F039F92E20EE
:1006D000ADF8000048208DF8030003208DF80200DB
:1006E0006946184800F02CF92020ADF800000320DE
:1006F0008DF8020010208DF803006946124800F0C2
:100700001FF94820ADF8000003208DF802001020EA
:100710008DF8030069460D4800F012F920210A48BF
:1007200000F0BDF90821094800F0B7F94021074859
:1007300000F0B3F90421024800F0AFF908BD000051
:100740000018014000100140000C0140001401405D
:1007500070B504460D46A1B2464800F04DFD00BFFD
:100760008021444800F0B6FD0028F9D0204670BD35
:10077000014600BF704700BF704700B585B0042038
:10078000ADF8100003208DF8120018208DF813002A
:1007900004A9394800F0D4F80820ADF8100003206F
:1007A0008DF8120004208DF8130004A9324800F0DF
:1007B000C7F84FF40070ADF8100003208DF8120058
:1007C00018208DF8130004A92B4800F0B9F84FF455
:1007D0008060ADF8100003208DF8120004208DF821
:1007E000130004A9244800F0ABF84FF41650009011
:1007F0000020ADF80400ADF80600ADF80800ADF833
:100800000C000C20ADF80A0069461A4800F0FBFB0A
:10081000012240F22551174800F08DFC01211548B6
:1008200000F07DFC4021134800F061FD4FF41650AC
:1008300000900020ADF80400ADF80600ADF8080007
:10084000ADF80C000C20ADF80A0069460B4800F02A
:10085000DAFB012240F22551084800F06CFC01212E
:10086000064800F05CFC4021044800F040FD05B063
:1008700000BD000000380140000801400044004075
:1008800010B50446CC48844208D10121042000F070
:100890002DFB0021042000F029FB46E0C7488442DC
:1008A00008D10121082000F021FB0021082000F0E0
:1008B0001DFB3AE0C248844208D10121102000F01B
:1008C00015FB0021102000F011FB2EE0BD488442F2
:1008D00008D10121202000F009FB0021202000F098
:1008E00005FB22E0B848844208D10121402000F0F5
:1008F000FDFA0021402000F0F9FA16E0B3488442E6
:1009000008D10121802000F0F1FA0021802000F0C0
:10091000EDFA0AE0AE48844207D10121801500F0CB
:10092000E5FA0021A01500F0E1FA10BD10B5012193
:10093000084600F0DBFA0021012000F0D7FA10BDD4
:100940002DE9F04102460025002600200023002466
:10095000002791F803C00CF00F0591F803C00CF0CC
:10096000100CBCF1000F03D091F802C04CEA050551
:1009700091F800C0BCF1000F31D0146800202BE0CA
:100980004FF0010C0CFA00F3B1F800C00CEA0306BA
:100990009E4220D183004FF00F0C0CFA03F7BC43AA
:1009A00005FA03FC4CEA040491F803C0BCF1280FDB
:1009B00006D14FF0010C0CFA00FCC2F814C00AE09A
:1009C00091F803C0BCF1480F05D14FF0010C0CFAAF
:1009D00000FCC2F810C0401C0828D1D31460B1F844
:1009E00000C0BCF1FF0F34DD546800202EE000F1A0
:1009F000080C4FF0010808FA0CF3B1F800C00CEA3B
:100A000003069E4221D183004FF00F0C0CFA03F72E
:100A1000BC4305FA03FC4CEA040491F803C0BCF1A2
:100A2000280F05D100F1080C08FA0CF8C2F8148060
:100A300091F803C0BCF1480F07D100F1080C4FF04A
:100A4000010808FA0CF8C2F81080401C0828CED320
:100A50005460BDE8F0814FF6FF7101800221817082
:100A60000421C17070470246002093680B400BB10F
:100A7000012000E0002070470146886880B270477E
:100A800002460020D3680B400BB1012000E000209B
:100A900070470146C86880B2704701617047416184
:100AA00070470AB1016100E041617047C160704761
:100AB0004FF480320A438261816182618269826976
:100AC000704702460020434B18684FF68073184069
:100AD00040EA021008433F4B186070473E49C86126
:100AE0007047F0B50A46002300240021002500F0DD
:100AF0000046B6F1004F02D1364EF16901E0354EA5
:100B00007168C0F3034583B200F44016B6F5401F88
:100B100008D121F070612F4E766826F070662D4F57
:100B20007E6012E000F48016B6F5801F06D1032621
:100B300006FA05F4A14341F0706106E0460D360166
:100B400003FA06F6B14341F0706122B1460D360159
:100B500003FA06F6314300F00046B6F1004F02D129
:100B60001C4EF16101E01B4E7160F0BD30B50022FA
:100B70008B071C0F0F2303FA04F2164B08338C105B
:100B800053F824309343134C08348D1044F8253027
:100B900023468C1053F824308C07240F00FA04F4F9
:100BA00023430C4C08348D1044F8253030BD0A49DD
:100BB000DC3108607047000000080140000C014073
:100BC000001001400014014000180140001C0140C9
:100BD000002001400000014000002042DF48006882
:100BE00040F00100DD49086008464068DC490840E3
:100BF000DA49486008460068DA490840D749086081
:100C00000846006820F4802008600846406820F408
:100C1000FE0048604FF41F0088607047CF490968A4
:100C200021F48031CD4A11601146096821F48021F8
:100C30001160B0F5803F03D0B0F5802F0ED106E0F3
:100C4000C649096841F48031C44A116007E0C349CC
:100C5000096841F4A021C14A116000E000BF00BF53
:100C6000704710B501460022002300204A11012AD6
:100C700002D1BA4C236806E0022A02D1B74C236A9B
:100C800001E0B64C636A01F01F02012494401C404D
:100C90000CB1012000E0002010BD38B5002000900C
:100CA0000024002500BF3120FFF7DBFF0546009838
:100CB000401C00900098B0F5A06F01D0002DF2D03C
:100CC0003120FFF7CEFF08B1012400E000242046C8
:100CD00038BD01460020A14A106820F0F80040EA23
:100CE000C10010607047A0490860704702460020AC
:100CF0009A4B586820F47C1042EA01031843974B42
:100D00005860704798490866704701460020934A2A
:100D1000506820F003000843506070478F484068D7
:100D200000F00C007047014600208C4A506820F00B
:100D3000F00008435060704701460020874A506821
:100D400020F4E06008435060704701460020834A69
:100D5000506820F4605040EAC1005060704729B1EB
:100D60007E4A527A02437D4B5A7204E07B4A527AA1
:100D700082437A4B5A7270477B49D831086070477A
:100D800001460020754A506820F4404008435060F6
:100D900070470021714A20321170704A82F8201089
:100DA000012802D004280AD104E001216B4A203234
:100DB000117005E00521694A2032117000E000BF82
:100DC00000BF70476949086070476449096A014378
:100DD000624A11627047654944390860704730B50E
:100DE00000210022002400235C4D6D6805F00C01F9
:100DF00021B1042905D0082923D105E05C4D056007
:100E000022E05B4D05601FE0544D6D6805F47012E3
:100E1000524D6D6805F48034022505EB92421CB9F1
:100E2000544D554305600BE04C4D6D6805F400359D
:100E30001DB1504D5543056002E04D4D55430560D1
:100E400002E04B4D056000BF00BF444D6D6805F0EA
:100E5000F0010909484D6B5C0568DD4045603F4D78
:100E60006D6805F4E061090A434D6B5C4568DD403F
:100E700085603A4D6D6805F46051C90A3E4D6B5C62
:100E80004568DD40C560354D6D6805F44041890B0E
:100E90003A4D6B5CC568B5FBF3F5056130BD29B112
:100EA0002E4A526902432D4B5A6104E02B4A526983
:100EB00082432A4B5A61704729B1284A92690243FA
:100EC000264B9A6104E0254A92698243234B9A613A
:100ED000704729B1214AD2690243204BDA6104E00C
:100EE0001E4AD26982431D4BDA61704729B11B4A01
:100EF000D2680243194BDA6004E0184AD268824390
:100F0000164BDA60704729B1144A12690243134B39
:100F10001A6104E0114A12698243104B1A6170474A
:100F200012494039086070470F49C86470470B493F
:100F3000C87170470948406A40F0807007494862AC
:100F4000704701460020054A92680A400AB1012014
:100F500000E000207047014988727047001002408D
:100F60000000FFF8FFFFF6FE00004242800442420C
:100F700000127A0000093D003C0000204C000020D7
:100F800010B50446FB48844209D101218803FFF7CC
:100F9000ADFF00214FF48040FFF7A8FF32E0F64894
:100FA000844209D101214804FFF7ADFF00214FF42D
:100FB0000030FFF7A8FF25E0F048844209D1012165
:100FC0008804FFF7A0FF00214FF48020FFF79BFF6C
:100FD00018E0EB48844209D10121C804FFF793FFD0
:100FE00000214FF40020FFF78EFF0BE0E54884421C
:100FF00008D101210805FFF786FF00214FF480107A
:10100000FFF781FF10BD2DE9F04786B005460E467B
:101010000024A24600BFA1460027B08900B100BF4E
:101020002F462C8A4CF6FF700440F08804432C8233
:10103000AC894EF6F3100440B088318908437189B9
:1010400008430443AC81AC8A4FF6FF400440B089AA
:101050000443AC8201A8FFF7C2FEC648874202D112
:10106000DDF810A001E0DDF80CA0A88900F4004034
:1010700040B10AEBCA0000EB0A1031684900B0FB2E
:10108000F1F807E00AEBCA0000EB0A1031688900AA
:10109000B0FBF1F86420B8FBF0F0040120096421F2
:1010A00001FB1089A88900F4004040B1322000EB18
:1010B000C900B0FBF1F000F00700044308E0322063
:1010C00000EB09106421B0FBF1F000F00F000443C5
:1010D0002C8106B0BDE8F0874FF416510160002165
:1010E0008180C18001810C21418100218181704773
:1010F00010B502460020108A4FF2FF0318400B88FB
:101100004C8823438C882343CC8823431843108284
:1011100010BD0021018041808180C180704721B1D4
:10112000828942F40052828104E082894DF6FF7385
:101130001A4082817047F0B503460024002600253E
:10114000002040F66A17B94200D100BF1846C1F32B
:10115000421401F01F06012707FA06F5012C01D100
:101160000C3004E0022C01D1103000E014301AB130
:1011700007682F43076002E00768AF430760F0BDD0
:101180001AB1838A0B43838202E0838A8B43838272
:101190007047028A4FF6F0731A400282028A0A43AD
:1011A0000282704782894FF2FF731A4082818289DE
:1011B0000A438281704721B1828942F00202828112
:1011C00004E082894FF6FD731A4082817047028ADB
:1011D0004FF6DF731A400282028A0A430282704786
:1011E00021B1028A42F48042028204E0028A4BF674
:1011F000FF731A4002827047C1F308028280704771
:1012000001468888C0F308007047818941F00101D8
:1012100081817047028BD2B20283028B42EA0122A3
:1012200002837047028B02F47F420283028B0A43DF
:101230000283704721B1828A42F02002828204E058
:10124000828A4FF6DF731A408282704721B1828A08
:1012500042F01002828204E0828A4FF6EF731A4055
:101260008282704721B1828A42F00802828204E0C1
:10127000828A4FF6F7731A408282704721B18289C1
:1012800042F40042828103E08289C2F30E0282812D
:10129000704721B1828A42F40062828204E0828A2D
:1012A0004FF2FF731A4082827047828A4FF6FB73B7
:1012B0001A408282828A0A438282704721B1828ADE
:1012C00042F00202828204E0828A4FF6FD731A40E5
:1012D0008282704702460020B1F5007F00D100BF36
:1012E00013880B400BB1012000E00020704701F48F
:1012F0000072B2F5007F00D100BFCA430280704780
:1013000070B50246002400230025002040F66A162E
:10131000B14200D100BFC1F3421501F01F03012605
:1013200006FA03F3012D02D19689334006E0022D1F
:1013300002D1168A334001E0968A33400C1201260E
:1013400006FA04F41688344013B10CB1012000E011
:10135000002070BD10B50022002340F66A14A1429F
:1013600000D100BF0A1201249440A3B2DC430480E0
:1013700010BD00000038014000440040004800401B
:10138000004C00400050004010B50446FE48844226
:1013900008D10121C014FFF7A9FD0021E014FFF7D7
:1013A000A5FDC4E0B4F1804F08D101210846FFF744
:1013B000AAFD00210120FFF7A6FDB8E0F348844212
:1013C00008D101210220FFF79EFD00210220FFF736
:1013D0009AFDACE0EE48844208D101210420FFF7D9
:1013E00092FD00210420FFF78EFDA0E0E948844231
:1013F00008D101210820FFF786FD00210820FFF712
:1014000082FD94E0E448844208D101211020FFF7D6
:101410007AFD00211020FFF776FD88E0DF48844246
:1014200008D101212020FFF76EFD00212020FFF7C9
:101430006AFD7CE0DA48844208D101214014FFF7BC
:1014400055FD00216014FFF751FD70E0D54884423E
:1014500009D10121C804FFF749FD00214FF4002004
:10146000FFF744FD63E0D048844209D1012108051B
:10147000FFF73CFD00214FF48010FFF737FD56E0E9
:10148000CA48844209D101214805FFF72FFD0021F8
:101490004FF40010FFF72AFD49E0C548844208D107
:1014A00001214020FFF72FFD00214020FFF72BFDF9
:1014B0003DE0C048844208D101218020FFF723FD90
:1014C00000218020FFF71FFD31E0BB48844208D196
:1014D00001218015FFF717FD0021A015FFF713FD6F
:1014E00025E0B648844209D101210804FFF7FEFC3B
:1014F00000214FF48030FFF7F9FC18E0B048844237
:1015000009D101214804FFF7F1FC00214FF400301C
:10151000FFF7ECFC0BE0AB48844208D101218804C2
:10152000FFF7E4FC00214FF48020FFF7DFFC10BD43
:1015300000220288944B98420ED0994B98420BD0CF
:10154000B0F1804F08D0914B984205D0904B984213
:1015500002D0904B984204D14FF68F731A404B88BB
:101560001A438D4B984207D08C4B984204D04FF6CB
:10157000FF431A40CB881A4302808B8883850B88EF
:101580000385814B98420BD0854B984208D08B4BFA
:10159000984205D08A4B984202D08A4B984201D19A
:1015A0000B7A038601238382704770B500240022E2
:1015B0000023058C4FF6FE7635400584028C838827
:1015C000048B4FF68F752C40B51E2C400D882C4394
:1015D000751E2A400D892A434D882A436A4DA84228
:1015E0000BD06F4DA84208D0744DA84205D0744D61
:1015F000A84202D0734DA84213D14FF6F7752A4086
:101600004D892A434FF6FB752A408D882A434FF6B1
:10161000FF652B404FF6FF552B408D892B43CD891D
:101620002B4383800483CD888586028470BD70B58A
:10163000002400220023058C4FF6EF763540058408
:10164000028C8388048B48F6FF752C404FF6FF45CB
:101650002C400D884FF6FF7606EA05252C434FF601
:10166000DF752A400D8906EA05152A434D8806EAEA
:1016700005152A43444DA84202D0494DA8421DD128
:101680004FF67F752A404D894FF6FF7606EA05151D
:101690002A434FF6BF752A408D8806EA05152A436E
:1016A0004FF6FF352B404FF2FF752B408D8906EA30
:1016B00085052B43CD8906EA85052B43838004836A
:1016C000CD880587028470BD70B5002400220023F8
:1016D000058C4FF6FF6635400584028C8388848B29
:1016E0004FF68F752C404FF6FC752C400D882C431F
:1016F0004FF6FF552A400D894FF6FF7606EA05257D
:101700002A434D8806EA05252A431F4DA84202D0E8
:10171000234DA8421DD14FF2FF752A404D894FF647
:10172000FF7606EA05252A434FF6FF352A408D88C5
:1017300006EA05252A434EF6FF752B404DF6FF7548
:101740002B408D8906EA05152B43CD8906EA051540
:101750002B4383808483CD888587028470BD70B5D8
:10176000002200230024058C4EF6FF7635400584C8
:10177000038C8488828B48F6FF752A404FF6FF451C
:101780002A400D8820E00000002C014000040040A9
:1017900000080040000C0040001000400014004011
:1017A00000340140004C0140005001400054014011
:1017B00000180040001C0040002000400040014094
:1017C00000440140004801404FF6FF7606EA052537
:1017D0002A434DF6FF752B400D8906EA05352B434C
:1017E0004D8806EA05352B43FA4DA84202D0FA4D42
:1017F000A84208D14BF6FF752C408D894FF6FF7635
:1018000006EA85152C4384808283CD88A0F8405059
:10181000038470BD828B4FF2FF331A408283828B28
:101820004FF6FF7303EA01231A4382837047F0B532
:101830000C461546002200210026078C4EF6FF7C40
:1018400007EA0C070784828B018C4FF6FF7707EAC3
:10185000043640F6FF473A404FF6FF7707EA052780
:101860003A434FF6FF7707EA03373A43D94FB84276
:101870000ED0D94FB8420BD0B0F1804F08D0D74F1F
:10188000B84205D0D64FB84202D0D64FB84206D1A2
:101890004DF6FF77394046F48057394305E047F667
:1018A000FF57394044F48057394382830184F0BDA7
:1018B000828B4FF6F3731A408283828B0A438283B2
:1018C0007047F0B50C461546002200210026078C13
:1018D0004FF6FF6C07EA0C070784828B018C4FF6EA
:1018E000FF7707EA04264FF60C773A404FF6FF776A
:1018F00007EA03172F433A43B64FB8420ED0B64F0C
:10190000B8420BD0B0F1804F08D0B44FB84205D0E8
:10191000B34FB84202D0B34FB84206D14FF6FF578B
:10192000394046F48077394305E04FF2FF5739409C
:1019300044F48077394382830184F0BD028B4FF2F7
:10194000FF331A400283028B4FF6FF7303EA012331
:101950001A4302837047F0B50C4615460022002159
:101960000026078C4FF6EF7C07EA0C070784028BF2
:10197000018C4FF6FF7707EA041640F6FF473A401E
:101980004FF6FF7707EA03373A434FF6FF7707EA48
:1019900005273A438F4FB8420ED08F4FB8420BD035
:1019A000B0F1804F08D08D4FB84205D08C4FB8426F
:1019B00002D08C4FB84206D14FF6DF77394046F05F
:1019C0001007394305E04FF65F77394044F01007C0
:1019D000394302830184F0BD028B4FF6F3731A4042
:1019E0000283028B0A4302837047F0B50C4615460A
:1019F00000220021068C4FF6FE773E400684028BC3
:101A0000018C4FF60C7632407E1C06EA03162E43FC
:101A10003243704EB0420ED06F4EB0420BD0B0F198
:101A2000804F08D06D4EB04205D06D4EB04202D00E
:101A30006C4EB04206D14FF6FD76314044F00106BF
:101A4000314305E04FF6F576314044F0010631436D
:101A500002830184F0BD70B505460C465D488542A1
:101A60000ED05D4885420BD0B5F1804F08D05B4861
:101A7000854205D05A48854202D05A48854200D155
:101A800000E000BF208850B92389A28861882846D9
:101A9000FFF7ABFFE1882846FFF79EFF25E020888F
:101AA00004280AD12389A28861882846FFF753FFBA
:101AB000E1882846FFF742FF17E0208808280AD16E
:101AC0002389A28861882846FFF7FBFEE188284623
:101AD000FFF7EEFE09E02389A28861882846FFF718
:101AE000A6FEE1882846FFF795FE70BD2DE9F0417E
:101AF00005460C4600260127608808B9022600E04A
:101B00000026A088012801D1022700E001272088B3
:101B1000A0B92389A28861882846FFF766FFE1887B
:101B20002846FFF759FF23893A4631462846FFF7F2
:101B300012FFE1882846FFF701FF13E02389A288FE
:101B400061882846FFF707FFE1882846FFF7F6FE81
:101B500023893A4631462846FFF747FFE188284661
:101B6000FFF73AFFBDE8F0810A884B881A438B885B
:101B70001A43CB881A430B891A434B891A438B8922
:101B80001A43A0F8442070474FF6FF71818000216E
:101B90000180C18041800172704700210180418035
:101BA0008180C180018141818181C1817047002193
:101BB00001804180012181800021C1800181704725
:101BC0000021018041808180C1800181418181812A
:101BD00070470000002C0140003401400004004028
:101BE00000080040000C004021B1028842F00102D0
:101BF000028004E002884FF6FE731A4002807047AC
:101C000031B1B0F8442042F40042A0F8442005E08D
:101C1000B0F84420C2F30E02A0F8442070471AB175
:101C200083890B43838102E083898B4383817047DF
:101C30008182704741EA0203A0F8483070471AB128
:101C400083890B43838102E083898B4383817047BF
:101C500001894FF6F8721140018170470A46002150
:101C600001894FF68F73194011430181704730B5D8
:101C700004460D4629462046FFF7F0FF208940F034
:101C80000700208130BD2DE9F04104460D4616467F
:101C90001F46602D06D13B46012231462046FFF704
:101CA0005AFE05E03B46012231462046FFF79DFEE5
:101CB00029462046FFF7D2FF208940F00700208107
:101CC000BDE8F08130B50C4600210189C9B24FF65C
:101CD000FF7505EA0325154325432943018130BDDE
:101CE0002DE9F04105460E46174698460024434626
:101CF0003A4631462846FFF7E5FF2C894FF6F87043
:101D0000044044F007044FF68F70044044F0700420
:101D10002C81BDE8F081F0B504460D4616461F46FD
:101D20003B46324629462046FFF7CCFF208940F447
:101D300080402081F0BD0185828270470A460021E3
:101D400001884FF68F731940114301807047F0B539
:101D50000C4615461E460021002200230189028BF5
:101D6000038C4FF6F877394021434FF6FC473A4051
:101D700040F201173A434FF6DD773B404FF6FF77CD
:101D800007EA06172F433B43018102830384F0BD1A
:101D90000A460021018B4FF68F73194011430183CE
:101DA00070470A460021018B48F6FF7319404FF631
:101DB000FF7303EA02231943018370470A46002197
:101DC000818B4FF68F7319401143818370470A4608
:101DD0000021818B48F6FF7319404FF6FF7303EA29
:101DE000022319438183704721B1028842F08002A7
:101DF000028004E002884FF67F731A400280704729
:101E000021B1828842F00402828004E082884FF689
:101E1000FB731A408280704721B1828842F0080229
:101E2000828004E082884FF6F7731A408280704700
:101E300021B1828842F00102828004E082884FF65C
:101E4000FE731A40828070470A460021018B4FF6CC
:101E5000F77319401143018370470A460021018B33
:101E60004FF2FF7319404FF6FF7303EA0223194341
:101E7000018370470A460021818B4FF6F7731940A2
:101E80001143818370470A460021818B4FF2FF7313
:101E900019404FF6FF7303EA022319438183704709
:101EA0000A460021018B4FF6FB7319401143018351
:101EB00070470A460021018B4FF6FF3319404FF659
:101EC000FF7303EA02231943018370470A46002186
:101ED000818B4FF6FB7319401143818370470A468B
:101EE0000021818B4FF6FF3319404FF6FF7303EA51
:101EF00002231943818370470A460021018B4FF664
:101F00007F7319401143018370470A460021018BFA
:101F1000C1F30E014FF6FF7303EA02231943018355
:101F200070470A460021818B4FF67F731940114399
:101F3000818370470A460021818BC1F30E014FF661
:101F4000FF7303EA02231943818370470A46002185
:101F5000018C4FF6FD7319401143018470470A4606
:101F60000021018C4FF6F77319401143018470472B
:101F70000A460021018C4FF6DF7319404FF6FF73BC
:101F800003EA02131943018470470A460021018CB9
:101F90004FF67F7319404FF6FF7303EA021319439C
:101FA000018470470A460021018C4FF6FF53194007
:101FB0004FF6FF7303EA02231943018470470A4670
:101FC0000021018C4FF2FF7319404FF6FF7303EAB3
:101FD00002231943018470470A460021018C4DF603
:101FE000FF7319404FF6FF7303EA0233194301846C
:101FF000704730B5002301248C40A3B2048C9C436D
:102000000484048C02FA01F5ADB22C43048430BD83
:1020100030B5002304248C40A3B2048C9C43048478
:10202000048C02FA01F5ADB22C43048430BD70B5C6
:102030000346002000241846183001258D40ACB21C
:102040001D8CA5431D8409B1082909D100EB61004D
:10205000056825F0700505600568154305600EE00C
:102060000D1FC5F34E052844056825F4E0450560BD
:1020700005684FF6FF7606EA02263543056070BD17
:1020800021B1028842F00202028004E002884FF689
:10209000FD731A400280704721B1028842F00402A9
:1020A000028004E002884FF6FB731A4002807047FA
:1020B00021B1828842F08002828004E082884FF65B
:1020C0007F731A408280704702884FF6F7731A4078
:1020D000028002880A430280704782884FF68F731D
:1020E0001A40828082880A438280704702894FF6B4
:1020F000F8731A40028102890A43028170470289FB
:102100004FF67F731A40028102890A4302817047A9
:102110008184704781857047818670470187704749
:1021200081877047A0F84010704702884FF6FF4340
:102130001A40028002880A43028070470146888E56
:1021400070470146088F70470146888F70470146E7
:10215000B1F8400070470146888C70470146088DF1
:10216000704702460020138A0B400BB1012000E0AB
:1021700000207047CA430282704730B502460020F3
:1021800000230024158A05EA0103958905EA010464
:1021900013B10CB1012000E0002030BDCA4302821F
:1021A0007047000031490143314A1160704770B5F2
:1021B000002100230F22C47804B32D4C246804F4BA
:1021C000E064C4F5E064210AC1F10403CA40447824
:1021D00004FA03F18478144021430901254C067860
:1021E000A155047804F01F050124AC4005786D1159
:1021F000AD0005F1E025C5F8004109E0047804F0E0
:102200001F050124AC401C4D0678761145F8264088
:1022100070BD1A4A0A400243154B1B1F1A607047D3
:1022200039B1134A121D12680243114B1B1D1A606B
:1022300006E00F4A121D126882430D4B1B1D1A60E7
:102240007047042808D14FF0E021096941F00401EA
:102250004FF0E022116107E04FF0E021096921F021
:1022600004014FF0E0221161704700000000FA0500
:102270000CED00E000E400E080E100E080FFFF1FE3
:102280000CB50020019000906C48006840F480304C
:102290006A49086000BF6948006800F40030009097
:1022A0000198401C0190009818B90198B0F5A06FF2
:1022B000F1D16248006800F4003010B101200090B4
:1022C00001E0002000900098012843D15C4800689C
:1022D00040F010005A4908600846006820F00300EA
:1022E00008600846006840F00200086053484068F3
:1022F000524948600846406848600846406840F4D3
:10230000806048600846406820F47C1048600846B9
:10231000406840F4E81048600846006840F080706B
:10232000086000BF4548006800F000700028F9D040
:102330004248406820F00300404948600846406831
:1023400040F00200486000BF3C48406800F00C00CC
:102350000828F9D10CBD10B5FFF792FF10BD10B5DC
:102360003648006840F0010034490860084640687B
:1023700034490840314948600846006832490840FD
:102380002E4908600846006820F48020086008464E
:10239000406820F4FE0048604FF41F008860FFF79B
:1023A000DAFF4FF000602949086010BD10B5002128
:1023B00000200022214B5B6803F00C0121B10429AD
:1023C00006D0082928D107E0214B224C236027E0C2
:1023D0001F4B204C236023E0184B5B6803F4701004
:1023E000164B5B6803F48032022303EB904022B962
:1023F000194B4343174C23600DE0104B5B6803F40B
:10240000003323B1144B4343124C236003E0104BC1
:102410004343104C236003E00D4B0E4C236000BF80
:1024200000BF064B5B68C3F303130C4CE15C094B24
:102430001B68CB40074C236010BD00000010024019
:10244000002002400000FFF8FFFFF6FE08ED00E06C
:1024500000127A005000002000093D0054000020C6
:102460002DE9F04180460C4615461E4600270A20FD
:10247000F6490870334607222946204601F040FC01
:10248000012801D0032706E044F6206001F06EFC2D
:10249000012800D003273846BDE8F08110B500219F
:1024A000012001F0FDFB0020E949087001F0DFFB8D
:1024B00010BD10B50021084601F0F2FB01F0ACFCA4
:1024C00010BD10B50246002003E012F8014B23189E
:1024D000D8B20B00A1F10104A1B2F6D14342D8B2A7
:1024E00010BD2DE9F04104460D4616460027D94897
:1024F0000088FF2800DC04E09D22D7A1DCA001F0C9
:102500005FFDD4480088032813DBD2480188E248E5
:102510000068FFF7D6FF60B9DF48006800782070D8
:10252000CC480088801E3080DB480068401C286052
:1025300000E005273846BDE8F0812DE9F04104466A
:102540000D4616464FF00008C148007818BB681EBB
:10255000D24908600120D2490880D0480068047040
:10256000084600883044088008460188CB48006847
:10257000FFF7A7FF0746CA490888411CC84A1180CF
:10258000C54909680F540120C6490870012100207F
:1025900001F086FB01E04FF005084046BDE8F08100
:1025A0000146302905DB392903DCA1F13000C0B236
:1025B0007047412905DB462903DCA1F13700C0B291
:1025C000F6E7FF20F4E738B50025B648007800B9F3
:1025D00004E0E422A0A1B4A001F0F2FC684601F0FE
:1025E000ADFB9B48007800286ED0012802D002285D
:1025F00079D146E001F0FDFB9DF800003A2805D1B5
:102600000020B04908709349088039E09DF8000027
:102610000D2803D102208E49087031E09DF800009A
:10262000FFF7BEFF0446A748007810B1012826D165
:1026300014E088480088FF280ADC2007000E96492D
:102640000968844A1288885401209E49087016E05F
:1026500000207F49087001F0DFFB10E08E49096817
:102660007C4A1288881801782143017079480088D3
:10267000401C7849088000209249087000BF00BFC4
:1026800031E09DF8000071490978884209D101F0D4
:10269000C3FB00206E490870012001F0E8FA0546EE
:1026A00011E09DF800003A280AD100208549087001
:1026B0006849088001206649087001F09AFB02E031
:1026C0000020634908700EE09DF800003A2809D107
:1026D00001F08FFB00205F4908807A4908700120D3
:1026E0005B49087000BF00BF284638BD10B50446DE
:1026F000092C03DC04F13000C0B210BD0A2C05DB4C
:102700000F2C03DC04F13700C0B2F6E740F2D1121F
:1027100051A16DA001F054FC70B500254C48007823
:1027200000B905E04FF4A8724BA168A001F048FC85
:102730005C480078052864D2DFE800F05E030E47AD
:102740004F003A24204601F0E6FA0220554908706D
:1027500000205C49087054E05148008800282DDDB5
:102760005848007810B1012827D10DE04B4909687D
:1027700009780811FFF7BAFF0446204601F0CBFAAA
:1027800001205049087018E044490968097801F0AF
:102790000F00FFF7ABFF0446204601F0BCFA3F48AC
:1027A0000068401C3D4908600020464908703C48CC
:1027B0000088401E3A49088000BF05E00D2001F066
:1027C000AAFA0320374908701BE02048007801F07E
:1027D000A2FA04203349087013E000203149087040
:1027E000032001F044FA05460021012001F058FAC7
:1027F00000202C49087004E00021012001F050FA6B
:1028000000BF00BF284670BD10B5114800780128F0
:1028100002D0022805D100E000BF00200C4908705A
:102820000FE00B480078012803D0094800780228FF
:1028300000D105E04FF4D47207A12B4801F0C0FB92
:1028400000BF00BF01F0E8FA002010BD77000020B3
:10285000650000206C0000206D6F646275735C6120
:10286000736369695C6D6261736369692E630000FB
:102870007573526376427566666572506F73203C5D
:10288000204D425F5345525F5044555F53495A456E
:102890005F4D4158000000006800002070000020DB
:1028A000740000206400002065536E6453746174EA
:1028B00065203D3D2053544154455F54585F494481
:1028C0004C4500006E000020300000006552637629
:1028D0005374617465203D3D2053544154455F520B
:1028E000585F49444C4500006C4500082DE9F05FF5
:1028F00006460D464FF0000B2888052843D1707816
:102900004FEA002AB07840EA0A0AF07804023079E7
:102910000443012C34DBB4F5FA6F31DA771C012063
:10292000288007F8010B2888401C288004F0070045
:1029300040B12046E11704EB5171C910491C01F068
:10294000FF0805E02046E11704EB5171C1F3C70809
:1029500007F8018B2888401C288000232246514616
:102960003846FDF770FD8146B9F1000F04D04846A6
:1029700000F0BFFA834608E028884044288004E03D
:102980004FF0030B01E04FF0030B5846BDE8F09FFA
:102990002DE9F84304460E464FF00008308805281C
:1029A00027D160780702A07807432079F0B9E07852
:1029B000FF2801D0E078C8B900208DF80100E07848
:1029C000FF2803D101208DF8000002E000208DF8DF
:1029D000000001231A4639466846FDF734FD0546D6
:1029E0004DB1284600F085FA804604E04FF0030818
:1029F00001E04FF003084046BDE8F8832DE9F05FA1
:102A000005460E464FF0000B3088052838DD687803
:102A10004FEA0029A87840EA0909E87804022879F1
:102A2000044395F805A004F0070038B12046E117EB
:102A300004EB5171C910491CCFB205E02046E117E3
:102A400004EB5171C1F3C707012C16DBB4F5F66F27
:102A500013DC574511D1012322464946A81DFDF735
:102A6000F2FC8046B8F1000F04D0404600F041FA75
:102A7000834607E00520308004E04FF0030B01E0BF
:102A80004FF0030B5846BDE8F09F2DE9F05F064676
:102A90000D464FF0000B2888052843D170784FEA87
:102AA000002AB07840EA0A0AF07804023079044338
:102AB000012C34DBB4F5FA6F31DA771C0120288061
:102AC000022007F8010B2888401C288004F007002A
:102AD00040B12046E11704EB5171C910491C01F0C7
:102AE000FF0805E02046E11704EB5171C1F3C70868
:102AF00007F8018B2888401C28802246514638461A
:102B0000FDF7A5FC8146B9F1000F04D0484600F05E
:102B1000F0F9834608E028884044288004E04FF01C
:102B2000030B01E04FF0030B5846BDE8F09F2DE981
:102B3000F04104460F464FF000083888052812D1AE
:102B400060780502A0780543681C85B201231A4607
:102B50002946E01CFDF7A0FB064636B1304600F0E2
:102B6000C8F9804601E04FF003084046BDE8F08117
:102B70002DE9F04704460E464FF0000A308806283B
:102B800028DB60780702A0780743781C87B2E078DA
:102B900005022079054394F80590012D17DB782D67
:102BA00015DC6806000E484511D101232A46394636
:102BB000A01DFDF771FB8046B8F1000F04D0404620
:102BC00000F097F9824607E00520308004E04FF0DE
:102BD000030A01E04FF0030A5046BDE8F0872DE9F3
:102BE000F04705460C464FF0000A2088052837D1EB
:102BF00068784FEA0028A87840EA080808F1010040
:102C00001FFA80F8E87806022E79012E25DB7D2E4A
:102C100023DC6F1C01202080032007F8010B208893
:102C2000401C20807006000E07F8010B2088401C15
:102C300020800023324641463846FDF72DFB814671
:102C4000B9F1000F04D0484600F053F9824609E07C
:102C5000208800EB4600208004E04FF0030A01E0EA
:102C60004FF0030A5046BDE8F0872DE9FC5F0446AB
:102C70000D460020009028880A285EDB60784FEA25
:102C8000002AA07840EA0A0A0AF101001FFA80FA35
:102C9000E07806022079064360794FEA002BA0799C
:102CA00040EA0B0B0BF101001FFA80FBE0790702F1
:102CB000207A0743607A0190012E3CDB7D2E3ADCBE
:102CC000012F38DB792F36DC79000198814232D12F
:102CD00001233A46594604F10A00FDF7DDFA814620
:102CE000B9F1000F1FD104F101080120288017203D
:102CF00008F8010B2888401C28807006000E08F890
:102D0000010B2888401C288000233246514640464B
:102D1000FDF7C2FA8146B9F1000F04D128880221DB
:102D200001FB06002880B9F1000F06D0484600F0EC
:102D3000E0F8009001E0032000900098BDE8FC9FBF
:102D40002DE9F04706460C464FF0000A208805287A
:102D500037D170784FEA0028B07840EA080808F1C7
:102D600001001FFA80F8F078050230790543012D43
:102D700024DB7D2D22DA771C01202080042007F837
:102D8000010B2088401C20806806000E07F8010B0C
:102D90002088401C20802A4641463846FDF734FBF7
:102DA0008146B9F1000F04D0484600F0A2F88246EF
:102DB00009E0208800EB4500208004E04FF0030A82
:102DC00001E04FF0030A5046BDE8F0872DE9F041DD
:102DD00005460E4617461C464FF00008A01C20284A
:102DE00026DA00201C490880084601880088401C1B
:102DF000194A1080194845540EB1FF2200E0002204
:102E0000154801880088401C134B18801348425411
:102E1000002C0FDD01461A461288881822463946D2
:102E200001F00EF90C48008820440B49088001E0AD
:102E30004FF004084046BDE8F08170B505460C46E9
:102E4000054802880549681C01F0FAF80248008824
:102E5000401C2080002070BD78000020440200202B
:102E60002DE9FF5F05460E469046DDF80CB0B8F13F
:102E7000080F00DC04E0382226A12DA001F0A0F804
:102E8000F408A6EBC4001FFA80FA0BFA0AF01FFA46
:102E900080FB012000FA08F0401E1FFA80F9A6EB23
:102EA000C40009FA00F01FFA80F92F5D601C285C4D
:102EB00047EA002727EA090040EA0B072F55391295
:102EC000601C2954BDE8FF9FF0B503460C4615462B
:102ED000E208A4EBC20087B20120A840401E86B2DF
:102EE000995C501C185C41EA002139413140C8B25C
:102EF000F0BD014621B1012904D0072906D103E024
:102F0000002005E0022003E0062001E0042000BFCD
:102F100000BF70476D6F646275735C66756E637435
:102F2000696F6E735C6D627574696C732E630000FB
:102F300075634E42697473203C3D203800000000E8
:102F40002DE9F04704460D464FF0FF08C14612A098
:102F500000F08EFF294615A000F08AFF002604E04D
:102F6000A15D16A000F084FF761CAE42F8DB0AE0FB
:102F700014F8010B80EA09071448C05D80EA0809CB
:102F8000134810F807802800A5F101018DB2EFD198
:102F900049EA0820BDE8F087BDF8C8EB435243D0AA
:102FA000A3D1E9A3A1A3A1A3A100000075734C655F
:102FB0006E203D2025640D0A0000000070756346F8
:102FC00072616D65203D2025640D0A0042430008B2
:102FD000424400082DE9F04781460E4614461F463C
:102FE0004FF000083B4608222146304600F088FE9C
:102FF000012802D04FF003080FE0B4F5964F01D935
:10300000232503E06000F749B1FBF0F5A8B200F01A
:10301000ADFE012801D04FF003084046BDE8F0871F
:1030200010B50020F04908700021012000F038FEA2
:1030300000F0DFFE10BD10B50021084600F030FEA4
:1030400000F0EAFE10BD2DE9F04180460C46154621
:1030500000270026E5480088FF2800DC04E09F22C6
:10306000E3A1E8A000F0ACFFF0A000F001FFDF4812
:103070000088012812DBDD480088801E81B2EF48FD
:10308000FFF75EFF50B9EEA000F0F2FED7480088CF
:10309000801E2880E9482060012700E00526304690
:1030A000BDE8F0812DE9F84F82460E461446002512
:1030B000002000908046814683465146E3A000F000
:1030C000D7FE00BF05E0725D2946E6A000F0D0FE05
:1030D0006D1CA542F7DB2146E8A000F0C9FEC248FE
:1030E0000078012867D1701EE84908600020E8498F
:1030F00008805146D5A000F0BBFE0021E5A000F0FD
:10310000B7FEE34800882044E1490880084601886A
:10311000E7A000F0ADFEDE4801883046FFF710FF63
:1031200007464FF0000807E016F808204146E6A0E1
:1031300000F09EFE08F10108A045F5DB3946E8A045
:1031400000F096FE002503E0705DBC4948556D1CFB
:10315000062DF9DBCE490888411CCD4B1980B749B3
:103160000F543A1219460888411C1980B3490A5471
:103170000A46601C115CDEA000F07AFEAF4AA01C7B
:10318000115CE0A000F074FE4FF0000908E0AB48CD
:1031900010F809204946E0A000F06AFE09F1010993
:1031A000A01C8145F3DB0120E049087001210020CB
:1031B00000F076FD01E04FF0050B5846BDE8F88FB2
:1031C0002DE9F041002500240027002686480078DC
:1031D000012800D105E040F27D1285A1D4A000F0C5
:1031E000EFFED248007810B101282FD104E0002171
:1031F000012000F055FD29E0A5480088A8B1A448A9
:103200000188ABA000F034FEA1480688002409E044
:103210008A49085D00F07FFD9D480088401E9C495A
:103220000880641CB442F3DB0FE099480188C7A012
:1032300000F01EFE032000F01AFD054600210120CB
:1032400000F02EFD0020B949087000BF00BF2846DD
:10325000BDE8F08110B540F22551C348FEF750F8A3
:1032600001281BD10821C048FEF741F800240BE0DB
:10327000BD48FDF7C5FFBD4908550846015DBCA026
:1032800000F0F6FD601CC4B20A2CF1DBBB480068FC
:10329000804740F22551B448FEF75CF840F22661C1
:1032A000B148FEF72DF8012809D1B5A000F0E0FDE6
:1032B000FFF786FF40F22661AB48FEF74BF810BDE2
:1032C00070B500269948007800B905E040F2211257
:1032D00047A1B0A000F074FEA348FDF791FFA349F9
:1032E0000855002405E0A148015DA1A000F0C0FD43
:1032F000641C0A2CF7DB3C48007830B101280AD066
:10330000022859D0032869D102E000F072FD65E07F
:1033100000F06FFD62E000203449088008800CE076
:10332000924832490988405C4449304A128888549E
:103330002E480088401C2D4908802C4800880A2807
:10334000EEDB8A4840783D490870884880784870AC
:103350008648C078887085480079C870834840796D
:1033600008718248C07948718048007A88717F4826
:10337000407AC871002406E03048025D21468CA0E6
:1033800000F076FD641C082CF6DB0220164908705C
:1033900001230846027829468A4800F069FD27483B
:1033A000017889A000F064FD104801888AA000F02F
:1033B0005FFD00F01EFD11E00C480088FF2807DCCF
:1033C0000A490888411C094A11801C490D5402E031
:1033D00003200549087000F00CFD00BF00BF304617
:1033E00070BD0000A07F17007D0000208600002037
:1033F0006D6F646275735C7274755C6D6272747506
:103400002E6300007573526376427566666572506E
:103410006F73203C204D425F5345525F5044555FCF
:1034200053495A455F4D415800000000BDF8C8EBB4
:10343000BDD3CAD5D0A3D1E90D0A00006402002093
:10344000BFAACABCD0A3D1E9000000007563536CC9
:1034500061766541646472657373203D2025640D57
:103460000A0000007075634672616D65695B2564D2
:103470005D203D2025640D0A0000000075734C6539
:103480006E677468203D2025640D0A0080000020CE
:10349000840000204D425F5345525F5044555F41C8
:1034A0004444525F4F46463D2025640D0A0000000B
:1034B0007573536E64427566666572436F756E749C
:1034C000203D2025640D0A007075634672616D65AC
:1034D0007A5B25645D203D2025640D0A0000000014
:1034E00075734352433136203D202578200D0A0064
:1034F000757343524331365F4C203D2025780D0AC9
:1035000000000000757343524331365F48203D2070
:1035100025780D0A00000000756352545542756607
:103520005B25645D203D2025780D0A007C0000208D
:10353000655263765374617465203D3D2053544158
:1035400054455F52585F49444C4500007573536EB3
:1035500064427566666572436F756E7432323220EE
:103560003D2025640D0A0000004400406403002053
:1035700074656D70203D2025640D0A00A0000020B8
:10358000BDF8C8EBB7A2CBCDCDEAB3C9D6D0B6CF84
:103590000D0A000065536E645374617465203D3DEF
:1035A0002053544154455F54585F49444C450000F2
:1035B00075635254554275665B25645D203D202538
:1035C000640D0A00B0450008756352545542756693
:1035D000203D2025640D0A0075735263764275669E
:1035E000666572506F73203D2025640D0A0000004F
:1035F00010B500241AA000F03BFC2048007820B150
:10360000022807D003280ED10CE0002000F02FFB89
:1036100004461CE01AA000F02BFC012000F027FB60
:10362000044614E013E01548007838B113480078D8
:10363000022803D011480078032800D106E040F2A8
:10364000C312AFF25421164800F0BAFC00BF00BF0D
:1036500000F0E2FB012009490870204610BD00007F
:10366000784D4252545554696D65725433354578DE
:1036700070697265642829200D0A00007D00002011
:10368000B4CBCAB1CCF8D7AAB5BD45565F465241B6
:103690004D455F52454345495645440D0A000000DB
:1036A000004600082DE9F04705460C4616461F4621
:1036B000DDF820904FF000081CB1012C01DBF72C45
:1036C00002DD4FF0020859E0DE48047015B1012D0B
:1036D00042D120E0DC48DD490860DD48DD49086072
:1036E000DD48DE490860DE48DE4908600020DE492A
:1036F0000860DE48DE490860DE48DF490860DF48D0
:10370000DF4908604B463A463146CE480078FFF71D
:1037100061FC804623E0DB48CC490860DA48CD49AB
:103720000860DA48CD490860D948CE4908600020D1
:10373000CD490860D748CE490860D748CE490860CF
:10374000D648CF4908604B463A463146BD480078D6
:10375000FEF786FE804602E04FF0020800BF00BF81
:10376000B8F1000F0AD100F07DFA10B94FF003084C
:1037700004E0CB4805700120CA4908704046BDE806
:10378000F08730B502460B46002A36DD7F2A34DC4E
:10379000F3B1002112E0C44C04EBC10464682CB105
:1037A000C14C04EBC10464689C4206D1BE4C04F8D1
:1037B000312004EBC104636002E0491C1029EADBFC
:1037C00000BF102901D0002400E00424204615E0A9
:1037D00000210DE0B44C14F83140944207D100248C
:1037E000B14D05F8314005EBC1056C6002E0491CA4
:1037F0001029EFDB00BF002000E0022030BD10B533
:103800000024A8480078012806D19748006820B114
:1038100095480068804700E00624204610BD10B59A
:103820000024A0480078012806D188480068804715
:1038300000209C49087000E00624204610BD10B509
:103840009848007838B98348006880470120954936
:103850000870002406E093480078012801D1002474
:1038600000E00624204610BDF8B5002400260025FF
:1038700000278C48007808B10620F8BD684600F0A3
:10388000FEF9012872D19DF8000030B1012808D05E
:10389000022831D0032803D1CFE084A000F0E8FA59
:1038A000CCE083A000F0E4FA8D4A8E490846006817
:1038B0006C4B1B689847074639468BA000F0D8FA36
:1038C0000022604801788CA000F0D2FA8548006898
:1038D000017895A000F0CCFA8248006800780128B1
:1038E00003D080480068007828B994A000F0C0FA9E
:1038F000022000F0BCF9A1E07A48006840789149C4
:1039000008700846017890A000F0B2FA002607E09F
:1039100074480068825D314691A000F0A9FA761CD7
:10392000082EF5DB00250BE06E480068405D9249EB
:1039300048550846425D294690A000F099FA6D1C52
:10394000082DF1DB01209349087000243FE0564820
:1039500010F83420214690A000F08AFA524810F85E
:10396000340078490978884230D100E067E094A0BB
:1039700000F07EFA4C4810F83420214686A000F072
:1039800077FA494810F83400032804D0042810D0EE
:10399000062815D106E001209049086090A000F0AB
:1039A00067FA11E002208D49086095A000F060FAE6
:1039B0000AE003208949086098A000F059FA03E062
:1039C0009EA000F055FA00BF00BF02E0641C102C5E
:1039D000BDDB00BF9F48007870B36E480078E0B14F
:1039E0009DA000F045FA00203D4908805548007828
:1039F00040F080013A4802880088401C384B18800B
:103A00003848006881546348017818460288008865
:103A1000401C1880334800688154214800780128F0
:103A200000D100BF2E4802882E4801680548007862
:103A30000A4B1B689847074600E000BF00BF002004
:103A40001BE70000880000202130000890000020C3
:103A50003730000894000020A53000088C000020BA
:103A600047300008980000209C000020C132000868
:103A7000A0000020C1310008A4000020F13500089A
:103A8000A80000209D240008B32400083B2500085E
:103A9000E3240008C72500081927000809280008A2
:103AA000890000208A000020B40000203132330059
:103AB000BDF8C8EB654D424572726F72436F646525
:103AC000654D42506F6C6CA3A845565F4652414D00
:103AD000455F5245434549564544A3A90D0A000098
:103AE0003E01002038010020655374617475732015
:103AF0003D2025640D0A000075634D4241646472E7
:103B0000657373203D2025782C4D425F414444521B
:103B10004553535F42524F414443415354203D204B
:103B200025780D0A0000000075634D424672616DF4
:103B300065203D2025640D0A00000000656E656E5D
:103B4000200000003D010020756346756E637469B6
:103B50006F6E436F6465203D2025780D0A000000DC
:103B600075634D424672616D655B25645D203D2045
:103B700025640D0A000000002400002052656365E2
:103B80006976655F6275665B25645D203D2025640E
:103B90000D0A0000400100207846756E6348616E92
:103BA000646C6572735B25645D2E756346756E6328
:103BB00074696F6E436F6465203D2025640D0A00B3
:103BC000B2E9D1AFB1BEBBFACAC7B7F1D6A7B3D677
:103BD000B8C3B9A6C4DCC2EB0D0A00003401002052
:103BE000D6B4D0D0CFECD3A6B6C1B9A6C4DCC2EB54
:103BF000B7FECEF1A3A1A3A1A3A10D0A000000006E
:103C0000D6B4D0D0D0B4B9A6C4DCC2EBB7FECEF1E6
:103C1000A3A1A3A1A3A10D0A00000000D6B4D0D097
:103C2000B6C1CFDFC8A6BCC4B4E6C6F7B7FECEF1B6
:103C3000A3A1A3A1A3A10D0A00000000C3BBD3D080
:103C4000CFECD3A6B9A6C4DCC2EBB7FECEF10D0A09
:103C5000000000003C010020BDD3CADCB4EDCEF36F
:103C60000D0A000000200C49087001207047014631
:103C70000120094A1070094801700120704701466F
:103C80000020054A127832B1044A12780A700022E4
:103C9000014B1A70012070474201002041010020B1
:103CA00070B505460C4655B1012240F22551284811
:103CB000FDF741FA20212748FCF7F1FE09E0002238
:103CC00040F225512248FDF736FA20212148FCF721
:103CD000E4FE54B1012240F226611D48FDF72BFAA3
:103CE00020211C48FCF7D9FE09E0002240F22661A1
:103CF0001748FDF720FA20211648FCF7D0FE70BDCA
:103D00002DE9F04104460D4616461F46FCF735FDE9
:103D10000120BDE8F08110B5044621460EA000F058
:103D2000A7F821460A48FDF767FA00BF8021084836
:103D3000FDF7D0FA0028F9D0012010BD014601207E
:103D4000704710B508480068804710BD70470000F4
:103D50000044004000180140756342797465203DBD
:103D60002025640D0A000000A40000207FB5044651
:103D7000002501210420FDF7ACF83A48006844F61C
:103D80002061B0FBF1F0401E85B2ADF80840ADF8FF
:103D900004500020ADF80A00ADF8060001A9324831
:103DA000FDF7C6FB01213048FEF71EF84FF4C06056
:103DB000FEF7F8F91E208DF8000000208DF80100B4
:103DC00002208DF8020001208DF803006846FEF7FE
:103DD000EEF901212448FEF7E1F9002201212248F1
:103DE000FDF71DFF00212048FDF7FEFE012004B075
:103DF00070BD10B501211C48FEF7D0F90122114613
:103E00001948FDF70CFF00211748FEF781F9012141
:103E10001548FDF7E9FE10BD10B501211248FEF767
:103E2000BDF9002201211048FDF7F9FE00210E48DE
:103E3000FEF76EF900210C48FDF7D6FE10BD10B557
:103E40000A480068804710BD10B501210648FEF7FA
:103E500094F928B101210448FEF7A0F9FFF7EFFF1C
:103E600010BD00005000002000080040A800002005
:103E70000FB4044910B503AA029800F083F910BCEE
:103E80005DF814FB380000202DE9F0410E46044691
:103E9000002020622046E168884730B3252805D0FD
:103EA000D4E901219047206A401CF2E7E1682046EE
:103EB00000278847050018D0A5F14100192802D82D
:103EC00020354FF400673246294620462760FCF72C
:103ED00089F940B1012804D0F61D26F007060836FE
:103EE000D8E7361DD6E72846DAE7206ABDE8F08134
:103EF0002DE9F0410646002410687529314616A5C3
:103F000010D0AFF30080002802DA404213A507E08A
:103F100031688A0701D512A502E0490704D511A529
:103F2000012401E0AFF3008000210A2206F12407FA
:103F300009E0B0FBF2FCB0FBF2F302FB1C003030F6
:103F400078541846491C0028F3D123462A463046A7
:103F5000BDE8F04100F0BCB8000000002D000000FA
:103F60002B0000002000000070B504460D462146DD
:103F70001068AFF300802188090502D50F4A7A4402
:103F800002E00E4A7A440E32002104F1240305E0D7
:103F900000F00F060009965D5E54491C0028F7D119
:103FA00020780023000704D5702D02D009B1022328
:103FB00011322046BDE8704000F08AB8C00500000C
:103FC0000EB5054614460E4613A000F0F5F8284637
:103FD00000F0F2F816A000F0EFF8304600F0ECF830
:103FE00015A000F0E9F800218DF80B100A210DF161
:103FF0000A008DF80A1008E094FBF1F201FB12426E
:1040000094FBF1F4303200F8012D002CF4DC00F0C8
:10401000D3F800F0C9F800002A2A2A2061737365DA
:104020007274696F6E206661696C65643A20000085
:104030002C2066696C6520002C206C696E65200060
:10404000032A40F2308010F0030C00F0158011F8C4
:10405000013BBCF1020F624498BF11F801CB00F89C
:10406000013B38BF11F8013BA2F1040298BF00F8F0
:1040700001CB38BF00F8013B11F0030300F0A6802C
:10408000083AC0F0088051F8043B083A51F804CBD4
:10409000A0E80810F5E7121D5CBF51F8043B40F89A
:1040A000043BAFF30080D20724BF11F8013B11F8A5
:1040B00001CB48BF11F8012B24BF00F8013B00F8E9
:1040C00001CB48BF00F8012B70477047704770471D
:1040D0002DE9F0470D4699469246044600F1240822
:1040E0000168880604D5E06921F01001216000E034
:1040F0000120A84201DD471B00E00027A1697A19D1
:1041000002EB0900081AA0612078C00602D42046FC
:10411000AFF30080002608E0D4E901211AF8060078
:104120009047206A401C761C20624E45F4DB2078C4
:10413000C0060AD52046AFF3008006E0D4E901218D
:1041400030209047206A401C2062381EA7F10107EA
:10415000F4DC07E0D4E9012118F805009047206A53
:10416000401C2062281EA5F10105F3DC2046AFF3B8
:1041700000802078000602D50220BDE8F0870120EB
:10418000FBE70000074B70B50D467B4400F055F887
:104190000446284600F064F810B14FF0FF3070BDBF
:1041A000204670BDC3C5FFFF002000F05DF8FCF79E
:1041B00023F80120FCF7DCFA10B5044602E0641C89
:1041C000FCF7D9FA20780028F9D110BD10B5203AB3
:1041D000C0F00B80B1E81850203AA0E81850B1E8C0
:1041E0001850A0E81850BFF4F5AF5FEA027C24BF76
:1041F000B1E81850A0E8185044BF18C918C0BDE86D
:1042000010405FEA827C24BF51F8043B40F8043B35
:1042100008BF7047D20728BF31F8023B48BF11F8EA
:10422000012B28BF20F8023B48BF00F8012B704744
:1042300001694A1C02610878704700B58FB0CDE96A
:1042400001310021059105497944CDE9031011465A
:104250006846FFF719FE0FB000BD0000E5FFFFFF45
:10426000007B00F08000704710B500F035F8BDE825
:10427000104000F02BB8754600F046F8AE46050039
:104280006946534620F00700854618B020B5FBF775
:10429000D3FFBDE820404FF000064FF000074FF07D
:1042A00000084FF0000B21F00701AC46ACE8C00954
:1042B000ACE8C009ACE8C009ACE8C0098D4670475D
:1042C0000446AFF300802046FBF7A1FF002801D091
:1042D000FCF74EBA7047000010B5002102A000F0B4
:1042E00017F8012010BD0000534947414252543A8B
:1042F0002041626E6F726D616C207465726D696EC3
:104300006174696F6E000000004870477003002000
:1043100070B505460C460A2000E06D1CFCF72BFA30
:1043200035B128780028F8D102E0641CFCF723FAA4
:1043300014B120780028F8D1BDE870400A20FCF7BD
:104340001ABA00C1814001C0804101C0804100C152
:10435000814001C0804100C1814000C1814001C055
:10436000804101C0804100C1814000C1814001C045
:10437000804100C1814001C0804101C0804100C135
:10438000814001C0804100C1814000C1814001C025
:10439000804100C1814001C0804101C0804100C115
:1043A000814000C1814001C0804101C0804100C105
:1043B000814001C0804100C1814000C1814001C0F5
:1043C000804101C0804100C1814000C1814001C0E5
:1043D000804100C1814001C0804101C0804100C1D5
:1043E000814000C1814001C0804101C0804100C1C5
:1043F000814001C0804100C1814000C1814001C0B5
:10440000804100C1814001C0804101C0804100C1A4
:10441000814001C0804100C1814000C1814001C094
:10442000804101C0804100C1814000C1814001C084
:10443000804100C1814001C0804101C0804100C174
:10444000814000C0C101C30302C2C60607C705C53B
:10445000C404CC0C0DCD0FCFCE0E0ACACB0BC909AC
:1044600008C8D81819D91BDBDA1A1EDEDF1FDD1DBC
:104470001CDC14D4D515D71716D6D21213D311D1EC
:10448000D010F03031F133F3F23236F6F737F5353C
:1044900034F43CFCFD3DFF3F3EFEFA3A3BFB39F96C
:1044A000F83828E8E929EB2B2AEAEE2E2FEF2DED3C
:1044B000EC2CE42425E527E7E62622E2E323E121AC
:1044C00020E0A06061A163A3A26266A6A767A565BC
:1044D00064A46CACAD6DAF6F6EAEAA6A6BAB69A92C
:1044E000A86878B8B979BB7B7ABABE7E7FBF7DBD3C
:1044F000BC7CB47475B577B7B67672B2B373B1716C
:1045000070B050909151935352929656579755953B
:1045100094549C5C5D9D5F9F9E5E5A9A9B5B9959EB
:104520005898884849894B8B8A4A4E8E8F4F8D4DBB
:104530004C8C44848545874746868242438341812B
:104540008040303132333435363738394142434494
:1045500045464030580030313233343536373839FB
:10456000616263646566403078000000282065520F
:1045700063765374617465203D3D20535441544526
:104580005F52585F5243562029207C7C20282065AA
:104590005263765374617465203D3D2053544154F9
:1045A000455F52585F574149545F454F46202900A7
:1045B000784D425254555265636569766546534D50
:1045C0002853544154455F52585F49444C45292C67
:1045D0007563427974653D25642C65526376537426
:1045E0006174653D25642C73697A656F662875630F
:1045F0004279746529203D2025640D0A00000000E1
:104600002820655263765374617465203D3D2053C4
:10461000544154455F52585F494E49542029207CEB
:104620007C202820655263765374617465203D3D7B
:104630002053544154455F52585F5243562029201D
:104640007C7C202820655263765374617465203D1C
:104650003D2053544154455F52585F4552524F528A
:1046600020290000844600080000002044010000CA
:104670006C010008F8460008440100208C08000086
:10468000C8010008120112021203120412051206D8
:1046900012073208091012810213012D01020304CE
:1046A0000410090607080902040608ACA24A041C03
:1046B000291841136402021E200229023211133B01
:1046C0002E2A086913412D33080313DF2B330810FA
:1046D0001A710832061A2F083217136B2C2A08B8E1
:1046E00013ED2833080513912933080F1AFD082903
:0846F00072BB8B2AE3013500C7
:0400000508000131BD
:00000001FF
