:020000040800F2
:10000000C0040020450100084D0100084F01000810
:1000100051010008530100085501000800000000CC
:100020000000000000000000000000005701000870
:1000300059010008000000005B0100085D01000894
:100040005F0100085F0100085F0100085F01000810
:100050005F0100085F0100085F0100085F01000800
:100060005F0100085F0100085F01000871060008D9
:100070007306000875060008770600087906000870
:100080007B0600087D0600087F0600085F01000867
:100090005F0100085F0100085F0100085F010008C0
:1000A0005F0100085F0100085F0100085F010008B0
:1000B000350600087D110008610600088906000861
:1000C0008B0600088D0600088F06000891060008C0
:1000D0009306000895060008970600089906000890
:1000E0005F0100089B0600089D06000869060008DD
:1000F0006B0600086D0600086F0600089F060008E2
:10010000A1060008A306000863060008A50600086B
:10011000A7060008A906000865060008670600088B
:10012000AB060008AD060008AF060008B1060008DF
:10013000DFF80CD007F0FAFA00480047F104000895
:10014000C00400200648804706480047FEE7FEE757
:10015000FEE7FEE7FEE7FEE7FEE7FEE7FEE7FEE777
:1001600047020008310100080CB500200190009002
:100170006C48006840F480306A49086000BF6948F4
:10018000006800F4003000900198401C0190009835
:1001900018B90198B0F5A06FF1D16248006800F479
:1001A000003010B10120009001E000200090009884
:1001B000012843D15C48006840F010005A490860AB
:1001C0000846006820F0030008600846006840F018
:1001D0000200086053484068524948600846406839
:1001E00048600846406840F48060486008464068BF
:1001F00020F47C1048600846406840F4E8104860ED
:100200000846006840F08070086000BF45480068FC
:1002100000F000700028F9D04248406820F0030048
:10022000404948600846406840F00200486000BF0E
:100230003C48406800F00C000828F9D10CBD10B50E
:10024000FFF792FF10BD10B53648006840F001007E
:1002500034490860084640683449084031494860DC
:1002600008460068324908402E4908600846006880
:1002700020F4802008600846406820F4FE004860B2
:100280004FF41F008860FFF7DAFF4FF00060294944
:10029000086010BD10B5002100200022214B5B68D2
:1002A00003F00C0121B1042906D0082928D107E068
:1002B000214B224C236027E01F4B204C236023E07E
:1002C000184B5B6803F47010164B5B6803F48032C4
:1002D000022303EB904022B9194B4343174C236090
:1002E0000DE0104B5B6803F4003323B1144B434320
:1002F000124C236003E0104B4343104C236003E097
:100300000D4B0E4C236000BF00BF064B5B68C3F370
:1003100003130C4CE15C094B1B68CB40074C23607A
:1003200010BD000000100240002002400000FFF855
:10033000FFFFF6FE08ED00E000127A00000000204A
:1003400000093D00040000207CB59948006806F0D3
:100350005AFF0446974A984B06F080FF09D20120C5
:10036000009044F23C13024600210190184600F030
:10037000B3F98F48006806F046FF04464FF0663236
:100380008E4B06F053FF0AD20120002144F23C13A9
:100390000246CDE900100146184600F09DF9884854
:1003A000006806F030FF04464FF06632854B06F0D9
:1003B00055FF09D20120002144F23C130246CDE949
:1003C0000010184600F088F97D48006806F01BFF11
:1003D000044600227C4B06F029FF09D20120009040
:1003E00044F23C13024601460190184600F074F9AD
:1003F00028E07348006806F006FF04460022734BAD
:1004000006F014FF0AD20120009044F23C13024689
:1004100001460190184600F05FF913E06848006853
:1004200006F0F1FE04466A4A6A4B06F017FF09D847
:100430000120002144F23C130246CDE90010184689
:1004400000F04AF95E48006806F0DDFE044600222E
:100450005D4B06F0EBFECCD95948006806F0D3FEA0
:10046000044600225C4B06F0F9FEC2D929E0504850
:10047000006806F0C8FE0446584A594B06F0D6FEFE
:100480000BD20120002144F23C130246CDE90010BA
:100490000146184600F020F913E04548006806F0D0
:1004A000B2FE044600224F4B06F0D8FE09D20120CE
:1004B000009044F23C13024600210190184600F0DF
:1004C0000BF93B48006806F09EFE04464FF03332BD
:1004D000454B06F0ABFECAD33548006806F093FEE4
:1004E00004464FF03332414B06F0B8FEBFD37CBD1B
:1004F0001FB500F0FCF900F0DFF800F024FA00F07E
:100500009CFA00F062FA00F0C3FC012000F0D3F97D
:1005100003F0C4FD03F0DFFD642000F0CCF90020FF
:1005200003F0F7FE472140F2F31000F0FAFD00203F
:10053000012144F23C130246CDE90010184600F0B8
:10054000CBF84FF480512A4804F053FF0121294889
:1005500004F04FFF142000F0AEF90121254804F00B
:1005600046FF00BF04F0B2FB0128FBD122A007F038
:1005700071F91BE02548006806F045FE04460D466B
:100580000B48006806F03FFE06460F460C48006820
:1005900006F039FE804642460B461DA0CDE90067B5
:1005A000CDE9024507F056F9FFF7CEFEE2E700007D
:1005B0003C0000209A9999999999F13F6666F6BF97
:1005C0003800002066660A40000004400000E03F5A
:1005D000CDCCCCCCCCCC0440000010403D0AD7A3FD
:1005E000703DDA3F0000F83F3333D33F3333E33F0E
:1005F0000014014000080140B3F5CABCBBAFB3C949
:10060000B9A6A3A1A3A1A3A10D0A00004000002048
:1006100050697463683D252E3166202020526F6C2E
:100620006C3D252E31662020205961773D252E31E5
:10063000660D0A0010B50121880705F072FE50B161
:100640001C480068012803D100201A49086002E014
:100650000120184908600121880705F073FE10BDCC
:1006600070477047704770477047704770477047D2
:1006700070477047704770477047704770477047C2
:1006800070477047704770477047704770477047B2
:1006900070477047704770477047704770477047A2
:1006A0007047704770477047704770477047704792
:1006B000704700001400002008B54FF47050ADF8EA
:1006C000000003208DF8020010208DF80300694619
:1006D000504804F0DFFD08BD2DE9F05F044689466F
:1006E00015461E46DDE90ABA0027B846B9F1000FE3
:1006F00005DD4FF48061474804F079FE04E04FF4D3
:100700008061444804F075FEBBF1000F05DD4FF435
:100710008051404804F06BFE04E04FF480513D48A6
:1007200004F067FE27E0002D10DDBC420EDD3A48E4
:100730000068012804D1C102364804F058FE05E0E3
:100740004FF40061334804F054FE7F1CBAF1000FEF
:1007500011DD46450FDD30480068012804D1410312
:100760002C4804F046FE06E04FF40051294804F0FE
:100770003EFE08F10108002D01DDBC42D3DCBAF1D8
:10078000000F01DD4645CEDCBDE8F09F2DE9FC41C0
:10079000002700BF0BE00020009042F224730122EA
:1007A0001146019044F23C10FFF796FF7F1C052F85
:1007B000F1DB00240AE00120002144F23C130A4648
:1007C000CDE900101846FFF787FF641C052CF2DB0B
:1007D00000250BE00020009044F23C13012201466A
:1007E000019046F66000FFF777FF6D1C052DF1DBE9
:1007F00000260BE00120009044F2C2730022114653
:10080000019042F22470FFF767FF761C052EF1DBA2
:10081000BDE8FC81000C01401400002010B504F07C
:1008200007FB4FF4803004F023FB04F060FB012849
:1008300020D1002004F0A1FB002004F0B0FB4FF415
:10084000806004F0A3FB4FF4E0114FF4803004F01B
:1008500077FB012004F080FB00BF392004F02BFB64
:100860000028FAD0022004F07AFB00BF04F080FBDD
:100870000828FBD110BD00E0401E0028FCD17047C5
:10088000014601EBC1024FF0E0235A6100229A6158
:1008900001221A6100BF4FF0E022106900F001024E
:1008A0001AB100F48032002AF5D000224FF0E02384
:1008B0001A619A617047014642F228324A434FF06A
:1008C000E0235A6100229A6101221A6100BF4FF0B1
:1008D000E022106900F001021AB100F48032002A0F
:1008E000F5D000224FF0E0231A619A61704710B5ED
:1008F000FFF7A9FC0121042004F008FC01210820D5
:1009000004F004FC0121102004F000FC012120204F
:1009100004F0FCFB0121402004F0F8FB01218020C1
:1009200004F0F4FB0121084604F0F0FB01218803E8
:1009300004F0ECFB0121480404F0F5FB012108025E
:1009400004F0D7FB10BD0EB54FF4A06004F002FA1E
:100950001C208DF8080000208DF8090001208DF87A
:100960000A008DF80B0002A804F0F9F925208DF893
:10097000080000208DF8090001208DF80A008DF88C
:100980000B0002A804F0EBF90A208DF80800002003
:100990008DF809008DF80A0001208DF80B0002A8DF
:1009A00004F0DDF90421084604F08AFD10200090CF
:1009B00000208DF804000C208DF8050001208DF832
:1009C0000600684606F0DAF90EBD0EB501210846AC
:1009D00004F0A9FB0A20ADF804004FF4E150ADF893
:1009E00000000020ADF80600ADF802008DF8080008
:1009F00069464FF0804004F06FFE012211469007D7
:100A000005F0E1F90121880705F0C2F90EBD0000EB
:100A100070B504460D46A1B2274805F0D3FD00BFCE
:100A20008021254805F03CFE0028F9D0204670BD05
:100A3000014600BF704700BF704700B585B04FF456
:100A40000070ADF8100003208DF8120018208DF80A
:100A5000130004A9194804F01DFC4FF48060ADF8A0
:100A6000100004208DF8130004A9144804F012FCAF
:100A70004FF4165000900020ADF80400ADF80600C9
:100A8000ADF80800ADF80C000C20ADF80A0069467E
:100A9000094805F09EFC012240F22551064805F068
:100AA00030FD0121044805F020FD4021024805F0F9
:100AB00004FE05B000BD0000003801400008014000
:100AC00008B54FF44040ADF8000003208DF8020057
:100AD00010208DF803006946A54804F0DBFB4FF4B5
:100AE0008041A34804F083FC4FF40041A04804F087
:100AF0007EFC08BD08B54FF40040ADF800000320AF
:100B00008DF8020010208DF803006946984804F023
:100B1000C1FB08BD08B54FF40040ADF80000482007
:100B20008DF803006946924804F0B4FB08BD10B587
:100B3000FFF7E0FF4FF400418D4804F058FC4FF4FC
:100B400080418B4804F053FC0420FFF799FE4FF4DA
:100B50000041874804F04DFC0420FFF791FE4FF45C
:100B60008041834804F045FC10BD10B5FFF7C2FF7B
:100B70004FF480417E4804F03CFC4FF400417C4837
:100B800004F037FC0420FFF77BFE4FF480417848E7
:100B900004F02DFC4FF40041754804F028FC0420BB
:100BA000FFF76EFE10BD10B54FF48041704804F0A1
:100BB00020FCFFF79FFF4FF400416D4804F019FC43
:100BC0000220FFF75DFE4FF48041694804F00FFCFE
:100BD0000220FFF755FE4FF48041654804F009FC00
:100BE00010BD10B54FF48041614804F002FCFFF7DE
:100BF00081FF4FF400415E4804F0F9FB0220FFF74B
:100C00003FFE4FF480415A4804F0F1FB0220FFF709
:100C100037FE4FF48041564804F0EBFB10BD10B591
:100C20000024FFF777FF4FF40041514804F0DFFB49
:100C30000120FFF725FE4FF480414D4804F0D7FB1B
:100C40000120FFF71DFE07E0601CC4B2FA2C03DD93
:100C5000FFF78BFF012010BD4FF40041444804F022
:100C6000ACFB0028F0D14FF48041414804F0C1FBB7
:100C70000020F0E770B50646002424E006FA04F0F0
:100C800000F0800028B14FF40041394804F0AFFB78
:100C900004E04FF40041364804F0ABFB6420FFF75A
:100CA000EFFD4FF48041324804F0A1FB6420FFF7D0
:100CB000E7FD4FF480412E4804F09BFB6420FFF7D2
:100CC000DFFD601CC4B2082CD8DB6420FFF7D8FD20
:100CD000FFF720FF6420FFF7D3FD4FF48041244845
:100CE00004F085FB4FF47A70FFF7CAFD4FF4004122
:100CF0001F4804F062FB012801D1002500E0012516
:100D00004FF480411A4804F074FB6420FFF7B8FDEB
:100D1000FFF7F0FE284670BD70B50024FFF7FAFE1D
:100D20006420FFF7ADFD08251EE06420FFF7A8FD55
:100D30004FF480410E4804F05AFB6420FFF7A0FDF9
:100D40006006040E4FF40041094804F036FB08B178
:100D5000601CC4B24FF48041054804F04AFB642093
:100D6000FFF78EFD681EC5B2002DDEDC204670BD8B
:100D7000000C01402DE9F04106460F4690461C4606
:100D8000FFF7D5FE002141EA4601C8B2FFF772FF26
:100D9000FFF745FF20B1FFF7E8FE0020BDE8F08136
:100DA0003846FFF767FFFFF73AFF00250BE0207892
:100DB000FFF760FFFFF733FF18B1FFF7D6FE002003
:100DC000ECE7641C6D1C4545F1DBFFF7CEFE01200E
:100DD000E4E72DE9F04105460F4614461E46FFF7AD
:100DE000A6FE002141EA4501C8B2FFF743FFFFF725
:100DF00016FF20B1FFF7B9FE0020BDE8F0813846AC
:100E0000FFF738FFFFF70BFFFFF791FE012101EB22
:100E10004501C8B2FFF72EFFFFF701FF0CE0FFF717
:100E20007BFF3070012C02D1FFF7DBFE01E0FFF702
:100E3000BAFE761C601EC4B2002CF0D1FFF795FEFE
:100E40000120DAE72DE9F04104460D4616461F461B
:100E50003B46324629462046FFF7BBFF10B1002033
:100E6000BDE8F0814FF0FF30FAE72DE9F04104468C
:100E70000D4616461F463B46324629462046FFF79A
:100E800079FF10B10020BDE8F0814FF0FF30FAE7A4
:100E900070B50024FFF714FE01F08CFB04461CBB68
:100EA000782000F067FDE0B9782000F04EFBC0B973
:100EB000642000F02AFCA0B902F036F988B9BE48D7
:100EC00001F01EFB054602F039F950B940F27310EB
:100ED00002F075FD28B9642002F0EAFA08B901F0C1
:100EE000A0FA012000F001FD70BD2DE9F04F89B09E
:100EF000B248B349B34BB44ACDE90010B349B44842
:100F000002F0BCFEAE48008800F4807000287DD05E
:100F1000AD49086806F03CF904464FF09D4106F0E3
:100F200087F8AC490860A849486806F031F90446DA
:100F30004FF09D4106F07CF8A7490860A2498868F7
:100F400006F026F904464FF09D4106F071F8A349DA
:100F500008609D49C86806F01BF904464FF09D41A2
:100F600006F066F89E4908609A4801684FF0804094
:100F700006F02CF8069099480168069806F026F8C5
:100F80008246954801684FF0404006F01FF80690F1
:100F900093480168069806F019F88346514605F013
:100FA000BDFF079006F02FF9064607F03FF980468F
:100FB0004FF066328B4B06F079F8044606F066F97E
:100FC00089490860854801684FF0804005F0FEFFC0
:100FD000039082480168039805F0F8FF82467E4836
:100FE00001684FF0404005F0F1FF03907A48016836
:100FF000039805F0EBFF8346514605F0E1FF81467B
:101000004FF07E5105F08AFF044600E086E006F0CE
:10101000FAF8CDE904016F4801684FF0804005F00F
:10102000D5FF83466C480168584605F0CFFF8146DE
:101030006A4801684FF0804005F0C8FF8346684861
:101040000168584605F0C2FF8246494605F066FF32
:10105000044606F0D8F80746DDE9042307F02EFB26
:101060004FF066325F4BCDE9060106F01FF80546EA
:1010700006F00CF95D49086059480168006805F000
:10108000A5FF039055480168006805F09FFF029096
:1010900051480168006805F099FF83464D48016892
:1010A000006805F093FF5946019005F037FF82462E
:1010B000029905F085FF8146039905F081FF0446FA
:1010C00006F0A1F8CDE904014548016841480068EF
:1010D00005F07CFF8246414801683F48006805F002
:1010E00075FF8346514605F019FF81464FF0804158
:1010F00005F06CFF044606F086F80746DDE9042398
:1011000007F0DCFA4FF06632364BCDE9060105F008
:10111000CDFF054606F0BAF83549086009B0BDE8CC
:10112000F08F7FB505460C460121022003F0FBFF3E
:10113000ADF80850ADF804400020ADF80A00ADF855
:10114000060001A92B4804F0C7FA012211462948DC
:1011500004F039FE1D208DF8000001208DF80100FB
:1011600003208DF8020001208DF80300684603F08B
:10117000F6FD01211F4804F00BFE7FBD10B50121D3
:101180001C4805F0CEF808B1FFF7AFFE0121194861
:1011900005F0D8F810BD10B54FF4A06003F0DAFDEB
:1011A000C820FFF788FBFFF773FE472140F2F310DA
:1011B000FFF7B7FF10BD00001C0000205600002004
:1011C00054000020440000209C0000204E0000201D
:1011D00048000020280000202C00002030000020C3
:1011E0003400002066A64C40380000203C0000205F
:1011F00040000020000400400146FE48407A30B123
:10120000012808D002280AD0032810D10BE04FF49F
:10121000804008800EE041F69C7008800AE04FF4A0
:101220008050088006E04FF40060088002E04FF034
:10123000FF30704700BFEF48C07C10B108884010F5
:1012400008800020F5E70146EA48007A30B101281D
:1012500007D0022808D003280CD108E0E64808602F
:101260000BE0E648086008E0E548086005E0E5486E
:10127000086002E04FF0FF30704700BF0020FBE73E
:1012800008B5DC48807A10B94FF0FF3008BD002067
:101290000090D84A1268D17BD64A526810786B46C3
:1012A0000122FFF7E2FD10B14FF0FF30EEE7D14A27
:1012B00012685179CF4A526810786B460122FFF7C5
:1012C000D4FD10B14FF0FF30E0E7CA4A126811793F
:1012D000C84A526810786B460122FFF7C6FD10B16C
:1012E0004FF0FF30D2E7C34890F82400002853D0D5
:1012F0000C200090BF4A12681179BE4A52681078DB
:101300006B460122FFF7B1FD10B14FF0FF30BDE792
:101310003220FFF7D0FAC0200090B648807A00F063
:10132000010020B19DF8000040F020000090B14A7B
:1013300012681179AF4A526810786B460122FFF7A4
:1013400094FD10B14FF0FF30A0E7AA48407C10B1E7
:101350000220009001E000200090A64A1268D17B94
:10136000A44A526810786B460122FFF77EFD10B147
:101370004FF0FF308AE7002000909E4A12685179B2
:101380009C4A526810786B460122FFF76EFD0028D8
:1013900055D04FF0FF3079E704200090954A12684D
:1013A0001179944A526810786B460122FFF75DFD6F
:1013B00010B14FF0FF3069E78E48807C20B98D482E
:1013C000807A00F0010010B94020009001E0602018
:1013D0000090884A12681179864A526810786B46E4
:1013E0000122FFF742FD10B14FF0FF304EE73220EF
:1013F000FFF761FA7F48407C10B10120009001E0C6
:10140000002000907B4A1268D17B7A4A526810789B
:101410006B460122FFF729FD10B14FF0FF3035E791
:10142000744A12685179734A52681078714B1033BC
:101430000122FFF71AFD10B14FF0FF3026E7002020
:1014400024E738B504466B4890F82400C0B114B1C5
:101450000220009001E000200090664A1268D17BD3
:10146000644A526810786B460122FFF7FEFC10B107
:101470004FF0FF3038BD9DF800105E48417423E006
:101480005C48807A10B94FF0FF30F3E724B1594837
:10149000407C08B10020EDE714B10120009001E08C
:1014A00000200090534A1268D17B524A526810784B
:1014B0006B460122FFF7D9FC10B14FF0FF30D9E79E
:1014C0009DF800104B4841740020D3E738B504461E
:1014D0004848807A10B94FF0FF3038BDBC2C02DB91
:1014E0000120009015E0622C02DB0220009010E049
:1014F0002A2C02DB032000900BE0142C02DB0420DA
:10150000009006E00A2C02DB0520009001E0062096
:1015100000903848C07A9DF80010884201D1002020
:10152000DBE7344A12689178324A526810786B4689
:101530000122FFF79AFC10B14FF0FF30CDE79DF884
:1015400000102C48C1720020C7E770B50446002681
:1015500024F00104274890F8240008B1002070BD51
:101560002448807A10B94FF0FF30F8E72148057C15
:10157000807A20401F4908740846007CA04202D0AF
:101580004FF0FF3600E0002614B91A48007D18B16C
:101590000120FFF756FF02E00020FFF752FF3CB1A9
:1015A000FFF76EFE20B1134805744FF0FF30D6E709
:1015B0003046D4E738B504460E4890F82300A042E0
:1015C00001D1002038BD14B13020009001E000208E
:1015D00000900848807C20B19DF8000040F0020097
:1015E0000090044890F8220078B19DF8000040F087
:1015F000800009E0580000200000034300008342FF
:1016000033330342333383410090FE4A1268117D25
:10161000FC4A526810786B460122FFF726FC10B195
:101620004FF0FF30CEE7F74880F823400020C9E7AD
:1016300038B50446282C02DD4FF0FF3038BDDCB948
:101640000020FFF7B7FF00208DF8000007208DF87D
:101650000100EC4A1268917CEA4A526810786B46A5
:101660000222FFF702FC10B14FF0FF30E6E7002145
:10167000E44801750020E1E70120FFF79BFF2020EF
:101680008DF80000012C06D100208DF80100052006
:10169000FFF71CFF17E0052C06DC01208DF8010088
:1016A0000520FFF713FF0EE0142C06DC02208DF856
:1016B00001000A20FFF70AFF05E003208DF8010072
:1016C0001420FFF703FF9DF80100072101EB8010B4
:1016D000C0B28DF80100CB4A1268917CC94A5268A9
:1016E00010786B460222FFF7C0FB10B14FF0FF30BD
:1016F000A4E70821C348817200210173012101750B
:101700000020FFF722FF002098E738B50446BD48C7
:10171000807A10B94FF0FF3038BDBA4890F82400F5
:1017200010B14FF0FF30F7E7B648007D50B134B14B
:10173000282C04DCE0B2FFF77BFF0020ECE7002060
:10174000FFF776FF042C01DA042404E0B4F57A7F75
:1017500001DD4FF47A744FF47A7090FBF4F0401E80
:10176000C0B20090A74A12685178A64A5268107811
:101770006B460122FFF779FB10B14FF0FF30CBE74A
:101780009DF80000401C4FF47A7191FBF0F081B29B
:101790009C48C1810146C9894810FFF797FE002087
:1017A000BAE738B504469748807CA04201D10020B2
:1017B00038BD002C46D0934A12681179914A52687C
:1017C00010786B460122FFF73DFB10B14FF0FF3060
:1017D000EEE79DF8000020F020000090894A126892
:1017E0001179884A526810786B460122FFF73DFB59
:1017F00010B14FF0FF30DBE70320FFF75CF8022069
:101800000090804890F8220020B19DF8000040F040
:10181000800000907B4890F8230020B19DF80000E4
:1018200040F030000090774A1268117D754A526886
:1018300010786B460122FFF718FB002851D04FF0BB
:10184000FF30B5E76F4A126811796E4A5268107816
:101850006B460122FFF7F6FA10B14FF0FF30A7E711
:101860006848807A00F0010028B19DF8000040F03F
:101870002000009004E09DF8000020F0200000907F
:10188000604A126811795F4A526810786B460122EB
:10189000FFF7EBFA10B14FF0FF3089E70320FFF7B5
:1018A0000AF8584890F8220010B18020009001E01A
:1018B00000200090534890F8230020B19DF80000CC
:1018C00040F0300000904F4A1268117D4D4A526836
:1018D00010786B460122FFF7C8FA10B14FF0FF30C5
:1018E00066E748488474002062E738B504464548F6
:1018F00090F82400A04201D1002038BD24B3414813
:1019000090F8250010B94FF0FF30F6E70020FFF700
:1019100098FD0020FFF745FF3A49C88CFFF7F5FE18
:10192000002000903749496808786B46012223213E
:10193000FFF79BFA0121334880F824100120FFF7BC
:1019400080FDFFF79DFC13E00020FFF77AFD2D4896
:10195000007C00902B49496808786B4601222321BE
:10196000FFF783FA0021274880F82410FFF788FC4E
:101970000020C2E738B5044604F0700010B1012021
:10198000009005E014B10020009001E0402000909C
:101990001C4A1268917C1B4A526810786B460122DF
:1019A000FFF763FA20B1002116488172481E38BD46
:1019B0009DF8000020F040011248017300200090C3
:1019C00004F0400020B99DF8000040F004000090B1
:1019D00004F0200020B99DF8000040F002000090C3
:1019E00004F0100020B99DF8000040F001000090C4
:1019F00004F0080020B99DF8000040F03800009085
:101A0000004A01E0580000201268D17CF94A52686F
:101A100010786B460122FFF728FA20B10021F54823
:101A20008172481EC3E724B1082C02D00020FFF7C2
:101A3000C1FDF0488472002101753220FEF73BFFA2
:101A40000020B4E738B50446EA48807A10B94FF070
:101A5000FF3038BD022C06D0042C07D0082C08D04B
:101A6000102C0CD108E0002000900BE00820009022
:101A700008E01020009005E01820009002E04FF0F0
:101A8000FF30E6E700BFDB48407A9DF80010B0EB7E
:101A9000E10F01D10020DCE7D64A1268D179D54A9E
:101AA000526810786B460122FFF7DFF910B14FF052
:101AB000FF30CEE79DF80000C110CE4841720020F3
:101AC000C7E738B50446CB48807A10B94FF0FF30ED
:101AD00038BDFA2C09D0B4F5FA7F09D0B4F57A7F75
:101AE00009D0B4F5FA6F0CD108E0002000900BE0AB
:101AF0000820009008E01020009005E018200090D9
:101B000002E04FF0FF30E3E700BFBA48007A9DF8EB
:101B10000010B0EBE10F01D10020D9E7B54A1268FF
:101B20009179B44A526810786B460122FFF79DF90B
:101B300010B14FF0FF30CBE79DF80000C010AD4969
:101B400008720020C4E72DE9FC5F06460F46002519
:101B5000A8494968087801AB03220D21FFF772F903
:101B600010B10720BDE8FC9F9DF8040000F01F00A5
:101B70008DF804009DF8050000F01F008DF80500A9
:101B80009DF8060000F01F008DF80600002456E0C6
:101B900056F8240057F82410A0EB010BBBF1000FFE
:101BA00001DB594601E0CBF10001084605F0F0FAEF
:101BB0004FF08F41009005F03BFA814601A8005D8F
:101BC00068B38D49086805F0ECFA834659468B489E
:101BD00005F02EFA804604E08949404605F0F6F902
:101BE000804601A8005D401EC0B201A9085500282A
:101BF000F2D14146484605F01BFA83464FF07E512C
:101C000005F0DEF982462AF0004B7B488169584690
:101C100005F062FB12D20120A04005430EE0764899
:101C20000169484605F04EFB05D3734841694846B3
:101C300005F052FB02D20120A0400543641C032C96
:101C4000A6DB28468EE77CB505466A4949680878D0
:101C500001AB04220D21FFF7F5F808B107207CBD88
:101C60009DF80700C0F301109DF8041001F0E00199
:101C700040EAE1008DF800009DF80700C0F3810004
:101C80009DF8051001F0E00140EAE1008DF8010047
:101C90009DF8070000F003009DF8061001F0E00138
:101CA00040EAE1008DF8020000241CE01DF8040069
:101CB00018B9002045F8240013E0524845F82400E4
:101CC00006E055F82400504905F080F945F8240055
:101CD0001DF80400401EC0B20DF804000028F0D129
:101CE00000BF601CC4B2032CE0DB0020B7E72DE985
:101CF000FE4F06460F4600256846FFF7A4FF002466
:101D000042E056F8240057F82410A0EB010ABAF17B
:101D1000000F01DB514601E0CAF10001084605F061
:101D200037FA83464FF08F4105F082F980465DF81F
:101D30002400002105F0C6FA16D05DF824104046B4
:101D400005F076F982464FF07E5105F039F981466B
:101D500029F0004A2848416A504605F0BDFA12D2DF
:101D60000120A04005430EE02348C169404605F02C
:101D7000A9FA05D32048016A404605F0ADFA02D21F
:101D80000120A0400543641C032CBADB2846BDE8B3
:101D9000FE8F2DE9F04F87B005460C469146012095
:101DA0008DF8100000208DF81100124A1268917C05
:101DB000104A5268107804AB0222FFF756F820B19F
:101DC0004FF0FF3007B0BDE8F08FC820FEF773FD7D
:101DD00000208DF81000074A1268D17B054A52682E
:101DE000107804AB0122FFF740F878B14FF0FF30D4
:101DF000E8E7000058000020B088000800B04C451B
:101E000054E3853F7B14AE3E1D5A843FFC4A126862
:101E10005179FB4A5268107804AB0122FFF725F88C
:101E200010B14FF0FF30CDE7F54A1268917CF44ACB
:101E30005268107804AB0122FFF717F810B14FF089
:101E4000FF30BFE7EE4A1268D17DED4A5268107844
:101E500004AB0122FFF709F810B14FF0FF30B1E7F2
:101E6000E74A12681179E64A5268107804AB0122F9
:101E7000FEF7FBFF10B14FF0FF30A3E70C208DF809
:101E80001000DF4A12681179DD4A5268107804ABFD
:101E90000122FEF7EAFF10B14FF0FF3092E70F206A
:101EA000FEF709FDD648806A407A8DF81000D44AC2
:101EB00012689178D24A5268107804AB0122FEF77A
:101EC000D4FF10B14FF0FF307CE7CD48806A007A34
:101ED0008DF81000CA4A12685178C94A52681078C1
:101EE00004AB0122FEF7C1FF10B14FF0FF3069E7EC
:101EF000B9F1000F07D0C248806A807A40F0E00054
:101F00008DF8100004E0BE48806A807A8DF81000D9
:101F1000BB4A12689179BA4A5268107804AB012220
:101F2000FEF7A3FF10B14FF0FF304BE7B9F1000F00
:101F300007D0B348806AC07A40F0E0008DF8100006
:101F400003E0B048C07A8DF81000AD4A1268D1792C
:101F5000AB4A5268107804AB0122FEF786FF10B13D
:101F60004FF0FF302EE7B9F1000F02D0C820FEF786
:101F7000A2FC40208DF81000A14A12681179A04AF5
:101F80005268107804AB0122FEF76FFF10B14FF0DA
:101F9000FF3017E778208DF81000994A12685179C0
:101FA000974A5268107804AB0122FEF75EFF10B129
:101FB0004FF0FF3006E793498889FEF77CFC00204C
:101FC0008DF810008E4A126851798D4A5268107847
:101FD00004AB0122FEF749FF10B14FF0FF30F1E6EC
:101FE000874A1268917A864A5268107804AB0222B6
:101FF000FEF728FF10B14FF0FF30E3E69DF8110027
:102000009DF8101040EA012B0C209BFBF0F0C6B2AB
:102010000020A86068602860A06060602060824640
:1020200065E0774A1268D17A754A5268107804AB35
:102030000C22FEF707FF10B14FF0FF30C2E69DF80B
:1020400011009DF8101040EA012000B2ADF8080020
:102050009DF813009DF8121040EA012000B2ADF87F
:102060000A009DF815009DF8141040EA012000B206
:10207000ADF80C00BDF90810206808442060BDF9D7
:102080000A10606808446060BDF90C10A06808443C
:10209000A0609DF817009DF8161040EA012000B2DC
:1020A000ADF800009DF819009DF8181040EA0120D5
:1020B00000B2ADF802009DF81B009DF81A1040EA2E
:1020C000012000B2ADF80400BDF9001028680844F2
:1020D0002860BDF90210686808446860BDF9041002
:1020E000A8680844A8600AF1010000F0FF0AB245A0
:1020F00097DB4448D0F800C02868C117090441EABA
:102100001041070462460023384604F0B7FE324609
:102110000023CDE9020104F0B1FE28603948D0F86F
:1021200000C06868C117090441EA1041070462460B
:102130000023384604F0A2FE32460023CDE9020116
:1021400004F09CFE68602F48D0F800C0A868C11752
:10215000090441EA1041070462460023384604F0AE
:102160008DFE32460023CDE9020104F087FEA8600F
:102170002448D0F804C02168C817000440EA114878
:102180000F04624600233846414604F077FE32468B
:102190000023CDE9020104F071FE20601948D0F857
:1021A00004C06068C117090441EA1041070462468F
:1021B0000023384604F062FE32460023CDE90201D6
:1021C00004F05CFE60600F48D0F804C0A068C1173E
:1021D000090441EA1041070462460023384604F02E
:1021E0004DFE32460023CDE9020104F047FEA06017
:1021F000A068002808DDA068A0F58030A06007E096
:1022000058000020B0880008A06800F58030A06069
:102210000020D7E50146FA48007C0870002070478E
:102220000146F74890F8240010B14FF0FF30704796
:10223000F348C08908800020F9E70146F048C07AD9
:10224000082817D2DFE800F01704070A0D1013184A
:10225000BC20088013E06220088010E02A2008805B
:102260000DE0142008800AE00A20088007E005201D
:10227000088004E000BF00BF0020088000BF00BF4E
:10228000002070470146DE48407A30B1012807D06F
:10229000022808D003280CD108E0022008700BE0C7
:1022A0000420087008E00820087005E0102008707D
:1022B00002E04FF0FF30704700BFD148C07C18B13A
:1022C00008784006000E08700020F4E70146CC486C
:1022D000007A30B1012807D0022809D003280FD195
:1022E0000AE0FA2008800EE04FF4FA7008800AE055
:1022F0004FF47A70088006E04FF4FA60088002E03C
:102300000020088000BF00BF002070472DE9F04F7B
:102310008DB083460F4602200C90B94890F82400F7
:1023200020B10020FFF7E1FA012600E0002603A813
:10233000FFF7CCFF05A8FFF7A5FF01A8FFF77DFF7A
:1023400002A8FFF76DFFAE4890F80AA004A8FFF7B7
:1023500061FF002407E0002239465846FFF719FDC7
:1023600000B902E0641C022CF5DB00BF022C01D195
:10237000002528E0002407E0012206A909A8FFF7AC
:1023800008FD00B902E0641C022CF5DB00BF022C42
:1023900001D1002517E006A93846FFF7A8FC00F098
:1023A000FF0809A95846FFF7CEFB00F0FF090025FA
:1023B000B9F1000F01D145F00105B8F1000F01D1CD
:1023C00045F0020500BFFF208D490872FF218C48AF
:1023D0004172C1724FF6FF71C181FF218172017498
:1023E00001210173BDF80C00FFF76BFB9DF8140091
:1023F000FFF728FBBDF80400FFF768F8BDF80800F8
:10240000FFF783F95046FFF7B5FA9DF81000FFF784
:102410009CF816B10120FFF768FA28460DB0BDE818
:10242000F08F70B588B002A905A8FFF76FFF0446CA
:10243000072C3CD101A8FEF706FF059804F0A8FE82
:102440000646019904F0C2FD054604F0AFFE059072
:10245000069804F09DFE0646019904F0B7FD054676
:1024600004F0A4FE0690079804F092FE0646019937
:1024700004F0ACFD054604F099FE079005A800F0B5
:10248000EEFE6846FEF7B8FEBDF80010029848431D
:102490000290BDF80010039848430390BDF8001067
:1024A00004984843049002A800F06CFF00BF08B0F5
:1024B00070BD014691F90020002A01DD00201EE0D8
:1024C00091F90020002A01DA042018E091F9012096
:1024D000002A01DD012012E091F90120002A01DA31
:1024E00005200CE091F90220002A01DD022006E01F
:1024F00091F90220002A01DA062000E00720704747
:1025000010B504462046FFF7D4FF0346E01CFFF752
:10251000D0FF43EAC00083B2A01DFFF7CAFF43EA21
:10252000801083B2184610BD704738B5002419E0FA
:1025300033480068C07AA04204D031480068407D2A
:10254000A04200D10CE02E49496808786B46012270
:102550002146FEF777FC10B14FF0FF3038BD00BFC9
:10256000601CC4B2264840680079A042E0DC00202C
:10257000F4E770B504460D4621480068C07AA042D1
:1025800004D01F480068407DA04202D14FF0FF30C8
:1025900070BD1B4840680079A04202DC4FF0FF305C
:1025A000F6E71749496808782B4601222146FEF7CD
:1025B00049FCEDE71CB580208DF80000104A126838
:1025C000917C0F4A526810786B460122FEF74DFC51
:1025D00010B14FF0FF301CBD6420FEF76CF90020F5
:1025E0008DF80000064A1268917C054A52681078FE
:1025F0006B460122FEF739FC20B14FF0FF30EAE7CD
:1026000058000020FE4A1268917DFD4A52681078F9
:102610006B460622FEF716FC10B14FF0FF30DAE7EA
:102620009DF80500C007400F9DF8031001F001015F
:1026300040EA41009DF8011001F0010140EA010467
:1026400074B1012C03D10121ED48C17427E0022CA3
:1026500003D10021EA48C17421E04FF0FF30BAE70E
:10266000E74A1268D178E64A526810786B46012230
:10267000FEF7E8FB10B14FF0FF30ACE79DF800002B
:1026800000F00F0414B94FF0FF30A4E7042C03D17D
:102690000121DB48C17402E00021D948C174FF2147
:1026A000D7488172FF20D6490872FF21D448417271
:1026B000C1724FF6FF71C181FF2101748174012144
:1026C000017380F82210002180F8231041750175F4
:1026D0001630016041608160163880F8241080F85F
:1026E0002510C1844FF4FA60FFF7EBF910B14FF0F9
:1026F000FF3070E70220FFF7A5F910B14FF0FF306F
:1027000069E72A20FEF7E2FE10B14FF0FF3062E7E2
:102710003220FEF7FAFF10B14FF0FF305BE70020E8
:10272000FEF713FF10B14FF0FF3054E70020FFF722
:1027300038F810B14FF0FF304DE70020FFF71AF9DD
:10274000002048E77CB504460D46AD48807A00F08D
:10275000700010B94FF0FF307CBDA94A1268117BA0
:10276000A74A526810786B460622FEF76BFB10B141
:102770004FF0FF30F0E79DF801009DF8001040EAAF
:10278000012000B220809DF803009DF8021040EA6D
:10279000012000B260809DF805009DF8041040EA19
:1027A000012000B2A0800020D6E77CB504460D468B
:1027B0009348807A00F0080010B94FF0FF307CBDDC
:1027C0008F4A1268517B8E4A526810786B460622F7
:1027D000FEF738FB10B14FF0FF30F0E79DF8010035
:1027E0009DF8001040EA012000B220809DF803000F
:1027F0009DF8021040EA012000B260809DF80500BB
:102800009DF8041040EA012000B2A08015B12846CE
:10281000FFF78AFE0020D2E72DE9FE4F05460C4661
:102820007748807A18B94FF0FF30BDE8FE8F744AC0
:102830001268917B724A5268107802AB0222FEF74E
:1028400001FB10B14FF0FF30EFE79DF809009DF854
:10285000081040EA012006B214B12046FFF764FEDA
:1028600067494968C88804F09CFC6549019049683B
:10287000B1F9080004F08CFC8346304604F088FC73
:102880005946009004F09CFB8246019904F0D0FB6D
:1028900081465C4904F042FB80464FF08F4104F0D2
:1028A00095FB074604F082FC28600020BDE710B5C8
:1028B00088B004461CB94FF0FF3008B010BD206846
:1028C00028B9606818B9A06808B90020F5E74C4934
:1028D0004968087806AB03221146FEF7B3FA10B137
:1028E0004FF0FF30E9E79DF81800082101EB2010B8
:1028F00000F00F00ADF800009DF8190001EB20106A
:1029000000F00F00ADF802009DF81A0001EB201056
:1029100000F00F00ADF8040020684100BDF9000090
:10292000403091FBF0F000B2ADF81000606841005B
:10293000BDF90200403091FBF0F000B2ADF812009A
:10294000A0684100BDF90400403091FBF0F000B2F6
:10295000ADF814002A494968087806AB06221146EA
:10296000FEF770FA10B14FF0FF30A6E79DF819009E
:102970009DF8181040EA012000B2ADF808009DF85B
:102980001B009DF81A1040EA012000B2ADF80A00C1
:102990009DF81D009DF81C1040EA012000B2ADF822
:1029A0000C00BDF81000BDF80810084400B2ADF8E6
:1029B0001000BDF81200BDF80A10084400B2ADF8CE
:1029C0001200BDF81400BDF80C10084400B2ADF8B8
:1029D0001400BDF81000000A8DF81800BDF81000B2
:1029E000C0B28DF81900BDF81200000A8DF81A0067
:1029F000BDF81200C0B28DF81B00BDF8140003E052
:102A00005800002000000C42000A8DF81C00BDF8A0
:102A10001400C0B28DF81D00FD494968087806AB66
:102A200006221146FEF721FA10B14FF0FF3044E7BD
:102A3000002042E7014600200880401E7047014602
:102A40004FF0FF3070470146F148807A10B1012005
:102A5000087001E0002008700020704738B5044677
:102A6000EB48807A10B94FF0FF3038BDE84A126861
:102A7000117CE74A526810786B460222FEF7E2F9B1
:102A800010B14FF0FF30F0E79DF801009DF8001005
:102A900040EA012000B220800020E6E72DE9FE4F49
:102AA0000746884692461D46DDF830B000260024D1
:102AB000D74890F8240010B1601EBDE8FE8F0020BA
:102AC0002870D348807A10B94FF0FF30F5E7D0482E
:102AD000007C10B94FF0FF30EFE7CD48007C00F0EC
:102AE000400008B1B01CC6B2C948007C00F020000C
:102AF00008B1B01CC6B2C648007C00F0100008B196
:102B0000B01CC6B2C248007C00F0080008B1B01D7D
:102B1000C6B2BF4A1268917ABD4A526810786B46B5
:102B20000222FEF78FF910B14FF0FF30C5E79DF894
:102B300001009DF8001040EA0129B14501DA0020AA
:102B4000BBE7B34840684088B9EB600F17DDB04A77
:102B50001268517CAE4A526810786B460122FEF72B
:102B600071F910B14FF0FF30A7E79DF8000000F0B9
:102B7000100020B1FEF784FB6FF001009DE7504686
:102B8000FFF7D2FCA24A1268D17AA14A52681078A3
:102B90006B463246FEF756F910B14FF0FF308CE726
:102BA00099FBF6F0401E8BF8000000202870B4421C
:102BB0002AD09748007C00F0080028B3601C1DF85C
:102BC00000001DF8041040EA012000B2A8F800003F
:102BD000E01C1DF80010A01C1DF8000041EA0020B8
:102BE00000B2A8F80200601D1DF80010201D1DF89D
:102BF000000041EA002000B2A8F80400287840F064
:102C000008002870A01D84B2B44213D08048007C14
:102C100000F0400070B1601C1DF800001DF80410A9
:102C200040EA012000B23880287840F04000287047
:102C3000A01C84B2B44213D07548007C00F0200080
:102C400070B1601C1DF800001DF8041040EA01205E
:102C500000B27880287840F020002870A01C84B250
:102C6000B44213D06A48007C00F0100070B1601CC0
:102C70001DF800001DF8041040EA012000B2B880E1
:102C8000287840F010002870A01C84B2002014E7BF
:102C9000F8B504460F4616465D4890F8240010B972
:102CA0004FF0FF30F8BD5A48807A10B94FF0FF302E
:102CB000F8E7574A1268917A554A526810786B467D
:102CC0000222FEF7BFF810B14FF0FF30EAE79DF89F
:102CD00001009DF8001040EA0125A54203DA00201A
:102CE0003070401EDEE74A4840684088B5EB600F10
:102CF00017DD474A1268517C454A526810786B4686
:102D00000122FEF79FF810B14FF0FF30CAE79DF89F
:102D1000000000F0100020B1FEF7B2FA6FF00100E1
:102D2000C0E7E2B23A4B1B68D97A394B5B68187836
:102D30003B46FEF787F810B14FF0FF30B2E795FB46
:102D4000F4F0401E30700020ACE70146304880F8B7
:102D5000221000207047F8B504460D46164616B9F5
:102D60004FF0FF30F8BD2A48807A10B94FF0FF309D
:102D7000F8E720128DF80000E0B28DF801009DF810
:102D800001002844224949684989884202DD4FF000
:102D9000FF30E7E71E4A1268117E1D4A526810781C
:102DA0006B460222FEF761F810B14FF0FF30D9E711
:102DB000EAB2174B1B68597D154B5B681878334690
:102DC000FEF753F810B14FF0FF30CBE70020C9E712
:102DD000F8B504460D46164616B94FF0FF30F8BD5B
:102DE0000B48807A10B94FF0FF30F8E720128DF8C9
:102DF0000000E0B28DF801009DF80100284404496C
:102E000049684989884205DD4FF0FF30E7E7000057
:102E100058000020C34A1268117EC24A52681078D6
:102E20006B460222FEF721F810B14FF0FF30D6E7D3
:102E3000EAB2BC4B1B68597DBA4B5B6818783346C5
:102E4000FEF700F810B14FF0FF30C8E70020C6E7EA
:102E50002DE9F04385B005460E4690469946B148A7
:102E600090F8250020B14FF0FF3005B0BDE8F083A9
:102E700016B94FF0FF30F8E7002423E0281B102894
:102E800001DD102000E0281B87B2321939462046A8
:102E9000FFF761FF10B14FF0FF30E6E701AA3946B6
:102EA0002046FFF795FF10B14FF0FF30DDE73019F6
:102EB0003A4601A904F025F810B16FF00100D4E7FB
:102EC000E01984B2AC42D9DB4FEA28208DF800002B
:102ED00008F0FF008DF80100924A1268917E914A35
:102EE000526810786B460222FDF7BFFF10B14FF019
:102EF000FF30BAE701218B4880F82510A0F8269012
:102F00000020B2E70146874890F8240008700020AE
:102F1000704702464FF0FF30704701464FF0FF30D8
:102F20007047F8B505460F461446002C70D0B5F52D
:102F3000FF5F01DDFF2605E0202D01DA012601E01B
:102F4000C5F3471607B90127282C02DD4FF0FF30E3
:102F5000F8BD7448407D28BB724890F8240038B111
:102F60000020FEF7C2FC01216E4880F8201003E02B
:102F700000216C4880F820106A481630FFF7A6F947
:102F800068481830FFF77EF966481A30FFF755F9A0
:102F900064481C30FFF744F96248817A81771F301A
:102FA000FFF738F90020FEF74CFA0020FEF740FB4F
:102FB00000208DF800005B4A12689178594A5268E7
:102FC00010786B460122FDF750FF10B14FF0FF3033
:102FD000BEE740208DF80000524A1268D17B514A6A
:102FE000526810786B460122FDF73FFF00B165E0A3
:102FF0008DF800608DF801704A4A1268117A494ACA
:10300000526810786B460222FDF72FFF08B155E099
:1030100047E00520FDF74FFC4248407A072101EBCD
:10302000C000C0B28DF800003E4A1268D1793D4A16
:10303000526810786B460122FDF717FF00B13DE0A2
:1030400020208DF80000012C03D100208DF8010014
:103050000EE0052C03DC01208DF8010008E0142CA3
:1030600003DC02208DF8010002E003208DF801004E
:103070009DF80100072101EB8010C0B28DF801001E
:10308000284A1268917C274A526810786B460222BF
:10309000FDF7EBFE00B111E001212248417500204F
:1030A00056E7204A1632002103E0505C00B105E0EB
:1030B000491C0C29F9D34FF0FF3049E7FF2019498B
:1030C0000872FF2117484172C1724FF6FF71C1812A
:1030D000FF2181720174012101730146887FFEF78F
:1030E00049FC1049C88AFEF7ECFC0E49087EFEF741
:1030F000A9FC0C49488BFEF7E9F90A49888BFEF7D1
:1031000004FB0849C87FFEF720FA064890F8200023
:1031100010B10120FEF7E9FB0021024841750020B3
:1031200016E700005800002010B5C8234FF4806255
:10313000F74940F6F630FFF78BFE10BD10B586B0AC
:103140000446F4A000680390F3A000680290F3A086
:1031500000680190F2A00068009004F0030003A949
:10316000085C8DF8140003A8C4F3C101405C8DF81D
:10317000150003A8C4F38111405C8DF8160004F01B
:10318000030002A9085C8DF8100002A8C4F3C10175
:10319000405C8DF8110002A8C4F38111405C8DF8E9
:1031A000120005AA032140F22640FFF7D4FD18B112
:1031B0004FF0FF3006B010BD04AA032140F22A40B0
:1031C000FFF7C9FD10B14FF0FF30F3E7019805900C
:1031D0000098049004F0040058B19DF8140040F0E9
:1031E00001008DF814009DF8100040F001008DF8EA
:1031F000100004F0200058B19DF8150040F00100C7
:103200008DF815009DF8110040F001008DF81100B7
:1032100004F4807058B19DF8160040F001008DF85C
:1032200016009DF8120040F001008DF8120005AA6A
:1032300003214FF48860FFF78EFD10B14FF0FF308F
:10324000B8E704AA032140F23140FFF784FD10B132
:103250004FF0FF30AEE7B34804810020AAE71FB566
:103260000446B048007A00F0030054F820000190B2
:10327000AC48007A00F0040010B10198404201907F
:10328000A848007AC0F3C10054F820000290A54875
:10329000007A00F0200010B1029840420290A1484C
:1032A000007AC0F3811054F8200003909D480089F3
:1032B00000F4807010B10398404203909A4901983D
:1032C00080FB0101800F40EA81000190964902983D
:1032D00080FB0110820042EA9170029092490398AB
:1032E00080FB0110820042EA917003900198000E69
:1032F0008DF800000198000C8DF801000198000A7B
:103300008DF802000198C0B28DF803006A460421CE
:103310004FF47470FFF71FFD18B14FF0FF3004B089
:1033200010BD0298000E8DF800000298000C8DF878
:1033300001000298000A8DF802000298C0B28DF8D0
:1033400003006A4604214FF47570FFF704FD10B1C5
:103350004FF0FF30E3E70398000E8DF8000003986C
:10336000000C8DF801000398000A8DF80200039804
:10337000C0B28DF803006A4604214FF47670FFF75F
:10338000EAFCCCE770B588B0064601A8FDF734FF2B
:10339000BDF804000021C90341EA5045C403614857
:1033A000007A00F0030056F8200005905D48007A8E
:1033B00000F0040010B10598404205905948007A89
:1033C000C0F3C10056F8200006905648007A00F07D
:1033D000200010B10698404206905248007AC0F38F
:1033E000811056F8200007904E48008900F4807044
:1033F00010B10798404207900598C117A0FB04231D
:1034000001FB043100FB0510810041EA9270059038
:103410000698C117A0FB042301FB043100FB051033
:10342000810041EA927006900798C117A0FB04231F
:1034300001FB043100FB0510810041EA9270079006
:103440000598000E8DF808000598000C8DF809000D
:103450000598000A8DF80A000598C0B28DF80B0097
:103460000698000E8DF80C000698000C8DF80D00E3
:103470000698000A8DF80E000698C0B28DF80F006D
:103480000798000E8DF810000798000C8DF81100B9
:103490000798000A8DF812000798C0B28DF8130043
:1034A00002AA0C214FF42570FFF755FC08B070BD3F
:1034B00030B585B004461DA207CA02AB07C3C82CAD
:1034C00003DD4FF0FF3005B030BDC82090FBF4F0B5
:1034D000401E85B2280A8DF80000E8B28DF8010080
:1034E0006A46022140F21620FFF735FC10B14FF07A
:1034F000FF30E8E702AA0C2140F6C120FFF72BFCC1
:1035000010B14FF0FF30DEE7064884810020DAE793
:10351000D88800084CCD6C000CC92C0036567600BB
:1035200026466600AC00002009E3CA02FEF2ABC4E6
:10353000AAF1DFDFBBAFDFDF0146FC4880890880EE
:10354000002070472DE9FC4706460F4606F00700AD
:1035500010B1B7F5C86F03DD4FF0FF30BDE8FC8751
:10356000384603F01EFE8146F14903F061FD8046B6
:103570006846FEF787FE9DF80000022806D0042862
:1035800016D0082826D0102848D135E04FF08D41BC
:10359000404603F01BFD814603F021FE84B2E5495D
:1035A000404603F013FD814603F019FE85B238E072
:1035B0004FF08C41404603F009FD814603F00FFEB9
:1035C00084B2DD49404603F001FD814603F007FE69
:1035D00085B226E04FF08B41404603F0F7FC814670
:1035E00003F0FDFD84B2D549404603F0EFFC81466F
:1035F00003F0F5FD85B214E04FF08A41404603F038
:10360000E5FC814603F0EBFD84B2CD49404603F072
:10361000DDFC814603F0E3FD85B202E04FF0FF30B0
:103620009CE700BF20128DF80400E0B28DF8050081
:1036300028128DF80600E8B28DF8070006F00100A8
:10364000A0B101AA02214FF4EA70FFF784FB10B188
:103650004FF0FF3082E70DF1060202214FF4927025
:10366000FFF779FB10B14FF0FF3077E706F002006B
:10367000A0B101AA02214FF4EC70FFF76CFB10B16E
:103680004FF0FF306AE70DF1060202214FF494700B
:10369000FFF761FB10B14FF0FF305FE706F0040069
:1036A000A0B101AA02214FF4EE70FFF754FB10B154
:1036B0004FF0FF3052E70DF1060202214FF49670F1
:1036C000FFF749FB10B14FF0FF3047E7002045E717
:1036D00038B504460020009004F0010020B19DF8A8
:1036E000000040F03000009004F0020020B19DF88E
:1036F000000040F00C00009004F0040020B19DF8A0
:10370000000040F0030000906A4601214FF4A470CD
:10371000FFF721FB38BD38B50446012C01DA01243E
:1037200002E0042C00DD0424601EC0B200906A4652
:10373000012140F24F10FFF70EFB38BD38B50446AB
:10374000052094FBF0F085B228128DF80000E8B255
:103750008DF801006A4602214FF4EF70FFF7FBFA83
:1037600038BD38B50446052094FBF0F085B2281228
:103770008DF80000E8B28DF801006A4602214FF48E
:10378000ED70FFF7E8FA38BDF8B505460E464FF480
:103790007A7095FBF0F000FB06F4200E8DF8000027
:1037A000200C8DF80100200A8DF80200E0B28DF89F
:1037B00003006A4604214FF4AE70FFF7CCFAF8BD5F
:1037C00038B50446052094FBF0F084B220128DF841
:1037D0000000E0B28DF801006A4602214FF4AD709E
:1037E000FFF7B9FA38BD38B50446052094FBF0F070
:1037F00084B220128DF80000E0B28DF801006A4614
:1038000002214FF4AC70FFF7A6FA38BD38B5044674
:1038100014B94FF0FF3038BD6A4604214FF4587098
:10382000FFF7D6FA10B14FF0FF30F4E79DF8000033
:1038300000069DF8011040EA01409DF8021040EAA0
:1038400001209DF80310084320600020E3E738B50D
:103850000446200E8DF80000200C8DF80100200A8F
:103860008DF80200E0B28DF803006A4604214FF49F
:103870005870FFF770FA38BD38B5044614B94FF0E8
:10388000FF3038BD6A4604214FF47170FFF7A0FA8B
:1038900010B14FF0FF30F4E79DF8000000069DF8EE
:1038A000011040EA01409DF8021040EA01209DF815
:1038B0000310084300EB8000800020600020E0E758
:1038C00038B504461420B4FBF0F4200E8DF8000047
:1038D000200C8DF80100200A8DF80200E0B28DF86E
:1038E00003006A4604214FF47170FFF734FA38BDC3
:1038F00038B5044664B120208DF8000028208DF8EA
:10390000010030208DF8020038208DF8030004E01B
:10391000A3220421684603F0E2FA6A46042140F635
:103920009E20FFF718FAFDF7ABFC38BDAC00002075
:1039300000004843000040460000C04500004045EC
:103940000000C04438B5044664B1C0208DF80000C2
:10395000C2208DF80100C4208DF80200C6208DF829
:10396000030004E08B220421684603F0B8FA6A469B
:10397000042140F69820FFF7EEF9FDF781FC38BDF1
:103980003EB504466CB1FDA1D1E900208968CDE9BE
:10399000002002916A4609214FF49760FFF7DBF996
:1039A0003EBDF9A2D2E900109268CDE90102009172
:1039B0006A4609214FF49760FFF7CDF9F0E73EB56D
:1039C000044602208DF80000CA208DF80100E32093
:1039D0008DF8020009208DF803006A460421682052
:1039E000FFF7B9F9A3208DF8000004F0400048B1BA
:1039F000C0208DF80100C8208DF80200C2208DF88B
:103A0000030006E0A3208DF801008DF802008DF878
:103A1000030004F4C07048B1C4208DF80400CC2029
:103A20008DF80500C6208DF8060006E0A3208DF86D
:103A300004008DF805008DF80600A3208DF807001E
:103A40008DF808008DF809006A460A2140F6A72083
:103A5000FFF781F904F0030018B120208DF8000071
:103A600002E0D8208DF800006A46012140F6B62019
:103A7000FFF771F904F0200018B10120FFF780FF73
:103A800002E00020FFF77CFF04F4C07008B304F4E8
:103A9000807060B1B2208DF800008B208DF801009D
:103AA000B6208DF802009B208DF803000BE0B020BB
:103AB0008DF8000080208DF80100B4208DF8020000
:103AC00090208DF803006A46042140F6A220FFF7FB
:103AD00042F904F0010020B3F8208DF800006A4696
:103AE00001214FF40B60FFF736F9FA210720FFF7A9
:103AF00029FD0720FFF7ECFD0120FFF70CFE6420F5
:103B0000FFF71CFE4FF4FA70FFF72BFEC821A14807
:103B1000FFF73AFE2820FFF753FE0A20FFF763FE67
:103B200008E0D8208DF800006A4601214FF40B60B0
:103B3000FFF711F904F0020018B1D9208DF8000048
:103B400002E0D8208DF800006A46012140F23D7065
:103B5000FFF701F904F0040018B10120FFF7F2FEAD
:103B600002E00020FFF7EEFE04F0100018B1012083
:103B7000FFF7BEFE02E00020FFF7BAFE44F00800A7
:103B800085494881FDF77CFB00208349887304F058
:103B9000400018B10846807B801D887304F4C07013
:103BA00020B17D48807B801D7B49887304F0140020
:103BB00020B17948807B10307749887304F0030086
:103BC00020B17548807B001D7349887300203EBD7D
:103BD0000146714840890880002070472DE9F04176
:103BE0000446E07800F0C006E07800F03F05607819
:103BF00000F0010098B1EF102846E91705EB51716C
:103C0000C910A5EBC101491C01F0FF08624800681A
:103C100020B16148414602683846904700BF60784D
:103C200000F0080030B15C48406818B1B0115A4A41
:103C3000516888470020BDE8F08110B586B0044681
:103C400056A207CA03AB07C357A207CA8DE80700ED
:103C5000012C09D0022C0ED103AA0B2140F68220A0
:103C6000FFF779F806B010BD6A460B2140F68220B6
:103C7000FFF771F8F6E74FF0FF30F3E72DE9F04F6B
:103C80008DB00746884615469B46DDE9166A002436
:103C9000002030804049887B524605A9FEF7F8FF96
:103CA00018B1601E0DB0BDE8F08F3B48807A00F07F
:103CB0001400002861D09DF8140000069DF815102E
:103CC00040EA01409DF8161040EA01209DF81710C7
:103CD000084328609DF8180000069DF8191040EA76
:103CE00001409DF81A1040EA01209DF81B1008437E
:103CF00068609DF81C0000069DF81D1040EA014018
:103D00009DF81E1040EA01209DF81F100843A8608E
:103D10009DF8200000069DF8211040EA01409DF822
:103D2000221040EA01209DF823100843E86004F1C6
:103D30001000C4B228680014019068680014029052
:103D4000A86800140390E8680014049001984043A8
:103D5000029901FB0100039901FB0100049901FB99
:103D60000109B9F1706F02DBB9F1885F22DDFDF75F
:103D700087FA00203080401E94E721E0B8AAB38D76
:103D8000B4980D355D000000B8AAAAAAB088C3C5D2
:103D9000C700000009E3CA02AC000020D8B1B9F3A3
:103DA0008BA391B609B4D900DAB1B9F38BA391B65C
:103DB000DAB4DA00B6F9000040F48070308000BF59
:103DC0003248807A00F0400020B305A9601C085CEE
:103DD000095D40EA012000B2A8F8000005A9E01C36
:103DE000095C05AAA01C105C41EA002000B2A8F8FA
:103DF000020005A9601D095C201D105C41EA00203D
:103E000000B2A8F80400A01DC4B2B6F9000040F04A
:103E1000080030801D48408900F4C07008B305A92F
:103E2000601C085C095D40EA012000B2388005A9E9
:103E3000E01C095C05AAA01C105C41EA002000B24D
:103E4000788005A9601D095C201D105C41EA0020F6
:103E500000B2B880A01DC4B2B6F9000040F07000F6
:103E600030800A48807A00F0030018B105A90819CB
:103E7000FFF7B4FE002015E701460448016000206A
:103E8000704701460148416000207047AC000020A7
:103E900008B54FF40050ADF8000003208DF8020083
:103EA00010208DF8030069467F4801F0F3F94FF4C4
:103EB00000517D4801F09BFA0220ADF800006946F0
:103EC0007A4801F0E7F94CF20370ADF800001820D1
:103ED0008DF803006946744801F0DCF94FF68070F4
:103EE000ADF800006946714801F0D4F94FF4036061
:103EF000ADF8000069466C4801F0CCF98020ADF8BF
:103F000000006946684801F0C5F94FF40040ADF87B
:103F1000000010208DF8030003208DF80200694690
:103F2000634801F0B7F94FF48040ADF800006946EE
:103F30005F4801F0AFF94FF40050ADF8000069465A
:103F40005B4801F0A7F94FF48050ADF800006946D6
:103F5000574801F09FF90220ADF800006946544827
:103F600001F098F90120ADF800006946514801F0D0
:103F700091F94FF48050ADF8000069464A4801F0CD
:103F800089F94FF48070ADF8000004208DF803002B
:103F90006946494801F07EF94FF40070ADF8000021
:103FA00004208DF803006946434801F073F94FF48B
:103FB0008060ADF8000004208DF8030069463E489B
:103FC00001F068F94FF40060ADF8000004208DF8AE
:103FD00003006946384801F05DF90820ADF800009B
:103FE00004208DF8030069462F4801F053F90220A0
:103FF000ADF8000048208DF8030069462E4801F016
:1040000049F90420ADF8000048208DF80300694606
:10401000294801F03FF90820ADF8000048208DF84C
:1040200003006946244801F035F91020ADF800007E
:1040300048208DF8030069461C4801F02BF908BDA3
:1040400000B597B002200190002002900520039057
:1040500000200490059006904FF0805007900020BB
:104060000890099008200A9010200B9000200C90D6
:104070000E900F9010904FF48050119000201290ED
:104080001390149001A81590169008A802F0AEFBAA
:104090000121002002F012FD17B000BD10B5FFF79E
:1040A000F7FEFFF7CDFF10BD0014014000180140DE
:1040B000000C014000080140001001404FF0C041D9
:1040C00008807047FA49088070474FF0C04210805E
:1040D000F74A1180704710B5FFF7E0FF0221F5485D
:1040E00001F087F94AF6FF70FCF7C5FB0221F148A1
:1040F00001F07DF94AF6FF70FCF7BDFB4FF48071CB
:104100000120FFF7E2FF4FF4E0610220FFF7DDFF3F
:1041100041F230010320FFF7D8FF00210420FFF710
:10412000D4FF40F207210820FFF7CFFF002109202C
:10413000FFF7CBFF00210A20FFF7C7FF00210C206B
:10414000FFF7C3FF00210D20FFF7BFFF00210F2065
:10415000FFF7BBFF00211020FFF7B7FF0721112059
:10416000FFF7B3FF00211220FFF7AFFF002113205C
:10417000FFF7ABFF01210720FFF7A7FF42F6E06042
:10418000FCF779FB41F290411020FFF79EFF40F2CF
:1041900027211120FFF799FF43F68C40FCF76BFBBA
:1041A0001C211220FFF791FF43F69820FCF763FBD8
:1041B0004FF4D0511320FFF788FF25212920FFF766
:1041C00084FF0C212B20FFF780FF43F69820FCF79B
:1041D00052FB00212020FFF778FF00212120FFF76C
:1041E00074FF00213020FFF770FF40F206513120AC
:1041F000FFF76BFF4FF482713220FFF766FF40F24A
:1042000007213520FFF761FF0F213620FFF75DFF03
:1042100040F206313720FFF758FF4FF48171382004
:10422000FFF753FF40F207713920FFF74EFF40F2CE
:1042300002713C20FFF749FF41F204613D20FFF786
:1042400044FF00215020FFF740FFEF215120FFF7EE
:104250003CFF00215220FFF738FF40F23F1153206E
:10426000FFF733FF4FF427416020FFF72EFF0121B6
:104270006120FFF72AFF00216A20FFF726FF0021B7
:104280008020FFF722FF00218120FFF71EFF002181
:104290008220FFF71AFF00218320FFF716FF00217D
:1042A0008420FFF712FF00218520FFF70EFF102169
:1042B0009020FFF70AFF4FF4C0619220FFF705FF3F
:1042C00040F233110720FFF700FF10BD30B5034661
:1042D0000D46144619465020FFF7F7FE19465120A7
:1042E000FFF7F3FE29465220FFF7EFFE2946532041
:1042F000FFF7EBFE19462020FFF7E7FE29462120B5
:10430000FFF7E3FE2220FFF7D9FE2046FFF7DAFE93
:1043100030BD70B506460024002500BF0DE0002525
:1043200006E0E0B232462946FFF7D0FF681C85B2AE
:10433000B5F5A07FF5DB601C84B2F02CEFDB70BD1F
:104340002DE9F84F04460D46174698460026B1461B
:10435000B24600200090AB46A7F12000C0B200900A
:1043600000BF2EE05449009801EB801010F8069031
:104370004FF0000A1FE009F0800028B1E0B2424689
:104380002946FFF7A3FF04E0E0B229460A9AFFF7A7
:104390009DFF4FEA49604FEA1069681C85B2A5EBA2
:1043A0000B001E2803D15D46601C84B206E00AF1B2
:1043B000010000F0FF0ABAF1080FDCDB00BF701C3F
:1043C000C6B2402ECEDBBDE8F88F2DE9F843054696
:1043D0000E4614461F46DDF8208019E0E22D03DD6D
:1043E000002506F11E0086B2B6F5917F01DD00259D
:1043F0000026C820FCF744FACDF8008022783B461E
:1044000031462846FFF79CFF05F10E0085B2641C7B
:1044100020780028E2D1BDE8F8832DE9F84305466D
:104420000E4614461F46DDF8208019E0B6F5997F48
:1044300003DD002605F11E0085B2D22D01DD002529
:104440000026C820FCF71CFACDF8008022783B46F5
:1044500031462846FFF774FF06F10E0086B2641C51
:1044600020780028E2D1BDE8F8832DE9F84F064610
:10447000894614469A460A9F25464FF0000844B9DB
:1044800053463022494630460097FFF759FFBDE8B2
:10449000F88F0AE00A20B5FBF0F508F1010000F002
:1044A000FF08294605A003F0D5F9002DF2D127E039
:1044B00000000260001801401AA8000825640D0AD7
:1044C000000000000A20B4FBF0F100FB114000F1F5
:1044D000300B41464A1E02F0FF08C1EB01110F39B3
:1044E000314488B253465A4649460097FFF728FFA1
:1044F0000A20B4FBF0F42146AFF2400003F0AAF921
:10450000002CDFD100BFC2E72DE9F84F81460E46EF
:1045100014469A460A9F25464FF0000844B9534670
:104520003022314648460097FFF70AFFBDE8F88F72
:1045300006E00A20B5FBF0F508F1010000F0FF08E5
:10454000002DF6D118E00A20B4FBF0F100FB114079
:1045500000F1300B4046421E02F0FF08C0EB001095
:104560000F38304481B253465A4648460097FFF709
:10457000E7FE0A20B4FBF0F4002CE4D100BFD5E73D
:104580002DE9F04706460F4690469A4600244546D8
:104590000320A0EB480944E07A1B91B23219D0B253
:1045A0005246FFF793FE3A1B91B27219D0B25246AF
:1045B000FFF78CFE3A1991B27219D0B25246FFF74A
:1045C00085FE7A1991B23219D0B25246FFF77EFEBB
:1045D0007A1991B2321BD0B25246FFF777FE3A19E0
:1045E00091B2721BD0B25246FFF770FE7A1B91B2A5
:1045F000321BD0B25246FFF769FE3A1B91B2721BD2
:10460000D0B25246FFF762FE641CB9F1000F03DA24
:10461000A000801D814404E0601B80000A308144BA
:104620006D1EAC42B8DDBDE8F0872DE9FF4F84B0C8
:1046300081468A460020029083460698A0EB090531
:104640000798A0EB0A06CDF80490CDF800A0002D45
:1046500001DD012705E00DB9002702E04FF0FF372B
:104660006D42002E02DD4FF0010806E016B94FF052
:10467000000802E04FF0FF387642B54201DD2C46DB
:1046800000E03446002003901EE0009A91B2019AA7
:10469000D0B2119AFFF71AFE029828440290B34450
:1046A0000298A04205DD0298001B02900198384450
:1046B0000190A34504DDABEB040B0098404400904F
:1046C0000398401C80B20390611C03988842DCDD93
:1046D00008B0BDE8F08F2DE9F84105460E461746B3
:1046E0009846079C33463A46314628460094FFF7E1
:1046F0009CFF43462A46314628460094FFF795FF23
:1047000043463A46414628460094FFF78EFF43460B
:104710003A46314638460094FFF787FFBDE8F881F6
:104720002DE9F04706460F4690469946DDF820A051
:104730000024002534460CE03D4606E0E0B2524637
:104740002946FFF7C3FD681C85B24D45F6DB601CAA
:1047500084B24445F0DBBDE8F08770B505460C46F1
:10476000FCF7E5F94220FCF785FA18B9FCF7FDF9EA
:10477000002070BD6420FCF783F82846FCF77AFA25
:1047800018B9FCF7F2F90020F3E76420FCF778F899
:104790002046FCF76FFA18B9FCF7E7F90020E8E7C4
:1047A000FCF7E3F90120E4E710B504213A20FFF714
:1047B000D4FFD0214020FFF7D0FF14211220FFF7B3
:1047C000CCFF80213220FFF7C8FF16211720FFF70A
:1047D000C4FF04211820FFF7C0FF02211920FFF7B2
:1047E000BCFF7B211A20FFF7B8FF06210320FFF74B
:1047F000B4FF00210C20FFF7B0FF00213E20FFF79F
:10480000ACFF3A217020FFF7A8FF35217120FFF798
:10481000A4FF11217220FFF7A0FF00217320FFF7F2
:104820009CFF0221A220FFF798FF81211120FFF7B2
:1048300094FF20217A20FFF790FF1C217B20FFF7B7
:104840008CFF28217C20FFF788FF3C217D20FFF78B
:1048500084FF55217E20FFF780FF68217F20FFF72E
:104860007CFF76218020FFF778FF80218120FFF7F1
:1048700074FF88218220FFF770FF8F218320FFF7CC
:104880006CFF96218420FFF768FFA3218520FFF7A6
:1048900064FFAF218620FFF760FFC4218720FFF768
:1048A0005CFFD7218820FFF758FFE8218920FFF718
:1048B00054FFE0211320FFF750FF00210846FFF7C7
:1048C0004CFF00211020FFF748FF00210D20FFF7CB
:1048D00044FF28211420FFF740FF0521A520FFF702
:1048E0003CFF0721AB20FFF738FF75212420FFF79D
:1048F00034FF63212520FFF730FFA5212620FFF795
:104900002CFF78219F20FFF728FF6821A020FFF7C8
:1049100024FF0321A120FFF720FFDF21A620FFF7BE
:104920001CFFDF21A720FFF718FFF021A820FFF7C9
:1049300014FF9021A920FFF710FF9421AA20FFF770
:104940000CFFE5211320FFF708FF61210E20FFF780
:1049500004FF4B210F20FFF700FF02211620FFF775
:10496000FCFE37211E20FFF7F8FE02212120FFF771
:10497000F4FE91212220FFF7F0FE07212920FFF706
:10498000ECFE0B213320FFF7E8FE0B213520FFF76B
:10499000E4FE1D213720FFF7E0FE71213820FFF7EC
:1049A000DCFE2A213920FFF7D8FE78213C20FFF7D2
:1049B000D4FE40214D20FFF7D0FE20214E20FFF7EE
:1049C000CCFE00216920FFF7C8FE60216B20FFF7B5
:1049D000C4FE19217420FFF7C0FE4F218D20FFF780
:1049E000BCFE00218E20FFF7B8FE00218F20FFF7CC
:1049F000B4FE00219020FFF7B0FE00219120FFF7C8
:104A0000ACFE00219220FFF7A8FE00219620FFF7C0
:104A1000A4FE80219A20FFF7A0FE8421B020FFF79A
:104A20009CFE0C21B120FFF798FE0E21B220FFF76B
:104A300094FE8221B320FFF790FE0A21B820FFF7F1
:104A40008CFE14214320FFF788FEF0214420FFF75D
:104A500084FE34214520FFF780FE58214620FFF7D1
:104A60007CFE28214720FFF778FE3A214820FFF7F7
:104A700074FE88215920FFF770FE88215A20FFF725
:104A80006CFE44215B20FFF768FE67215C20FFF786
:104A900064FE49215D20FFF760FE0E215E20FFF7D6
:104AA0005CFE04216420FFF758FE20216520FFF7FB
:104AB00054FE05216620FFF750FE04219420FFF7E5
:104AC0004CFE08219520FFF748FE0A216C20FFF7D5
:104AD00044FE55216D20FFF740FE11216E20FFF7A7
:104AE0003CFE9F216F20FFF738FE40216A20FFF730
:104AF00034FE40210120FFF730FE40210220FFF765
:104B00002CFEE7211320FFF728FE00211520FFF7D8
:104B100024FE80214F20FFF720FE80215020FFF748
:104B20001CFE00215120FFF718FE22215220FFF722
:104B300014FE5E215320FFF710FE80215420FFF762
:104B40000CFE9E215820FFF708FE08214120FFF7A8
:104B500004FE00213F20FFF700FE05217520FFF72E
:104B6000FCFDE1217620FFF7F8FD00214C20FFF746
:104B7000F4FD01217720FFF7F0FDC2213D20FFF772
:104B8000ECFD09214B20FFF7E8FD6021C920FFF76C
:104B9000E4FD38214120FFF7E0FD40215620FFF7DA
:104BA000DCFD11213420FFF7D8FD02213B20FFF767
:104BB000D4FD8921A420FFF7D0FD00219620FFF726
:104BC000CCFD30219720FFF7C8FD20219820FFF76A
:104BD000C4FD30219920FFF7C0FD84219A20FFF702
:104BE000BCFD29219B20FFF7B8FD03219C20FFF786
:104BF000B4FD4C219D20FFF7B0FD3F219E20FFF723
:104C0000ACFD04217820FFF7A8FD01217920FFF7F2
:104C1000A4FDF021C820FFF7A0FD0F217920FFF7A8
:104C20009CFD0021C820FFF798FD10217920FFF797
:104C300094FD7E21C820FFF790FD0A217920FFF71F
:104C40008CFD8021C820FFF788FD0B217920FFF71C
:104C500084FD0121C820FFF780FD0C217920FFF79A
:104C60007CFD0F21C820FFF778FD0D217920FFF78B
:104C700074FD2021C820FFF770FD09217920FFF77E
:104C80006CFD8021C820FFF768FD02217920FFF725
:104C900064FDC021C820FFF760FD03217920FFF7E4
:104CA0005CFD4021C820FFF758FD05217920FFF762
:104CB00054FD3021C820FFF750FD26217920FFF751
:104CC0004CFD00210920FFF748FD10BD10B5FBF792
:104CD000F7FE802421461220FFF73FFD08B900208F
:104CE00010BD0A20FBF7E7FDFFF75EFD0120F7E7A7
:104CF00070B50446FBF71BFF4220FBF7BBFF18B95A
:104D0000FBF733FF002070BD6420FBF7B9FD2046A0
:104D1000FBF7B0FF18B9FBF728FF0020F3E7FBF71C
:104D200024FF6420FBF7ACFDFBF701FF4320FBF7FA
:104D3000A1FF18B9FBF719FF0020E4E76420FBF797
:104D40009FFDFBF7E9FF0546FBF74BFFFBF70DFF68
:104D50002846D8E731490143314A1160704770B5A0
:104D6000002100230F22C47804B32D4C246804F4DE
:104D7000E064C4F5E064210AC1F10403CA40447848
:104D800004FA03F18478144021430901254C067884
:104D9000A155047804F01F050124AC4005786D117D
:104DA000AD0005F1E025C5F8004109E0047804F004
:104DB0001F050124AC401C4D0678761145F82640AD
:104DC00070BD1A4A0A400243154B1B1F1A607047F8
:104DD00039B1134A121D12680243114B1B1D1A6090
:104DE00006E00F4A121D126882430D4B1B1D1A600C
:104DF0007047042808D14FF0E021096941F004010F
:104E00004FF0E022116107E04FF0E021096921F045
:104E100004014FF0E0221161704700000000FA0524
:104E20000CED00E000E400E080E100E080FFFF1F07
:104E3000DF48006840F00100DD490860084640682E
:104E4000DC490840DA49486008460068DA49084009
:104E5000D74908600846006820F4802008600846AA
:104E6000406820F4FE0048604FF41F0088607047DF
:104E7000CF49096821F48031CD4A11601146096893
:104E800021F480211160B0F5803F03D0B0F5802F70
:104E90000ED106E0C649096841F48031C44A116068
:104EA00007E0C349096841F4A021C14A116000E04C
:104EB00000BF00BF704710B501460022002300204C
:104EC0004A11012A02D1BA4C236806E0022A02D113
:104ED000B74C236A01E0B64C636A01F01F0201245B
:104EE00094401C400CB1012000E0002010BD38B5FA
:104EF000002000900024002500BF3120FFF7DBFFD9
:104F000005460098401C00900098B0F5A06F01D0B5
:104F1000002DF2D03120FFF7CEFF08B1012400E0D0
:104F20000024204638BD01460020A14A106820F028
:104F3000F80040EAC10010607047A049086070475F
:104F4000024600209A4B586820F47C1042EA010384
:104F50001843974B58607047984908667047014658
:104F60000020934A506820F00300084350607047C7
:104F70008F48406800F00C007047014600208C4AC2
:104F8000506820F0F0000843506070470146002050
:104F9000874A506820F4E06008435060704701463B
:104FA0000020834A506820F4605040EAC1005060FD
:104FB000704729B17E4A527A02437D4B5A7204E00F
:104FC0007B4A527A82437A4B5A7270477B49D83176
:104FD0000860704701460020754A506820F4404040
:104FE0000843506070470021714A20321170704AA6
:104FF00082F82010012802D004280AD104E00121FF
:105000006B4A2032117005E00521694A2032117087
:1050100000E000BF00BF70476949086070476449FD
:10502000096A0143624A1162704765494439086060
:10503000704730B500210022002400235C4D6D68CC
:1050400005F00C0121B1042905D0082923D105E080
:105050005C4D056022E05B4D05601FE0544D6D68BE
:1050600005F47012524D6D6805F48034022505EB8D
:1050700092421CB9544D554305600BE04C4D6D6890
:1050800005F400351DB1504D5543056002E04D4D0E
:105090005543056002E04B4D056000BF00BF444D25
:1050A0006D6805F0F0010909484D6B5C0568DD404D
:1050B00045603F4D6D6805F4E061090A434D6B5C46
:1050C0004568DD4085603A4D6D6805F46051C90A58
:1050D0003E4D6B5C4568DD40C560354D6D6805F43F
:1050E0004041890B3A4D6B5CC568B5FBF3F5056132
:1050F00030BD29B12E4A526902432D4B5A6104E05A
:105100002B4A526982432A4B5A61704729B1284A77
:1051100092690243264B9A6104E0254A92698243D0
:10512000234B9A61704729B1214AD2690243204B2F
:10513000DA6104E01E4AD26982431D4BDA6170478E
:1051400029B11B4AD2680243194BDA6004E0184ABD
:10515000D2688243164BDA60704729B1144A12694B
:105160000243134B1A6104E0114A12698243104B47
:105170001A61704712494039086070470F49C86486
:1051800070470B49C87170470948406A40F0807009
:1051900007494862704701460020054A92680A4064
:1051A0000AB1012000E00020704701498872704771
:1051B000001002400000FFF8FFFFF6FE0000424230
:1051C0008004424200127A0000093D008400002061
:1051D0009400002010B50446CC48844208D1012137
:1051E0000420FFF7ADFF00210420FFF7A9FF46E0F0
:1051F000C748844208D101210820FFF7A1FF002100
:105200000820FFF79DFF3AE0C248844208D10121FF
:105210001020FFF795FF00211020FFF791FF2EE0EF
:10522000BD48844208D101212020FFF789FF0021D9
:105230002020FFF785FF22E0B848844208D10121F1
:105240004020FFF77DFF00214020FFF779FF16E0A7
:10525000B348844208D101218020FFF771FF00216B
:105260008020FFF76DFF0AE0AE48844207D101219C
:105270008015FFF765FF0021A015FFF761FF10BD46
:1052800010B501210846FFF75BFF00210120FFF761
:1052900057FF10BD2DE9F0410246002500260020F1
:1052A00000230024002791F803C00CF00F0591F8AB
:1052B00003C00CF0100CBCF1000F03D091F802C039
:1052C0004CEA050591F800C0BCF1000F31D014681C
:1052D00000202BE04FF0010C0CFA00F3B1F800C0F5
:1052E0000CEA03069E4220D183004FF00F0C0CFA0B
:1052F00003F7BC4305FA03FC4CEA040491F803C02D
:10530000BCF1280F06D14FF0010C0CFA00FCC2F8DA
:1053100014C00AE091F803C0BCF1480F05D14FF06A
:10532000010C0CFA00FCC2F810C0401C0828D1D3B4
:105330001460B1F800C0BCF1FF0F34DD54680020E8
:105340002EE000F1080C4FF0010808FA0CF3B1F858
:1053500000C00CEA03069E4221D183004FF00F0CDF
:105360000CFA03F7BC4305FA03FC4CEA040491F879
:1053700003C0BCF1280F05D100F1080C08FA0CF8A5
:10538000C2F8148091F803C0BCF1480F07D100F1B6
:10539000080C4FF0010808FA0CF8C2F81080401C05
:1053A0000828CED35460BDE8F0814FF6FF7101802C
:1053B000022181700421C170704702460020936869
:1053C0000B400BB1012000E00020704701468868C7
:1053D00080B2704702460020D3680B400BB1012019
:1053E00000E0002070470146C86880B27047016144
:1053F0007047416170470AB1016100E04161704747
:10540000C16070474FF480320A43826181618261DA
:1054100082698269704702460020434B18684FF644
:105420008073184040EA021008433F4B18607047F1
:105430003E49C8617047F0B50A46002300240021A8
:10544000002500F00046B6F1004F02D1364EF1695A
:1054500001E0354E7168C0F3034583B200F4401695
:10546000B6F5401F08D121F070612F4E766826F006
:1054700070662D4F7E6012E000F48016B6F5801F36
:1054800006D1032606FA05F4A14341F0706106E057
:10549000460D360103FA06F6B14341F0706122B1C0
:1054A000460D360103FA06F6314300F00046B6F128
:1054B000004F02D11C4EF16101E01B4E7160F0BD46
:1054C00030B500228B071C0F0F2303FA04F2164B92
:1054D00008338C1053F824309343134C08348D1048
:1054E00044F8253023468C1053F824308C07240FC1
:1054F00000FA04F423430C4C08348D1044F8253092
:1055000030BD0A49DC3108607047000000080140E6
:10551000000C01400010014000140140001801403F
:10552000001C01400020014000000140000020421A
:1055300010B50446FE48844208D10121C014FFF78B
:10554000FFFD0021E014FFF7FBFDC4E0B4F1804F44
:1055500008D101210846FFF700FE00210120FFF7D6
:10556000FCFDB8E0F348844208D101210220FFF796
:10557000F4FD00210220FFF7F0FDACE0EE4884428C
:1055800008D101210420FFF7E8FD00210420FFF7E6
:10559000E4FDA0E0E948844208D101210820FFF79A
:1055A000DCFD00210820FFF7D8FD94E0E4488442A8
:1055B00008D101211020FFF7D0FD00211020FFF7B6
:1055C000CCFD88E0DF48844208D101212020FFF78C
:1055D000C4FD00212020FFF7C0FD7CE0DA488442B2
:1055E00008D101214014FFF7ABFD00216014FFF743
:1055F000A7FD70E0D548844209D10121C804FFF716
:105600009FFD00214FF40020FFF79AFD63E0D04892
:10561000844209D101210805FFF792FD00214FF4D2
:105620008010FFF78DFD56E0CA48844209D1012160
:105630004805FFF785FD00214FF40010FFF780FDBE
:1056400049E0C548844208D101214020FFF785FD8B
:1056500000214020FFF781FD3DE0C048844208D191
:1056600001218020FFF779FD00218020FFF775FDE3
:1056700031E0BB48844208D101218015FFF76DFD60
:105680000021A015FFF769FD25E0B648844209D145
:1056900001210804FFF754FD00214FF48030FFF78B
:1056A0004FFD18E0B048844209D101214804FFF7BA
:1056B00047FD00214FF40030FFF742FD0BE0AB48FF
:1056C000844208D101218804FFF73AFD00214FF4FC
:1056D0008020FFF735FD10BD00220288944B9842D0
:1056E0000ED0994B98420BD0B0F1804F08D0914B1F
:1056F000984205D0904B984202D0904B984204D1EA
:105700004FF68F731A404B881A438D4B984207D03F
:105710008C4B984204D04FF6FF431A40CB881A4373
:1057200002808B8883850B880385814B98420BD040
:10573000854B984208D08B4B984205D08A4B9842B3
:1057400002D08A4B984201D10B7A038601238382CF
:10575000704770B5002400220023058C4FF6FE76BA
:1057600035400584028C8388048B4FF68F752C405E
:10577000B51E2C400D882C43751E2A400D892A43E6
:105780004D882A436A4DA8420BD06F4DA84208D0DD
:10579000744DA84205D0744DA84202D0734DA84262
:1057A00013D14FF6F7752A404D892A434FF6FB7502
:1057B0002A408D882A434FF6FF652B404FF6FF5550
:1057C0002B408D892B43CD892B4383800483CD8847
:1057D0008586028470BD70B5002400220023058CEC
:1057E0004FF6EF7635400584028C8388048B48F6AB
:1057F000FF752C404FF6FF452C400D884FF6FF7685
:1058000006EA05252C434FF6DF752A400D8906EA86
:1058100005152A434D8806EA05152A43444DA8423A
:1058200002D0494DA8421DD14FF67F752A404D89BF
:105830004FF6FF7606EA05152A434FF6BF752A4054
:105840008D8806EA05152A434FF6FF352B404FF2A7
:10585000FF752B408D8906EA85052B43CD8906EA25
:1058600085052B4383800483CD880587028470BD22
:1058700070B5002400220023058C4FF6FF663540EA
:105880000584028C8388848B4FF68F752C404FF6ED
:10589000FC752C400D882C434FF6FF552A400D898E
:1058A0004FF6FF7606EA05252A434D8806EA0525C8
:1058B0002A431F4DA84202D0234DA8421DD14FF2CA
:1058C000FF752A404D894FF6FF7606EA05252A43E3
:1058D0004FF6FF352A408D8806EA05252A434EF605
:1058E000FF752B404DF6FF752B408D8906EA051597
:1058F0002B43CD8906EA05152B4383808483CD880D
:105900008587028470BD70B5002200230024058CB9
:105910004EF6FF7635400584038C8488828B48F6EA
:10592000FF752A404FF6FF452A400D8820E0000011
:10593000002C01400004004000080040000C004022
:10594000001000400014004000340140004C0140B1
:10595000005001400054014000180040001C00406D
:105960000020004000400140004401400048014048
:105970004FF6FF7606EA05252A434DF6FF752B40C4
:105980000D8906EA05352B434D8806EA05352B437C
:10599000FA4DA84202D0FA4DA84208D14BF6FF7545
:1059A0002C408D894FF6FF7606EA85152C438480BE
:1059B0008283CD88A0F84050038470BD828B4FF263
:1059C000FF331A408283828B4FF6FF7303EA012371
:1059D0001A4382837047F0B50C4615460022002119
:1059E0000026078C4EF6FF7C07EA0C070784828BA3
:1059F000018C4FF6FF7707EA043640F6FF473A403E
:105A00004FF6FF7707EA05273A434FF6FF7707EA95
:105A100003373A43D94FB8420ED0D94FB8420BD0D2
:105A2000B0F1804F08D0D74FB84205D0D64FB8421A
:105A300002D0D64FB84206D14DF6FF77394046F432
:105A40008057394305E047F6FF57394044F4805703
:105A5000394382830184F0BD828B4FF6F3731A4081
:105A60008283828B0A4382837047F0B50C461546C9
:105A7000002200210026078C4FF6FF6C07EA0C0776
:105A80000784828B018C4FF6FF7707EA04264FF6D6
:105A90000C773A404FF6FF7707EA03172F433A4354
:105AA000B64FB8420ED0B64FB8420BD0B0F1804FCF
:105AB00008D0B44FB84205D0B34FB84202D0B34F6C
:105AC000B84206D14FF6FF57394046F48077394344
:105AD00005E04FF2FF57394044F480773943828321
