:020000040800F2
:10000000A8080020CD0100085D0500088D05000846
:1000100091050008950500089905000800000000FA
:100020000000000000000000000000009D05000826
:100030009F05000800000000A1050008A3050008B6
:10004000E7010008E7010008E7010008E7010008F0
:10005000E7010008E7010008E7010008A90500081A
:10006000AB050008AD050008E7010008E70100083E
:10007000E7010008E7010008E7010008E7010008C0
:10008000E7010008E7010008E7010008E7010008B0
:10009000E7010008E7010008E7010008A7050008DC
:1000A000E7010008E7010008E7010008E701000890
:1000B000E7010008A5050008BD370008E7010008B2
:1000C000E7010008E7010008E7010008E701000870
:1000D000E70100085F0500088D360008E701000809
:1000E000E7010008E7010008E7010008E701000850
:1000F000E7010008E7010008E7010008E701000840
:10010000E7010008E7010008E7010008E70100082F
:10011000E7010008E7010008E7010008E70100081F
:10012000E7010008E7010008E7010008E70100080F
:1001300000F002F800F03AF80AA090E8000C8244BF
:100140008344AAF10107DA4501D100F02FF8AFF29C
:10015000090EBAE80F0013F0010F18BFFB1A43F0A5
:1001600001031847B83B0000D83B0000103A24BFF9
:1001700078C878C1FAD8520724BF30C830C144BF0C
:1001800004680C607047000000230024002500264E
:10019000103A28BF78C1FBD8520728BF30C148BFEA
:1001A0000B6070471FB51FBD10B510BD03F0FCFB01
:1001B0001146FFF7F7FF00F0A5F803F01AFC03B4AF
:1001C000FFF7F2FF03BC03F0E1FB000009488047A2
:1001D00009480047FEE7FEE7FEE7FEE7FEE7FEE729
:1001E000FEE7FEE7FEE7FEE704480549054A064B41
:1001F000704700006721000831010008A8020020B4
:10020000A8080020A8040020A804002070B5044617
:100210000D46E1B2C74800F0F3FE00BF8021C5489B
:1002200000F05CFF0028F9D0204670BD08B5012120
:10023000142000F045FD2E20ADF8000048208DF878
:10024000030003208DF802006946BB4800F07CFAE9
:1002500008BD08B50420ADF8000003208DF80200A9
:1002600010208DF803006946B44800F06DFA202094
:10027000ADF8000003208DF8020010208DF8030077
:100280006946AF4800F060FA4820ADF8000003204E
:100290008DF8020010208DF803006946A94800F08F
:1002A00053FA2021A64800F0FEFA0821A54800F0E4
:1002B000F8FA4021A34800F0F4FA04219F4800F026
:1002C000F0FA08BD10B501F04EFF0121042000F046
:1002D000F7FC0121084600F0F3FC0121082000F0A2
:1002E000EFFC0121102000F0EBFC0121202000F0A8
:1002F000E7FC0121402000F0E3FC0121880300F02D
:10030000DFFC10BD08B500204FF416530222012176
:10031000009002F0CFFE02F08AFFFFF7D3FFFFF755
:1003200098FFFFF783FFD9E002F0A6FF2021824863
:1003300000F09DFA90BB844800F069F920217E48C6
:1003400000F095FA50BB20217C4800F0AAFA012069
:1003500000F07DF901217D4800F052FE00BF8021B0
:100360007A4800F0BBFE0028F9D00621774800F05B
:1003700047FE00BF8021754800F0B0FE0028F9D08C
:10038000022000F064F940216E4800F08CFA202130
:100390006A4800F088FA012000F059F90221664805
:1003A00000F065FA80BB684800F031F9022162482C
:1003B00000F05DFA40BB2021604800F072FA012095
:1003C00000F045F94FF48171604800F019FE00BF5C
:1003D00080215E4800F082FE0028F9D005215B48AC
:1003E00000F00EFE00BF8021584800F077FE002884
:1003F000F9D0042000F02BF90821524800F053FAFC
:1004000020214E4800F04FFA504800F0FDFD05282D
:1004100041D100243CE008214A4800F042FA402142
:10042000484800F03EFA2021454800F03CFAC82038
:1004300000F00DF90821434800F033FA402141480B
:1004400000F031FA20213E4800F02BFAC82000F0DD
:10045000FEF808213B4800F026FA4021394800F018
:1004600020FA2021364800F01CFAC82000F0EFF8EE
:100470000821344800F015FA4021324800F011FA02
:1004800020212F4800F00DFA022C00D102E0641C5C
:10049000022CC0DD00BF2D4800F0B6FD06281DD19E
:1004A0002021274800F0FFF90821264800F0FBF939
:1004B0004021244800F0F7F9254800F0A8F8202151
:1004C0001F4800F0EEF908211E4800F0EAF940212B
:1004D0001C4800F0E6F91E4800F099F824E730B512
:1004E00003460020002917DB8D18082D14DC194D58
:1004F0002D884C1B0DE0184D35F814502D1203F8C3
:10050000015B154D15F8145003F8015B641C551E72
:10051000AAB2002AEFDC00E0012030BD10B504468D
:10052000012010BD10B50446012010BD0346012076
:1005300070470000003801400010014000180140E1
:10054000000C014000140140FFFF0F000044004078
:10055000808D5B001000002000000020704710B567
:1005600040F22551124800F0CFFD70B1104800F064
:100570004BFD044621460E4800F042FD00BF80219D
:100580000B4800F0ABFD0028F9D010BD00BFFEE71E
:1005900000BFFEE700BFFEE700BFFEE77047704701
:1005A000704770477047704770477047704700004A
:1005B0000038014010B500F015FA4FF4803000F01B
:1005C00031FA00F06EFA012820D1002000F0AFFAD5
:1005D000002000F0BEFA4FF4806000F0B1FA4FF452
:1005E000E0114FF4803000F085FA012000F08EFA1F
:1005F00000BF392000F039FA0028FAD0022000F0BC
:1006000088FA00BF00F08EFA0828FBD110BD00E088
:10061000401E0028FCD17047014601EBC1024FF09B
:10062000E0235A6100229A6101221A6100BF4FF053
:10063000E022106900F001021AB100F48032002AB1
:10064000F5D000224FF0E0231A619A61704701460D
:1006500042F228324A434FF0E0235A6100229A6165
:1006600001221A6100BF4FF0E022106900F0010280
:100670001AB100F48032002AF5D000224FF0E023B6
:100680001A619A617047000010B50446CC48844254
:1006900008D10121042000F02DFB0021042000F0EE
:1006A00029FB46E0C748844208D10121082000F018
:1006B00021FB0021082000F01DFB3AE0C2488442E3
:1006C00008D10121102000F015FB0021102000F0BE
:1006D00011FB2EE0BD48844208D10121202000F00A
:1006E00009FB0021202000F005FB22E0B8488442ED
:1006F00008D10121402000F0FDFA0021402000F047
:10070000F9FA16E0B348844208D10121802000F0B4
:10071000F1FA0021802000F0EDFA0AE0AE488442B0
:1007200007D10121801500F0E5FA0021A01500F0A5
:10073000E1FA10BD10B50121084600F0DBFA0021F6
:10074000012000F0D7FA10BD2DE9F0410246002546
:100750000026002000230024002791F803C00CF09D
:100760000F0591F803C00CF0100CBCF1000F03D082
:1007700091F802C04CEA050591F800C0BCF1000FE9
:1007800031D0146800202BE04FF0010C0CFA00F37C
:10079000B1F800C00CEA03069E4220D183004FF05E
:1007A0000F0C0CFA03F7BC4305FA03FC4CEA0404F3
:1007B00091F803C0BCF1280F06D14FF0010C0CFAE0
:1007C00000FCC2F814C00AE091F803C0BCF1480F65
:1007D00005D14FF0010C0CFA00FCC2F810C0401C0F
:1007E0000828D1D31460B1F800C0BCF1FF0F34DD8C
:1007F000546800202EE000F1080C4FF0010808FAC0
:100800000CF3B1F800C00CEA03069E4221D183002C
:100810004FF00F0C0CFA03F7BC4305FA03FC4CEA4B
:10082000040491F803C0BCF1280F05D100F1080CB5
:1008300008FA0CF8C2F8148091F803C0BCF1480F14
:1008400007D100F1080C4FF0010808FA0CF8C2F8C3
:100850001080401C0828CED35460BDE8F0814FF6CC
:10086000FF710180022181700421C170704702462E
:10087000002093680B400BB1012000E0002070477E
:100880000146886880B2704702460020D3680B405A
:100890000BB1012000E0002070470146C86880B21B
:1008A000704701617047416170470AB1016100E022
:1008B00041617047C16070474FF480320A438261E2
:1008C0008161826182698269704702460020434BE0
:1008D00018684FF68073184040EA021008433F4BF7
:1008E000186070473E49C8617047F0B50A4600235A
:1008F00000240021002500F00046B6F1004F02D18F
:10090000364EF16901E0354E7168C0F3034583B29C
:1009100000F44016B6F5401F08D121F070612F4E4B
:10092000766826F070662D4F7E6012E000F4801627
:10093000B6F5801F06D1032606FA05F4A14341F05F
:10094000706106E0460D360103FA06F6B14341F048
:10095000706122B1460D360103FA06F6314300F00C
:100960000046B6F1004F02D11C4EF16101E01B4E72
:100970007160F0BD30B500228B071C0F0F2303FA06
:1009800004F2164B08338C1053F824309343134C65
:1009900008348D1044F8253023468C1053F8243049
:1009A0008C07240F00FA04F423430C4C08348D10F8
:1009B00044F8253030BD0A49DC310860704700003A
:1009C00000080140000C01400010014000140140EB
:1009D00000180140001C01400020014000000140BF
:1009E00000002042DF48006840F00100DD49086057
:1009F00008464068DC490840DA4948600846006813
:100A0000DA490840D74908600846006820F4802089
:100A100008600846406820F4FE0048604FF41F005C
:100A200088607047CF49096821F48031CD4A116050
:100A30001146096821F480211160B0F5803F03D090
:100A4000B0F5802F0ED106E0C649096841F4803127
:100A5000C44A116007E0C349096841F4A021C14AB2
:100A6000116000E000BF00BF704710B501460022D2
:100A7000002300204A11012A02D1BA4C236806E063
:100A8000022A02D1B74C236A01E0B64C636A01F036
:100A90001F02012494401C400CB1012000E0002002
:100AA00010BD38B5002000900024002500BF312083
:100AB000FFF7DBFF05460098401C00900098B0F55A
:100AC000A06F01D0002DF2D03120FFF7CEFF08B18A
:100AD000012400E00024204638BD01460020A14A40
:100AE000106820F0F80040EAC10010607047A0498B
:100AF00008607047024600209A4B586820F47C102A
:100B000042EA01031843974B5860704798490866BA
:100B1000704701460020934A506820F003000843C4
:100B2000506070478F48406800F00C0070470146E5
:100B300000208C4A506820F0F00008435060704755
:100B400001460020874A506820F4E0600843506066
:100B5000704701460020834A506820F4605040EA04
:100B6000C1005060704729B17E4A527A02437D4BE2
:100B70005A7204E07B4A527A82437A4B5A72704727
:100B80007B49D8310860704701460020754A50689B
:100B900020F440400843506070470021714A2032E1
:100BA0001170704A82F82010012802D004280AD15E
:100BB00004E001216B4A2032117005E00521694AE9
:100BC0002032117000E000BF00BF70476949086023
:100BD00070476449096A0143624A11627047654976
:100BE00044390860704730B50021002200240023FA
:100BF0005C4D6D6805F00C0121B1042905D0082970
:100C000023D105E05C4D056022E05B4D05601FE0EF
:100C1000544D6D6805F47012524D6D6805F48034C2
:100C2000022505EB92421CB9544D554305600BE07B
:100C30004C4D6D6805F400351DB1504D55430560B0
:100C400002E04D4D5543056002E04B4D056000BF8D
:100C500000BF444D6D6805F0F0010909484D6B5C1B
:100C60000568DD4045603F4D6D6805F4E061090AA7
:100C7000434D6B5C4568DD4085603A4D6D6805F419
:100C80006051C90A3E4D6B5C4568DD40C560354D1D
:100C90006D6805F44041890B3A4D6B5CC568B5FB46
:100CA000F3F5056130BD29B12E4A526902432D4B3F
:100CB0005A6104E02B4A526982432A4B5A617047B9
:100CC00029B1284A92690243264B9A6104E0254AD9
:100CD00092698243234B9A61704729B1214AD269B4
:100CE0000243204BDA6104E01E4AD26982431D4B65
:100CF000DA61704729B11B4AD2680243194BDA60A6
:100D000004E0184AD2688243164BDA60704729B172
:100D1000144A12690243134B1A6104E0114A126922
:100D20008243104B1A61704712494039086070477E
:100D30000F49C86470470B49C87170470948406A39
:100D400040F0807007494862704701460020054A1C
:100D500092680A400AB1012000E000207047014972
:100D600088727047001002400000FFF8FFFFF6FE97
:100D7000000042428004424200127A0000093D0015
:100D8000240000203400002010B50446FB488442B3
:100D900009D101218803FFF7ADFF00214FF4804006
:100DA000FFF7A8FF32E0F648844209D10121480448
:100DB000FFF7ADFF00214FF40030FFF7A8FF25E05B
:100DC000F048844209D101218804FFF7A0FF0021E7
:100DD0004FF48020FFF79BFF18E0EB48844209D1D5
:100DE0000121C804FFF793FF00214FF40020FFF713
:100DF0008EFF0BE0E548844208D101210805FFF78A
:100E000086FF00214FF48010FFF781FF10BD2DE910
:100E1000F04786B005460E460024A24600BFA14614
:100E20000027B08900B100BF2F462C8A4CF6FF7016
:100E30000440F08804432C82AC894EF6F310044041
:100E4000B08831890843718908430443AC81AC8A76
:100E50004FF6FF400440B0890443AC8201A8FFF77D
:100E6000C2FEC648874202D1DDF810A001E0DDF8DD
:100E70000CA0A88900F4004040B10AEBCA0000EBC6
:100E80000A1031684900B0FBF1F807E00AEBCA002C
:100E900000EB0A1031688900B0FBF1F86420B8FB60
:100EA000F0F004012009642101FB1089A88900F4F5
:100EB000004040B1322000EBC900B0FBF1F000F07F
:100EC0000700044308E0322000EB09106421B0FB66
:100ED000F1F000F00F0004432C8106B0BDE8F0876C
:100EE0004FF41651016000218180C18001810C21E5
:100EF000418100218181704710B502460020108A8F
:100F00004FF2FF0318400B884C8823438C882343FF
:100F1000CC8823431843108210BD002101804180FA
:100F20008180C180704721B1828942F40052828160
:100F300004E082894DF6FF731A4082817047F0B554
:100F40000346002400260025002040F66A17B94217
:100F500000D100BF1846C1F3421401F01F0601275B
:100F600007FA06F5012C01D10C3004E0022C01D166
:100F7000103000E014301AB107682F43076002E018
:100F80000768AF430760F0BD1AB1838A0B438382C1
:100F900002E0838A8B4383827047028A4FF6F073A4
:100FA0001A400282028A0A430282704782894FF203
:100FB000FF731A40828182890A438281704721B17E
:100FC000828942F00202828104E082894FF6FD7339
:100FD0001A4082817047028A4FF6DF731A400282FC
:100FE000028A0A430282704721B1028A42F4804297
:100FF000028204E0028A4BF6FF731A4002827047B5
:10100000C1F308028280704701468888C0F3080057
:101010007047818941F0010181817047028BD2B212
:101020000283028B42EA012202837047028B02F4A0
:101030007F420283028B0A430283704721B1828A76
:1010400042F02002828204E0828A4FF6DF731A4067
:101050008282704721B1828A42F01002828204E0CB
:10106000828A4FF6EF731A408282704721B1828ADA
:1010700042F00802828204E0828A4FF6F7731A4037
:101080008282704721B1828942F40042828103E06A
:101090008289C2F30E028281704721B1828A42F4B2
:1010A0000062828204E0828A4FF2FF731A408282D9
:1010B0007047828A4FF6FB731A408282828A0A4303
:1010C0008282704721B1828A42F00202828204E069
:1010D000828A4FF6FD731A408282704702460020D2
:1010E000B1F5007F00D100BF13880B400BB1012088
:1010F00000E00020704701F40072B2F5007F00D1DB
:1011000000BFCA430280704770B502460024002326
:101110000025002040F66A16B14200D100BFC1F39D
:10112000421501F01F03012606FA03F3012D02D137
:101130009689334006E0022D02D1168A334001E041
:10114000968A33400C12012606FA04F416883440BD
:1011500013B10CB1012000E0002070BD10B50022D9
:10116000002340F66A14A14200D100BF0A120124F4
:101170009440A3B2DC43048010BD0000003801405D
:101180000044004000480040004C00400050004037
:1011900010B50446FE48844208D10121C014FFF76F
:1011A000A9FD0021E014FFF7A5FDC4E0B4F1804FD4
:1011B00008D101210846FFF7AAFD00210120FFF711
:1011C000A6FDB8E0F348844208D101210220FFF7D0
:1011D0009EFD00210220FFF79AFDACE0EE4884421C
:1011E00008D101210420FFF792FD00210420FFF720
:1011F0008EFDA0E0E948844208D101210820FFF7D4
:1012000086FD00210820FFF782FD94E0E448844237
:1012100008D101211020FFF77AFD00211020FFF7EF
:1012200076FD88E0DF48844208D101212020FFF7C5
:101230006EFD00212020FFF76AFD7CE0DA48844241
:1012400008D101214014FFF755FD00216014FFF77C
:1012500051FD70E0D548844209D10121C804FFF74F
:1012600049FD00214FF40020FFF744FD63E0D04822
:10127000844209D101210805FFF73CFD00214FF40C
:101280008010FFF737FD56E0CA48844209D101219A
:101290004805FFF72FFD00214FF40010FFF72AFD4E
:1012A00049E0C548844208D101214020FFF72FFDC5
:1012B00000214020FFF72BFD3DE0C048844208D1CB
:1012C00001218020FFF723FD00218020FFF71FFD73
:1012D00031E0BB48844208D101218015FFF717FD9A
:1012E0000021A015FFF713FD25E0B648844209D17F
:1012F00001210804FFF7FEFC00214FF48030FFF7C6
:10130000F9FC18E0B048844209D101214804FFF7F4
:10131000F1FC00214FF40030FFF7ECFC0BE0AB4890
:10132000844208D101218804FFF7E4FC00214FF436
:101330008020FFF7DFFC10BD00220288944B98420A
:101340000ED0994B98420BD0B0F1804F08D0914B02
:10135000984205D0904B984202D0904B984204D1CD
:101360004FF68F731A404B881A438D4B984207D023
:101370008C4B984204D04FF6FF431A40CB881A4357
:1013800002808B8883850B880385814B98420BD024
:10139000854B984208D08B4B984205D08A4B984297
:1013A00002D08A4B984201D10B7A038601238382B3
:1013B000704770B5002400220023058C4FF6FE769E
:1013C00035400584028C8388048B4FF68F752C4042
:1013D000B51E2C400D882C43751E2A400D892A43CA
:1013E0004D882A436A4DA8420BD06F4DA84208D0C1
:1013F000744DA84205D0744DA84202D0734DA84246
:1014000013D14FF6F7752A404D892A434FF6FB75E5
:101410002A408D882A434FF6FF652B404FF6FF5533
:101420002B408D892B43CD892B4383800483CD882A
:101430008586028470BD70B5002400220023058CCF
:101440004FF6EF7635400584028C8388048B48F68E
:10145000FF752C404FF6FF452C400D884FF6FF7668
:1014600006EA05252C434FF6DF752A400D8906EA6A
:1014700005152A434D8806EA05152A43444DA8421E
:1014800002D0494DA8421DD14FF67F752A404D89A3
:101490004FF6FF7606EA05152A434FF6BF752A4038
:1014A0008D8806EA05152A434FF6FF352B404FF28B
:1014B000FF752B408D8906EA85052B43CD8906EA09
:1014C00085052B4383800483CD880587028470BD06
:1014D00070B5002400220023058C4FF6FF663540CE
:1014E0000584028C8388848B4FF68F752C404FF6D1
:1014F000FC752C400D882C434FF6FF552A400D8972
:101500004FF6FF7606EA05252A434D8806EA0525AB
:101510002A431F4DA84202D0234DA8421DD14FF2AD
:10152000FF752A404D894FF6FF7606EA05252A43C6
:101530004FF6FF352A408D8806EA05252A434EF6E8
:10154000FF752B404DF6FF752B408D8906EA05157A
:101550002B43CD8906EA05152B4383808483CD88F0
:101560008587028470BD70B5002200230024058C9D
:101570004EF6FF7635400584038C8488828B48F6CE
:10158000FF752A404FF6FF452A400D8820E00000F5
:10159000002C01400004004000080040000C004006
:1015A000001000400014004000340140004C014095
:1015B000005001400054014000180040001C004051
:1015C000002000400040014000440140004801402C
:1015D0004FF6FF7606EA05252A434DF6FF752B40A8
:1015E0000D8906EA05352B434D8806EA05352B4360
:1015F000FA4DA84202D0FA4DA84208D14BF6FF7529
:101600002C408D894FF6FF7606EA85152C438480A1
:101610008283CD88A0F84050038470BD828B4FF246
:10162000FF331A408283828B4FF6FF7303EA012354
:101630001A4382837047F0B50C46154600220021FC
:101640000026078C4EF6FF7C07EA0C070784828B86
:10165000018C4FF6FF7707EA043640F6FF473A4021
:101660004FF6FF7707EA05273A434FF6FF7707EA79
:1016700003373A43D94FB8420ED0D94FB8420BD0B6
:10168000B0F1804F08D0D74FB84205D0D64FB842FE
:1016900002D0D64FB84206D14DF6FF77394046F416
:1016A0008057394305E047F6FF57394044F48057E7
:1016B000394382830184F0BD828B4FF6F3731A4065
:1016C0008283828B0A4382837047F0B50C461546AD
:1016D000002200210026078C4FF6FF6C07EA0C075A
:1016E0000784828B018C4FF6FF7707EA04264FF6BA
:1016F0000C773A404FF6FF7707EA03172F433A4338
:10170000B64FB8420ED0B64FB8420BD0B0F1804FB2
:1017100008D0B44FB84205D0B34FB84202D0B34F4F
:10172000B84206D14FF6FF57394046F48077394327
:1017300005E04FF2FF57394044F480773943828304
:101740000184F0BD028B4FF2FF331A400283028BFB
:101750004FF6FF7303EA01231A4302837047F0B583
:101760000C461546002200210026078C4FF6EF7C20
:1017700007EA0C070784028B018C4FF6FF7707EA14
:10178000041640F6FF473A404FF6FF7707EA033763
:101790003A434FF6FF7707EA05273A438F4FB8429F
:1017A0000ED08F4FB8420BD0B0F1804F08D08D4F84
:1017B000B84205D08C4FB84202D08C4FB84206D107
:1017C0004FF6DF77394046F01007394305E04FF612
:1017D0005F77394044F01007394302830184F0BD3C
:1017E000028B4FF6F3731A400283028B0A43028383
:1017F0007047F0B50C46154600220021068C4FF6C6
:10180000FE773E400684028B018C4FF60C76324008
:101810007E1C06EA03162E433243704EB0420ED0B1
:101820006F4EB0420BD0B0F1804F08D06D4EB04239
:1018300005D06D4EB04202D06C4EB04206D14FF68C
:10184000FD76314044F00106314305E04FF6F57670
:10185000314044F00106314302830184F0BD70B58C
:1018600005460C465D4885420ED05D4885420BD04A
:10187000B5F1804F08D05B48854205D05A48854273
:1018800002D05A48854200D100E000BF208850B9FC
:101890002389A28861882846FFF7ABFFE1882846A4
:1018A000FFF79EFF25E0208804280AD12389A2881B
:1018B00061882846FFF753FFE1882846FFF742FF7B
:1018C00017E0208808280AD12389A2886188284641
:1018D000FFF7FBFEE1882846FFF7EEFE09E02389CB
:1018E000A28861882846FFF7A6FEE1882846FFF710
:1018F00095FE70BD2DE9F04105460C4600260127F6
:10190000608808B9022600E00026A088012801D1DD
:10191000022700E001272088A0B92389A2886188D6
:101920002846FFF766FFE1882846FFF759FF23891D
:101930003A4631462846FFF712FFE1882846FFF76E
:1019400001FF13E02389A28861882846FFF707FF7B
:10195000E1882846FFF7F6FE23893A4631462846B5
:10196000FFF747FFE1882846FFF73AFFBDE8F0811F
:101970000A884B881A438B881A43CB881A430B89F1
:101980001A434B891A438B891A43A0F844207047A5
:101990004FF6FF71818000210180C180418001727A
:1019A00070470021018041808180C1800181418197
:1019B0008181C181704700210180418001218180A6
:1019C0000021C18001817047002101804180818018
:1019D000C18001814181818170470000002C01405C
:1019E000003401400004004000080040000C0040AA
:1019F00021B1028842F00102028004E002884FF621
:101A0000FE731A400280704731B1B0F8442042F4AE
:101A10000042A0F8442005E0B0F84420C2F30E02D2
:101A2000A0F8442070471AB183890B43838102E0F8
:101A300083898B43838170478182704741EA020327
:101A4000A0F8483070471AB183890B43838102E0C4
:101A500083898B438381704701894FF6F872114067
:101A6000018170470A46002101894FF68F731940A2
:101A700011430181704730B504460D462946204682
:101A8000FFF7F0FF208940F00700208130BD2DE9ED
:101A9000F04104460D4616461F46602D06D13B46D2
:101AA000012231462046FFF75AFE05E03B4601225F
:101AB00031462046FFF79DFE29462046FFF7D2FF1C
:101AC000208940F007002081BDE8F08130B50C4648
:101AD00000210189C9B24FF6FF7505EA03251543B8
:101AE00025432943018130BD2DE9F04105460E46CD
:101AF00017469846002443463A4631462846FFF7A3
:101B0000E5FF2C894FF6F870044044F007044FF6C7
:101B10008F70044044F070042C81BDE8F081F0B572
:101B200004460D4616461F463B4632462946204689
:101B3000FFF7CCFF208940F480402081F0BD018573
:101B4000828270470A46002101884FF68F73194040
:101B5000114301807047F0B50C4615461E46002122
:101B6000002200230189028B038C4FF6F87739405D
:101B700021434FF6FC473A4040F201173A434FF6F3
:101B8000DD773B404FF6FF7707EA06172F433B43CD
:101B9000018102830384F0BD0A460021018B4FF6C8
:101BA0008F7319401143018370470A460021018B4E
:101BB00048F6FF7319404FF6FF7303EA02231943F7
:101BC000018370470A460021818B4FF68F731940BD
:101BD0001143818370470A460021818B48F6FF73C9
:101BE00019404FF6FF7303EA0223194381837047BC
:101BF00021B1028842F08002028004E002884FF6A0
:101C00007F731A400280704721B1828842F004023B
:101C1000828004E082884FF6FB731A40828070470E
:101C200021B1828842F00802828004E082884FF667
:101C3000F7731A408280704721B1828842F0010216
:101C4000828004E082884FF6FE731A4082807047DB
:101C50000A460021018B4FF6F773194011430183A7
:101C600070470A460021018B4FF2FF7319404FF66F
:101C7000FF7303EA02231943018370470A460021D8
:101C8000818B4FF6F77319401143818370470A46E1
:101C90000021818B4FF2FF7319404FF6FF7303EA67
:101CA00002231943818370470A460021018B4FF6B6
:101CB000FB7319401143018370470A460021018BD1
:101CC0004FF6FF3319404FF6FF7303EA022319431F
:101CD000018370470A460021818B4FF6FB73194040
:101CE0001143818370470A460021818B4FF6FF33F1
:101CF00019404FF6FF7303EA0223194381837047AB
:101D00000A460021018B4FF67F731940114301836E
:101D100070470A460021018BC1F30E014FF6FF7395
:101D200003EA02231943018370470A460021818B8D
:101D30004FF67F7319401143818370470A46002193
:101D4000818BC1F30E014FF6FF7303EA022319439F
:101D5000818370470A460021018C4FF6FD731940BC
:101D60001143018470470A460021018C4FF6F77336
:101D700019401143018470470A460021018C4FF637
:101D8000DF7319404FF6FF7303EA0213194301840E
:101D900070470A460021018C4FF67F7319404FF6B9
:101DA000FF7303EA02131943018470470A460021B6
:101DB000018C4FF6FF5319404FF6FF7303EA0223DD
:101DC0001943018470470A460021018C4FF2FF73CA
:101DD00019404FF6FF7303EA022319430184704749
:101DE0000A460021018C4DF6FF7319404FF6FF7330
:101DF00003EA023319430184704730B500230124FC
:101E00008C40A3B2048C9C430484048C02FA01F538
:101E1000ADB22C43048430BD30B5002304248C4083
:101E2000A3B2048C9C430484048C02FA01F5ADB285
:101E30002C43048430BD70B50346002000241846AE
:101E4000183001258D40ACB21D8CA5431D8409B10D
:101E5000082909D100EB6100056825F070050560CF
:101E60000568154305600EE00D1FC5F34E052844B7
:101E7000056825F4E045056005684FF6FF7606EA3B
:101E800002263543056070BD21B1028842F002028E
:101E9000028004E002884FF6FD731A40028070470A
:101EA00021B1028842F00402028004E002884FF669
:101EB000FB731A400280704721B1828842F0800291
:101EC000828004E082884FF67F731A4082807047D8
:101ED00002884FF6F7731A40028002880A43028094
:101EE000704782884FF68F731A40828082880A4337
:101EF0008280704702894FF6F8731A400281028986
:101F00000A430281704702894FF67F731A400281AB
:101F100002890A4302817047818470478185704736
:101F2000818670470187704781877047A0F840100D
:101F3000704702884FF6FF431A40028002880A4326
:101F4000028070470146888E70470146088F7047AF
:101F50000146888F70470146B1F84000704701463E
:101F6000888C70470146088D704702460020138A0E
:101F70000B400BB1012000E000207047CA430282F1
:101F8000704730B50246002000230024158A05EA78
:101F90000103958905EA010413B10CB1012000E0A9
:101FA000002030BDCA43028270470000314901431E
:101FB000314A1160704770B5002100230F22C478A8
:101FC00004B32D4C246804F4E064C4F5E064210AF1
:101FD000C1F10403CA40447804FA03F18478144040
:101FE00021430901254C0678A155047804F01F050A
:101FF0000124AC4005786D11AD0005F1E025C5F870
:10200000004109E0047804F01F050124AC401C4D98
:102010000678761145F8264070BD1A4A0A400243F8
:10202000154B1B1F1A60704739B1134A121D1268F5
:102030000243114B1B1D1A6006E00F4A121D126865
:1020400082430D4B1B1D1A607047042808D14FF0C6
:10205000E021096941F004014FF0E022116107E03D
:102060004FF0E021096921F004014FF0E0221161F5
:10207000704700000000FA050CED00E000E400E00D
:1020800080E100E080FFFF1F0CB500200190009070
:102090006C48006840F480306A49086000BF6948B5
:1020A000006800F4003000900198401C01900098F6
:1020B00018B90198B0F5A06FF1D16248006800F43A
:1020C000003010B10120009001E000200090009845
:1020D000012843D15C48006840F010005A4908606C
:1020E0000846006820F0030008600846006840F0D9
:1020F00002000860534840685249486008464068FA
:1021000048600846406840F480604860084640687F
:1021100020F47C1048600846406840F4E8104860AD
:102120000846006840F08070086000BF45480068BD
:1021300000F000700028F9D04248406820F0030009
:10214000404948600846406840F00200486000BFCF
:102150003C48406800F00C000828F9D10CBD10B5CF
:10216000FFF792FF10BD10B53648006840F001003F
:10217000344908600846406834490840314948609D
:1021800008460068324908402E4908600846006841
:1021900020F4802008600846406820F4FE00486073
:1021A0004FF41F008860FFF7DAFF4FF00060294905
:1021B000086010BD10B5002100200022214B5B6893
:1021C00003F00C0121B1042906D0082928D107E029
:1021D000214B224C236027E01F4B204C236023E03F
:1021E000184B5B6803F47010164B5B6803F4803285
:1021F000022303EB904022B9194B4343174C236051
:102200000DE0104B5B6803F4003323B1144B4343E0
:10221000124C236003E0104B4343104C236003E057
:102220000D4B0E4C236000BF00BF064B5B68C3F331
:1022300003130C4CE15C094B1B68CB40074C23603B
:1022400010BD000000100240002002400000FFF816
:10225000FFFFF6FE08ED00E000127A0038000020D3
:1022600000093D003C0000202DE9F04180460C466D
:1022700015461E4600270A20F649087033460722F5
:102280002946204601F00AF9012801D0032706E07B
:1022900044F6206001F024FA012800D003273846D4
:1022A000BDE8F08110B50021012001F0C7F8002041
:1022B000E949087001F0A9F810BD10B500210846E1
:1022C00001F0BCF801F062FA10BD10B50246002022
:1022D00003E012F8014B2318D8B20B00A1F101045E
:1022E000A1B2F6D14342D8B210BD2DE9F041044667
:1022F0000D4616460027D9480088FF2800DC04E078
:102300009D22D7A1DCA001F06DFAD44800880328F3
:1023100013DBD2480188E2480068FFF7D6FF60B9B6
:10232000DF48006800782070CC480088801E30802C
:10233000DB480068401C286000E005273846BDE8FF
:10234000F0812DE9F04104460D4616464FF0000895
:10235000C148007818BB681ED24908600120D249E4
:102360000880D0480068047008460088304408801F
:1023700008460188CB480068FFF7A7FF0746CA490F
:102380000888411CC84A1180C54909680F540120BA
:10239000C64908700121002001F050F801E04FF01B
:1023A00005084046BDE8F0810146302905DB3929A2
:1023B00003DCA1F13000C0B27047412905DB46299A
:1023C00003DCA1F13700C0B2F6E7FF20F4E738B52F
:1023D0000025B648007800B904E0E422A0A1B4A02A
:1023E00001F000FA684601F03FF99B4800780028A8
:1023F0006ED0012802D0022879D146E001F0B3F96D
:102400009DF800003A2805D10020B0490870934992
:10241000088039E09DF800000D2803D102208E4984
:10242000087031E09DF80000FFF7BEFF0446A748A2
:10243000007810B1012826D114E088480088FF28D0
:102440000ADC2007000E96490968844A12888854DD
:1024500001209E49087016E000207F49087001F0B5
:1024600095F910E08E4909687C4A1288881801782D
:102470002143017079480088401C78490880002079
:102480009249087000BF00BF31E09DF8000071491B
:102490000978884209D101F079F900206E49087065
:1024A000012000F0B2FF054611E09DF800003A2837
:1024B0000AD10020854908706849088001206649D2
:1024C000087001F050F902E00020634908700EE046
:1024D0009DF800003A2809D101F045F900205F4934
:1024E00008807A49087001205B49087000BF00BF6E
:1024F000284638BD10B50446092C03DC04F1300031
:10250000C0B210BD0A2C05DB0F2C03DC04F1370030
:10251000C0B2F6E740F2D11251A16DA001F062F90C
:1025200070B500254C48007800B905E04FF4A8725A
:102530004BA168A001F056F95C480078052864D2E8
:10254000DFE800F05E030E474F003A24204601F01A
:1025500069F802205549087000205C49087054E071
:102560005148008800282DDD5848007810B1012816
:1025700027D10DE04B49096809780811FFF7BAFF28
:102580000446204601F04EF801205049087018E03A
:1025900044490968097801F00F00FFF7ABFF0446D2
:1025A000204601F03FF83F480068401C3D49086064
:1025B0000020464908703C480088401E3A4908807F
:1025C00000BF05E00D2001F02DF803203749087009
:1025D0001BE02048007801F025F8042033490870FA
:1025E00013E0002031490870032000F00EFF05467B
:1025F0000021012000F022FF00202C49087004E097
:102600000021012000F01AFF00BF00BF284670BD66
:1026100010B511480078012802D0022805D100E049
:1026200000BF00200C4908700FE00B48007801281B
:1026300003D009480078022800D105E04FF4D47295
:1026400007A12B4801F0CEF800BF00BF01F09EF8B3
:10265000002010BD5F0000204D000020540000202D
:102660006D6F646275735C61736369695C6D6261EF
:10267000736369692E6300007573526376427566F1
:10268000666572506F73203C204D425F5345525F28
:102690005044555F53495A455F4D41580000000072
:1026A00050000020580000205C0000204C0000205A
:1026B00065536E645374617465203D3D20535441ED
:1026C00054455F54585F49444C4500005600002073
:1026D00030000000655263765374617465203D3D9F
:1026E0002053544154455F52585F49444C450000C3
:1026F000743C00082DE9F05F06460D464FF0000BD4
:102700002888052844D170784FEA002AB07840EA3A
:102710000A0AF078040230790443012C35DBB4F561
:10272000FA6F32DA374600202880012007F8010BC3
:102730002888401C288004F0070040B12046E1179B
:1027400004EB5171C910491C01F0FF0805E0204657
:10275000E11704EB5171C1F3C70807F8018B288812
:10276000401C28800023224651463846FDF7DAFEF9
:102770008146B9F1000F04D0484600F0BEFA834606
:1027800008E028884044288004E04FF0030B01E073
:102790004FF0030B5846BDE8F09F2DE9F84304467F
:1027A0000E464FF000083088052827D160780702D0
:1027B000A07807432079F0B9E078FF2801D0E078CD
:1027C000C8B900208DF80100E078FF2803D101206E
:1027D0008DF8000002E000208DF8000001231A4669
:1027E00039466846FDF79EFE05464DB1284600F085
:1027F00084FA804604E04FF0030801E04FF003083C
:102800004046BDE8F8832DE9F05F05460E464FF0DF
:10281000000B3088052838DD68784FEA0029A87851
:1028200040EA0909E87804022879044395F805A0EC
:1028300004F0070038B12046E11704EB5171C910CC
:10284000491CCFB205E02046E11704EB5171C1F3FA
:10285000C707012C16DBB4F5F66F13DC574511D111
:10286000012322464946A81DFDF75CFE8046B8F1CB
:10287000000F04D0404600F040FA834607E00520F0
:10288000308004E04FF0030B01E04FF0030B58469B
:10289000BDE8F09F2DE9F05F06460D464FF0000BB6
:1028A0002888052843D170784FEA002AB07840EA9A
:1028B0000A0AF078040230790443012C34DBB4F5C1
:1028C000FA6F31DA374600202880022007F8010B22
:1028D0002888401C288004F0070040B12046E117FA
:1028E00004EB5171C910491C01F0FF0805E02046B6
:1028F000E11704EB5171C1F3C70807F8018B288871
:10290000401C2880224651463846FDF70FFE81467E
:10291000B9F1000F04D0484600F0EFF9834608E013
:1029200028884044288004E04FF0030B01E04FF07A
:10293000030B5846BDE8F09F2DE9F04104460F46D1
:102940004FF000083888052812D160780502A07879
:102950000543681C85B201231A462946E01CFDF791
:10296000DDFD064636B1304600F0C7F9804601E08D
:102970004FF003084046BDE8F0812DE9F0470446DA
:102980000E464FF0000A3088062828DB60780702E0
:10299000A0780743781C87B2E078050220790543C8
:1029A00094F80590012D17DB782D15DC6806000ED4
:1029B000484511D101232A463946A01DFDF7AEFD39
:1029C0008046B8F1000F04D0404600F096F98246E8
:1029D00007E00520308004E04FF0030A01E04FF0EB
:1029E000030A5046BDE8F0872DE9F04705460C463E
:1029F0004FF0000A2088052837D168784FEA002870
:102A0000A87840EA080808F101001FFA80F8E87881
:102A100006022E79012E25DB7D2E23DC2F46002099
:102A20002080032007F8010B2088401C20807006BE
:102A3000000E07F8010B2088401C2080002332463E
:102A400041463846FDF76AFD8146B9F1000F04D0D2
:102A5000484600F052F9824609E0208800EB460023
:102A6000208004E04FF0030A01E04FF0030A5046D3
:102A7000BDE8F0872DE9FC5F04460D46002000907C
:102A800028880A285DDB60784FEA002AA07840EAAF
:102A90000A0A0AF101001FFA80FAE078060220799A
:102AA000064360794FEA002BA07940EA0B0B0BF14B
:102AB00001001FFA80FBE0790702207A0743607A61
:102AC0000190012E3BDB7D2E39DC012F37DB792F86
:102AD00035DC79000198814231D101233A465946CB
:102AE00004F10A00FDF71AFD8146B9F1000F1ED16D
:102AF000A04600202880172008F8010B2888401CD9
:102B000028807006000E08F8010B2888401C2880D9
:102B10000023324651464046FDF700FD8146B9F19B
:102B2000000F04D12888022101FB06002880B9F19A
:102B3000000F06D0484600F0E0F8009001E00320C6
:102B400000900098BDE8FC9F2DE9F04705460C4633
:102B50004FF0000A2088052837D168784FEA00280E
:102B6000A87840EA080808F101001FFA80F8E87820
:102B7000060228790643012E24DB7D2E22DA2F4619
:102B800000202080042007F8010B2088401C2080B2
:102B90007006000E07F8010B2088401C208032468A
:102BA00041463846FDF79BFC8146B9F1000F04D041
:102BB000484600F0A2F8824609E0208800EB460073
:102BC000208004E04FF0030A01E04FF0030A504672
:102BD000BDE8F0872DE9F04105460E4617461C4634
:102BE0004FF00008A01C202826DA00201C4908808D
:102BF000084601880088401C194A1080194845542D
:102C00000EB1FF2200E00022154801880088401C18
:102C1000134B188013484254002C0FDD01461A460E
:102C2000128888182246394600F01CFE0C4800889D
:102C300020440B49088001E04FF004084046BDE8FD
:102C4000F08170B505460C46054802880549681CA8
:102C500000F008FE02480088401C2080002070BD63
:102C600060000020280100202DE9FF5F05460E4688
:102C70009046DDF80CB0B8F1080F00DC04E0382213
:102C800026A12DA000F0AEFDF408A6EBC4001FFAAB
:102C900080FA0BFA0AF01FFA80FB012000FA08F014
:102CA000401E1FFA80F9A6EBC40009FA00F01FFAD3
:102CB00080F92F5D601C285C47EA002727EA09009D
:102CC00040EA0B072F553912601C2954BDE8FF9FBD
:102CD000F0B503460C461546E208A4EBC20087B2E5
:102CE0000120A840401E86B2995C501C185C41EA45
:102CF000002139413140C8B2F0BD014621B101295E
:102D000004D0072906D103E0002005E0022003E0FB
:102D1000062001E0042000BF00BF70476D6F6462B1
:102D200075735C66756E6374696F6E735C6D6275E6
:102D300074696C732E63000075634E42697473206E
:102D40003C3D20380000000070B502460C46FF25CF
:102D5000FF2309E012F8010B80EA03010648405CFA
:102D600080EA05030548455C2000A4F10106B4B2E1
:102D7000F0D143EA052070BD723A0008723B0008AA
:102D80002DE9F04781460E4614461F464FF00008D5
:102D90003B4608222146304600F080FB012802D045
:102DA0004FF003080FE0B4F5964F01D9232503E057
:102DB00060009B49B1FBF0F5A8B200F091FC01283E
:102DC00001D04FF003084046BDE8F08710B5002061
:102DD000944908700021012000F030FB00F0C3FC92
:102DE00010BD10B50021084600F028FB00F0CEFC15
:102DF00010BD2DE9F04104460D4616464FF000087F
:102E0000002789480088FF2800DC04E09D2287A174
:102E10008BA000F0E7FC84480088042812DB82487D
:102E200001889148FFF790FF60B98F4800782070C3
:102E30007D480088C01E30808B48401C28604FF0C1
:102E4000010800E005273846BDE8F0812DE9F04192
:102E500005460E4617464FF00008724800780128D4
:102E600029D1701E814908600120814908807F486E
:102E700000680570084600883844088008460188C4
:102E80007A480068FFF760FF044679490888411CCA
:102E9000774B198074490C54221219460888411C3A
:102EA000198071490A5401207249087001210020DB
:102EB00000F0C4FA01E04FF005084046BDE8F0819B
:102EC00038B500246B48007800B904E0E72257A128
:102ED00069A000F087FC684600F0C6FB5148007806
:102EE00030B101280AD0022819D003282BD102E0E2
:102EF00000F039FC27E000F036FC24E000204A49CD
:102F000008809DF800200888411C474B19805649CD
:102F10000A5402204349087000F025FC13E042489F
:102F20000088FF2809DC9DF800203F490888411CE3
:102F30003D4B19804C490A5402E00320394908707E
:102F400000F011FC00BF00BF204638BD10B50024C2
:102F500034480078012800D105E04FF4917233A184
:102F60004CA000F03FFC4348007810B1012824D168
:102F700004E00021012000F061FA1EE03C480088D6
:102F800078B13A490968087800F04CFB3748006886
:102F9000401C3649086036480088401E3449088085
:102FA0000AE0032000F031FA04460021012000F07D
:102FB00045FA00202F49087000BF00BF204610BD11
:102FC00010B500241748007820B1022807D0032844
:102FD0000BD109E0002000F018FA044618E00120A7
:102FE00000F013FA044613E012E00E48007838B1FE
:102FF0000C480078022803D00A480078032800D142
:1030000005E040F25B1209A1294800F0EBFB00BF8C
:1030100000BF00F0BBFB012002490870204610BD34
:10302000A07F1700650000206E0000206D6F6462B5
:1030300075735C7274755C6D627274752E630000DA
:103040007573526376427566666572506F73203C85
:10305000204D425F5345525F5044555F53495A4596
:103060005F4D41580000000048010020680000202A
:103070006C0000206400002065536E64537461741A
:1030800065203D3D2053544154455F54585F4944A9
:103090004C450000655263765374617465203D3D74
:1030A0002053544154455F52585F49444C450000F9
:1030B000B83C00082DE9F04705460C4616461F4669
:1030C000DDF820904FF000081CB1012C01DBF72C3B
:1030D00002DD4FF0020859E0AA48047015B1012D35
:1030E00042D120E0A848A9490860A948A949086038
:1030F000A948AA490860AA48AA4908600020AA4924
:103100000860AA48AA490860AA48AB490860AB48C9
:10311000AB4908604B463A4631469A480078FFF77B
:103120002FFE804623E0A74898490860A6489949A1
:103130000860A64899490860A5489A490860002097
:1031400099490860A3489A490860A3489A490860C9
:10315000A2489B4908604B463A4631468948007868
:10316000FFF782F8804602E04FF0020800BF00BF80
:10317000B8F1000F0AD100F043F910B94FF003087D
:1031800004E0974805700120964908704046BDE864
:10319000F08730B502460B46002A36DD7F2A34DC44
:1031A000F3B1002112E0904C04EBC10464682CB12F
:1031B0008D4C04EBC10464689C4206D18A4C04F82F
:1031C000312004EBC104636002E0491C1029EADBF2
:1031D00000BF102901D0002400E00424204615E09F
:1031E00000210DE0804C14F83140944207D10024B6
:1031F0007D4D05F8314005EBC1056C6002E0491CCE
:103200001029EFDB00BF002000E0022030BD10B528
:10321000002474480078012806D16348006820B172
:1032200061480068804700E00624204610BD10B5C4
:1032300000246C480078012806D154480068804773
:1032400000206849087000E00624204610BD10B533
:103250006448007838B94F480068804701206149C8
:103260000870002406E05F480078012801D100249E
:1032700000E00624204610BD38B5002559480078E6
:1032800008B1062038BD684600F0C7F8012877D19C
:103290009DF8000030B1012805D0022818D003287D
:1032A0006DD16BE06BE0514A514952483D4B1B6870
:1032B000984705465DB94F480078324909788842F9
:1032C00002D04C48007810B9022000F09EF856E079
:1032D000474800680078484908700120474908704D
:1032E000002417E0404810F8340000B914E03E48CC
:1032F00010F834004049097888420AD13A4800EB76
:10330000C4003A4942683A48006890473B4908700F
:1033100002E0641C102CE5DB00BF3648007858B38F
:1033200036480078C8B1002030490880324800781B
:1033300040F080012D4802880088401C2B4B1880EB
:103340002B48006881542D4802781846018800886F
:10335000401C188026480068425421480078012803
:1033600000D100BF21480288214801680548007843
:103370000A4B1B689847054601E001E000BF00BF0B
:1033800000207FE770000020CD2D0008780000208D
:10339000E32D00087C0000204D2E00087400002062
:1033A000F32D00088000002084000020C12E0008BA
:1033B000880000204D2F00088C000020C12F00083D
:1033C00090000020A5220008BB220008432300082B
:1033D000EB220008CF230008212500081126000851
:1033E00071000020720000209C00002022010020BB
:1033F0001C010020200100202101002024010020C8
:1034000000200C4908700120704701460120094A3C
:103410001070094801700120704701460020054ADC
:10342000127832B1044A12780A700022014B1A70E5
:1034300001207047260100202501002070B50546B7
:103440000C4655B1012240F225519F48FDF777FD0A
:1034500020219E48FDF727FA09E0002240F225517D
:103460009948FDF76CFD20219848FDF71AFA54B1F0
:10347000012240F226619448FDF761FD2021934826
:10348000FDF70FFA09E0002240F226618E48FDF7B1
:1034900056FD20218D48FDF706FA70BDF0B587B0C6
:1034A00004460D4616461F4601210420FDF708FC80
:1034B00001214804FDF711FC0420ADF81800032099
:1034C0008DF81A0018208DF81B0006A98048FDF71A
:1034D0003BF90820ADF8180003208DF81A000420ED
:1034E0008DF81B0006A97A48FDF72EF94FF4165007
:1034F00002900020ADF80C00ADF80E004FF4806093
:10350000ADF810000020ADF814000C20ADF812004A
:1035100002A96D48FDF77BFC012240F225516A4863
:10352000FDF70DFD01216848FDF7FDFC40216648CF
:10353000FDF7E1FD01210420FDF7C2FB0121880315
:10354000FDF7BEFB4FF40070ADF8180003208DF8B6
:103550001A0018208DF81B0006A95D48FDF7F4F845
:103560004FF48060ADF8180003208DF81A00042095
:103570008DF81B0006A95648FDF7E6F84FF41650E3
:1035800002900020ADF80C00ADF80E00ADF8100070
:10359000ADF814000C20ADF8120002A94D48FDF75B
:1035A00036FC012240F225514A48FDF7C8FC0121B2
:1035B0004848FDF7B8FC40214648FDF79CFD4FF414
:1035C000C060FEF7F3FC26208DF8040000208DF883
:1035D00005008DF8060001208DF8070001A8FEF710
:1035E000EAFC25208DF8040001208DF805008DF8F7
:1035F00006008DF8070001A8FEF7DDFC0121402040
:10360000FDF75EFB2020ADF8180003208DF81A00AE
:1036100010208DF81B0006A92C48FDF795F8012015
:1036200007B0F0BD70B5064640F225512648FDF7BB
:1036300055FD18B12448FDF7E7FCC4B240F225510E
:103640002148FDF78BFD40F225512248FDF746FD4C
:1036500018B12048FDF7D8FCC5B240F225511D48ED
:10366000FDF77CFD204670BD10B504461648FDF7F9
:10367000CBFC2070012010BD10B5174800688047B2
:1036800010BD10B515480068804710BD10B540F258
:1036900025510D48FDF738FD012806D1FFF7F1FF50
:1036A00040F225510848FDF759FD40F226610648D1
:1036B000FDF72AFD012806D1FFF7DEFF40F2266163
:1036C0000148FDF74BFD10BD0044004000180140CB
:1036D00000080140003801408C00002088000020D4
:1036E0007FB50446002501210420FDF7F6FA3A488B
:1036F000006844F62061B0FBF1F0401E85B2ADF8E1
:103700000840ADF804500020ADF80A00ADF80600FE
:1037100001A93248FDF710FE01213048FEF768FA92
:103720004FF4C060FEF742FC1E208DF80000002020
:103730008DF8010002208DF8020001208DF80300B1
:103740006846FEF738FC01212448FEF72BFC0022D6
:1037500001212248FEF767F900212048FEF748F9C9
:10376000012004B070BD10B501211C48FEF71AFC01
:10377000012211461948FEF756F900211748FEF7B5
:10378000CBFB01211548FEF733F910BD10B501211F
:103790001248FEF707FC002201211048FEF743F90A
:1037A00000210E48FEF7B8FB00210C48FEF720F977
:1037B00010BD10B50A480068804710BD10B5012142
:1037C0000648FEF7DEFB28B101210448FEF7EAFBBC
:1037D000FFF7EFFF10BD0000380000200008004098
:1037E000900000200EB5054614460E4613A000F0CA
:1037F00089F8284600F086F816A000F083F83046D5
:1038000000F080F815A000F07DF800218DF80B1075
:103810000A210DF10A008DF80A1008E094FBF1F27C
:1038200001FB124294FBF1F4303200F8012D002C20
:10383000F4DC00F067F800F05DF800002A2A2A2086
:10384000617373657274696F6E206661696C65641B
:103850003A2000002C2066696C6520002C206C69E1
:103860006E652000032A40F2308010F0030C00F057
:10387000158011F8013BBCF1020F624498BF11F8AA
:1038800001CB00F8013B38BF11F8013BA2F1040263
:1038900098BF00F801CB38BF00F8013B11F00303DB
:1038A00000F03A80083AC0F0088051F8043B083A2A
:1038B00051F804CBA0E80810F5E7121D5CBF51F8E1
:1038C000043B40F8043BAFF30080D20724BF11F85B
:1038D000013B11F801CB48BF11F8012B24BF00F8C0
:1038E000013B00F801CB48BF00F8012B704770473F
:1038F00070477047002000F04FF8FCF755FC01209E
:1039000000F044F810B5044602E0641C00F036F8FC
:1039100020780028F9D110BD10B5203AC0F00B80F6
:10392000B1E81850203AA0E81850B1E81850A0E8C3
:103930001850BFF4F5AF5FEA027C24BFB1E818501D
:10394000A0E8185044BF18C918C0BDE810405FEA8D
:10395000827C24BF51F8043B40F8043B08BF704709
:10396000D20728BF31F8023B48BF11F8012B28BF0E
:1039700020F8023B48BF00F8012B704708B56946A4
:103980008DF800000320ABBE08BD000001491820DF
:10399000ABBEFEE72600020010B500F035F8BDE82A
:1039A000104000F02CB87047754600F045F8AE4660
:1039B00005006946534620F00700854618B020B53B
:1039C000FCF712FCBDE820404FF000064FF0000766
:1039D0004FF000084FF0000B21F00701AC46ACE8B7
:1039E000C009ACE8C009ACE8C009ACE8C0098D4624
:1039F00070470446AFF300802046FCF7E0FB002848
:103A000001D0FFF7C3BF704710B5002102A000F03E
:103A100017F8012010BD0000534947414252543A63
:103A20002041626E6F726D616C207465726D696E9B
:103A30006174696F6E000000004870474802002002
:103A400070B505460C460A2000E06D1CFFF796FF96
:103A500035B128780028F8D102E0641CFFF78EFF0A
:103A600014B120780028F8D1BDE870400A20FFF793
:103A700085BF00C1814001C0804101C0804100C1BB
:103A8000814001C0804100C1814000C1814001C02E
:103A9000804101C0804100C1814000C1814001C01E
:103AA000804100C1814001C0804101C0804100C10E
:103AB000814001C0804100C1814000C1814001C0FE
:103AC000804100C1814001C0804101C0804100C1EE
:103AD000814000C1814001C0804101C0804100C1DE
:103AE000814001C0804100C1814000C1814001C0CE
:103AF000804101C0804100C1814000C1814001C0BE
:103B0000804100C1814001C0804101C0804100C1AD
:103B1000814000C1814001C0804101C0804100C19D
:103B2000814001C0804100C1814000C1814001C08D
:103B3000804100C1814001C0804101C0804100C17D
:103B4000814001C0804100C1814000C1814001C06D
:103B5000804101C0804100C1814000C1814001C05D
:103B6000804100C1814001C0804101C0804100C14D
:103B7000814000C0C101C30302C2C60607C705C514
:103B8000C404CC0C0DCD0FCFCE0E0ACACB0BC90985
:103B900008C8D81819D91BDBDA1A1EDEDF1FDD1D95
:103BA0001CDC14D4D515D71716D6D21213D311D1C5
:103BB000D010F03031F133F3F23236F6F737F53515
:103BC00034F43CFCFD3DFF3F3EFEFA3A3BFB39F945
:103BD000F83828E8E929EB2B2AEAEE2E2FEF2DED15
:103BE000EC2CE42425E527E7E62622E2E323E12185
:103BF00020E0A06061A163A3A26266A6A767A56595
:103C000064A46CACAD6DAF6F6EAEAA6A6BAB69A904
:103C1000A86878B8B979BB7B7ABABE7E7FBF7DBD14
:103C2000BC7CB47475B577B7B67672B2B373B17144
:103C300070B0509091519353529296565797559514
:103C400094549C5C5D9D5F9F9E5E5A9A9B5B9959C4
:103C50005898884849894B8B8A4A4E8E8F4F8D4D94
:103C60004C8C448485458747468682424383418104
:103C7000804000002820655263765374617465208B
:103C80003D3D2053544154455F52585F52435620A6
:103C900029207C7C202820655263765374617465EA
:103CA000203D3D2053544154455F52585F57414990
:103CB000545F454F4620290028206552637653748F
:103CC000617465203D3D2053544154455F52585F17
:103CD000494E49542029207C7C2028206552637657
:103CE0005374617465203D3D2053544154455F52E7
:103CF000585F5243562029207C7C2028206552633F
:103D0000765374617465203D3D2053544154455FA2
:103D100052585F4552524F52202900003C3D000846
:103D200000000020280100006C010008643E00082B
:103D3000280100208007000088010008010002001F
:103D40000300040005000600070008000000001042
:103D50000020003000400050006000700080000033
:103D60000000000001020304010203040607080921
:103D70000204060800A24A0400000000000000003F
:103D800001020304060708090000000048010020A2
:103D90000000000000000000000000000000000023
:103DA0000000000000000000000000000000020011
:103DB0000000000000000000000000000000000003
:103DC00000000000000000000000000000000000F3
:103DD000000000000000000011000000432C00085B
:103DE00004000000492B000803000000E929000836
:103DF000100000007B290008060000003929000897
:103E000017000000752A000801000000F5260008D0
:103E1000050000009B2700080F000000072800088D
:103E200002000000952800080000000000000000CB
:103E30000000000000000000000000000000000082
:103E40000000000000000000000000000000000072
:103E50000000000000000000000000000000000062
:043E6000000000005E
:0400000508000131BD
:00000001FF
